:100000000C944C050C9474050C9474050C947405B4
:100010000C9474050C9474050C9474050C9474057C
:100020000C9474050C9474050C9474050C9474056C
:100030000C9474050C94CC140C9474050C947405F5
:100040000C946F100C9474050C949A140C94741402
:100050000C9474050C9474050C9474050C9474053C
:100060000C943D0E0C947405DB40A4A62EAFDA026E
:1000700081DA1281DA02818F2000A1C8D300408D7D
:10008000AED580A800006000000000000000000065
:100090000000000000E00000000000000000000080
:1000A00000000001E000000000000000000000006F
:1000B000000001F00000000000000000000000004F
:1000C0000003F0000000000000000000000000003D
:1000D00007F0000000000000000000000000000722
:1000E000F8000000000000000000000000000FF811
:1000F00000000003C0007E000001E0007F0FF80058
:10010000000003C000FE000001E000FFEFF8000067
:100110000003C000FE000001E000FFFFF800000047
:1001200003C000F00000000F007FFE7FC00000034E
:10013000C000F00000000F003FFE7FF83FF1FBCF52
:10014000FCFEF3BC3DEFE01FFE7FFF7FFBFFDFFE09
:10015000FEFFBC3DEFE01FC6FFFF7FFBFFDFFEFEA3
:10016000FFBC3DEFE00FE3C7FE787BC3DE1EF0FF70
:10017000BC3DEF0007FF87FC787BC3DE1EF0F83C38
:100180003DEF0001FFFFF0007BC3C01EF0F03C3DDF
:10019000EF0001F37FE03FFBC3CFFEF0F03C3DEF0B
:1001A0000003E33F807FFBC3DFFEF0F03C3DEF0048
:1001B00007E73C00787BC3DE1EF0F03C3DEF000714
:1001C000FFBE00787BC3DE1EF0F03C3DEF0007FF72
:1001D000FE00787BC3DE1EF0F03C3DEF000FFFFE1B
:1001E000007FFBFFDFFEF0F03FFDEFE00FFFFF00C1
:1001F0007FFBFFDFFEF0F03FFDEFE00FF9FF003E79
:1002000079F9CF9EF0F01F3DE7E01FF1FF000000FD
:100210000000000000000000001F80FF007FFFFFC3
:10022000FFFFFFFFFFFFFFE01C007F007FFFFFFFDE
:10023000FEB46D888D18E000001F007FFFFFFFFEF9
:1002400095AD7DB577E000000F007FFFFFFFFEA5B5
:10025000AD9D8D19E0000006007FFFFFFFFEB5ADEC
:10026000EDB57EE00000000000018000000000000D
:1002700000000000038000000000000000000007F4
:10028000C000000000000000000007C000000000E7
:1002900000000000000FC00000000000000000008F
:1002A0001FE00000000000000000001FE000000050
:1002B0000000000000003FE000000000000000001F
:1002C000003FF00000000000000000007FF0000090
:1002D00000000000001FF87FF00000000000000098
:1002E0003FFE7FF0000000000000003FFF7FF000B5
:1002F0000000000000001FFFFBE000000000000005
:10030000000FFFF9FFC00000000000000FFFF9FF21
:10031000F800000000000007FFF1FFFF00000000F0
:10032000000003FC73FFFF80000000000001FE3F9F
:10033000FFFF80000000000000FF1E0FFF00000014
:10034000000000007FFE1FFC000000000000003FD6
:10035000FFFFF8000000000000000FDFFFE00000DA
:1003600000000000001F19FFC00000000000000096
:100370003F3CFF00000000000000007E7CF8000011
:100380000000000000007FFE7C0000000000000074
:1003900000FFFFFC0000000000000000FFFFFE0067
:1003A00000000000000000FFFFFE00000000000051
:1003B0000001FFEFFE0000000000000001FFCFFE83
:1003C0000000000000000003FF07FE000000000026
:1003D000000003FC07FE0000000000000003F00323
:1003E000FE00000000000000018000FE0000000090
:1003F0000000000000007E0000000000000000007F
:10040000003E000000000000000000000C000000A2
:10041000000000078000FC000003C000000007800F
:1004200001FC000003C0000000078001FC00000385
:10043000C0000000078001E00000001E000000076F
:100440008001E00000001E007FE3F79FF9FDE778E0
:100450007BDFC0FFF7FFBFFDFDFF787BDFC0FFF74D
:10046000FFBFFDFDFF787BDFC0F0F787BC3DE1FFFC
:10047000787BDE00F0F787BC3DE1F0787BDE0000A2
:10048000F787803DE1E0787BDE007FF7879FFDE125
:10049000E0787BDE00FFF787BFFDE1E0787BDE00E0
:1004A000F0F787BC3DE1E0787BDE00F0F787BC3DEC
:1004B000E1E0787BDE00F0F787BC3DE1E0787BDEB1
:1004C00000FFF7FFBFFDE1E07FFBDFC0FFF7FFBFED
:1004D000FDE1E07FFBDFC07CF3F39F3DE1E03E7B8D
:1004E000CFC00000000000000000000000FFFFFF80
:1004F000FFFFFFFFFFFFFFC0FFFFFFFFFD68DB11F6
:100500001A31C0FFFFFFFFFD2B5AFB6AEFC0FFFF50
:10051000FFFFFD4B5B3B1A33C0FFFFFFFFFD6B5B33
:10052000DB6AFDC02200FF2100000000002400273C
:10053000002A0000000000250028002B0000000019
:100540000023002600290004040404040404040217
:100550000202020202030303030303010204081060
:10056000204080010204081020010204081020002D
:100570000000080002010000030407000000000062
:10058000000000000103070F1F3F7F0080C0E0F064
:10059000F8FCFE00000000003E5B4F5B3E3E6B4FF0
:1005A0006B3E1C3E7C3E1C183C7E3C181C577D5705
:1005B0001C1C5E7F5E1C00183C1800FFE7C3E7FFB1
:1005C0000018241800FFE7DBE7FF30483A060E2644
:1005D00029792926407F050507407F05253F5A3C9C
:1005E000E73C5A7F3E1C1C08081C1C3E7F14227FDF
:1005F00022145F5F005F5F06097F017F00668995B7
:100600006A606060606094A2FFA29408047E04089F
:1006100010207E201008082A1C08081C2A08081E22
:10062000101010100C1E0C1E0C30383E3830060E08
:100630003E0E06000000000000005F000000070002
:100640000700147F147F14242A7F2A1223130864BE
:100650006236495620500008070300001C22410062
:100660000041221C002A1C7F1C2A08083E080800A2
:100670008070300008080808080000606000201042
:100680000804023E5149453E00427F4000724949FC
:1006900049462141494D331814127F1027454545DD
:1006A000393C4A49493141211109073649494936FE
:1006B000464949291E000014000000403400000093
:1006C00008142241141414141400412214080201C5
:1006D0005909063E415D594E7C1211127C7F4949F1
:1006E00049363E414141227F4141413E7F4949498E
:1006F000417F090909013E414151737F0808087F84
:1007000000417F41002040413F017F081422417F8A
:10071000404040407F021C027F7F0408107F3E4122
:1007200041413E7F090909063E4151215E7F091979
:100730002946264949493203017F01033F40404091
:100740003F1F2040201F3F4038403F631408146380
:1007500003047804036159494D43007F414141023C
:1007600004081020004141417F040201020440407E
:10077000404040000307080020545478407F28443C
:1007800044383844444428384444287F3854545426
:100790001800087E090218A4A49C787F0804047835
:1007A00000447D40002040403D007F102844000070
:1007B000417F40007C047804787C08040478384445
:1007C000444438FC1824241818242418FC7C0804F9
:1007D0000408485454542404043F44243C4040201A
:1007E0007C1C2040201C3C4030403C4428102844C5
:1007F0004C9090907C4464544C4400083641000076
:1008000000770000004136080002010204023C2685
:1008100023263C1EA1A161123A4040207A3854544C
:1008200055592155557941225454784221555478CF
:100830004020545579400C1E527212395555555965
:10084000395454545939555454580000457C41008A
:1008500002457D420001457C407D1211127DF02849
:100860002528F07C545545002054547C547C0A09BA
:100870007F4932494949323A4444443A324A484825
:10088000303A4141217A3A42402078009DA0A07D33
:100890003D4242423D3D4040403D3C24FF242448EF
:1008A0007E4943662B2FFC2F2BFF0929F620C08899
:1008B0007E090320545479410000447D413048486A
:1008C0004A32384040227A007A0A0A727D0D193184
:1008D0007D2629292F28262929292630484D4020E0
:1008E000380808080808080808382F10C8ACBA2FBC
:1008F000102834FA00007B000008142A1422221465
:100900002A14085500550055AA55AA55AAFF55FFA7
:1009100055FF000000FF00101010FF00141414FF1A
:10092000001010FF00FF1010F010F0141414FC0061
:100930001414F700FF0000FF00FF1414F404FC146B
:100940001417101F10101F101F1414141F00101064
:1009500010F0000000001F101010101F10101010D9
:10096000F010000000FF101010101010101010FFF9
:1009700010000000FF140000FF00FF00001F101710
:100980000000FC04F414141710171414F404F400F9
:1009900000FF00F714141414141414F700F71414BF
:1009A00014171410101F101F141414F4141010F046
:1009B00010F000001F101F0000001F14000000FCBA
:1009C000140000F010F01010FF10FF141414FF14A6
:1009D0001010101F00000000F010FFFFFFFFFFF0DD
:1009E000F0F0F0F0FFFFFF0000000000FFFF0F0F2E
:1009F0000F0F0F3844443844FC4A4A4A347E0202FE
:100A00000606027E027E0263554941633844443C37
:100A100004407E201E2006027E020299A5E7A599C9
:100A20001C2A492A1C4C7201724C304A4D4D303000
:100A300048784830BC625A463D3E494949007E01EB
:100A400001017E2A2A2A2A2A44445F444440514A0A
:100A5000444040444A51400000FF0103E080FF0051
:100A60000008086B6B083612362436060F090F068D
:100A7000000018180000001010003040FF010100B5
:100A80001F01011E00191D1712003C3C3C3C0000D8
:100A900000000000F825AF2011241FBECFEFD8E0E2
:100AA000DEBFCDBF24E0A4EBB1E001C01D92A732B0
:100AB000B207E1F711E0A0E0B1E0E4E2FAE502C03C
:100AC00005900D92A43BB107D9F715E0CBE4D5E032
:100AD00004C02197FE010E94F929CA34D107C9F741
:100AE0000E94BE200C94052D0C94000085ED80938F
:100AF000BC008091BC0084FDFCCF10926A02089576
:100B00004091F601262F30E0240F311D21323105AE
:100B1000DCF420916A022430C9F4FC0180E090E00A
:100B2000861758F43091F6012191DC01AA52BE4F8C
:100B3000A30FB11D2C930196F3CF8091F601680F9E
:100B40006093F60180E0089581E0089582E00895C1
:100B5000089508950895E0911E0280911D02E817FE
:100B600030F4F0E0EA54FE4F808190E008958FEF7A
:100B70009FEF089590911E0280911D02981750F4E6
:100B8000E92FF0E0EA54FE4F208130E09F5F909320
:100B90001E0202C02FEF3FEFC901089580911D0290
:100BA00090E020911E02821B91090895CF92DF925E
:100BB000EF92FF920F931F93CF93DF937C01CB01B2
:100BC0008A0120916B02222389F0EB016B01C40E94
:100BD000D51ECC15DD0569F06991D701ED91FC9129
:100BE0000190F081E02DC7010995F3CF642F0E9499
:100BF0008005C801DF91CF911F910F91FF90EF9079
:100C0000DF90CF900895CF93DF931F92CDB7DEB7DB
:100C1000698320916B022223D1F020918E02203231
:100C200040F021E030E0FC013383228380E090E05B
:100C300015C080916C02E82FF0E0E359FD4F9981D7
:100C400090838F5F80936C0280938E0205C061E079
:100C5000CE0101960E94800581E090E00F90DF9127
:100C6000CF9108950895FC016370668B848195810E
:100C700026813781613039F0633029F09187808790
:100C80003387228708953187208793878287089545
:100C90006F927F928F929F92AF92BF92CF92DF928C
:100CA000EF92FF920F931F93CF93DF93EC014B01D1
:100CB0005A0169013801E881F9810284F385E02D48
:100CC0000995E881F9810288F389E02D8701960171
:100CD000A501B401CE010995A501460D571D41504E
:100CE0005109E881F9810288F389E02D9601B40168
:100CF000CE010995E881F9810088F189E02D930101
:100D0000A501B401CE010995C80CD91CB6016150EA
:100D10007109E881F9810088F189E02D9301A5012D
:100D2000CE010995E881F9810688F789E02DCE0189
:100D3000DF91CF911F910F91FF90EF90DF90CF90B7
:100D4000BF90AF909F908F907F906F9009948F92FB
:100D50009F92AF92BF92CF92DF92EF92FF920F934A
:100D60001F93CF93DF934C016B015A01E901DC0122
:100D7000ED91FC916217730781F40417150724F4B1
:100D80008B2D5801042F182F0A191B0998012F5F6A
:100D90003F4F048CF58DE02D12C04017510709F527
:100DA0002617370724F48D2D6901C62FD82F9E01F1
:100DB0002C193D092F5F3F4F068CF78DE02D8701E1
:100DC000A501B601C4010995DF91CF911F910F9143
:100DD000FF90EF90DF90CF90BF90AF909F908F905B
:100DE00008950284F385E02D0995D401ED91FC91DD
:100DF0000488F589E02D9E01A501B601C40109957D
:100E0000D401ED91FC910688F789E02DC401DF91B2
:100E1000CF911F910F91FF90EF90DF90CF90BF90F7
:100E2000AF909F908F900994EF92FF920F931F9332
:100E3000DC011A960D911C911B9718962D913C91EF
:100E40001997ED91FC9100A0F1A1E02D7B0140E00C
:100E500050E060E070E009951F910F91FF90EF90D6
:100E600008954F925F926F927F928F929F92AF926E
:100E7000BF92CF92DF92EF92FF920F931F93CF9387
:100E8000DF936C012B015A0139014801DC01ED911E
:100E9000FC910284F385E02D0995E201640C751C38
:100EA000D601ED91FC91C615D7055CF40088F18957
:100EB000E02D87019401A501BE01C6010995219687
:100EC000EFCF0688F789E02DC601DF91CF911F9102
:100ED0000F91FF90EF90DF90CF90BF90AF909F90D9
:100EE0008F907F906F905F904F9009948F929F9218
:100EF000AF92BF92CF92DF92EF92FF920F931F9328
:100F0000CF93DF93EC015B014A016901E881F9812C
:100F10000284F385E02D099595012C0D3D1D21508E
:100F20003109E881F9810488F589E02D780184018F
:100F3000A401B501CE010995E881F9810688F789F8
:100F4000E02DCE01DF91CF911F910F91FF90EF9097
:100F5000DF90CF90BF90AF909F908F9009948F9229
:100F60009F92AF92BF92CF92DF92EF92FF920F9338
:100F70001F93CF93DF93EC015B014A016901780174
:100F8000E881F9810284F385E02D0995C80CD91C0C
:100F9000860101501109E881F9810488F589E02D65
:100FA0009501A401B501CE010995E881F981068872
:100FB000F789E02DCE01DF91CF911F910F91FF9026
:100FC000EF90DF90CF90BF90AF909F908F9009945B
:100FD000EF92FF920F931F93DC01ED91FC9100A023
:100FE000F1A1E02D09951F910F91FF90EF900895C9
:100FF0000F931F93DC01ED91FC91068CF78DE02D92
:1010000009951F910F9108950F931F93DC01ED91A6
:10101000FC91048CF58DE02D09951F910F91089599
:10102000DC01ED91FC910084F185E02D09942F9273
:101030003F924F925F926F927F928F929F92AF9268
:10104000BF92CF92DF92EF92FF920F931F93CF93B5
:10105000DF9300D000D000D0CDB7DEB72C017E8367
:101060006D836A015901C801FC82EB824801841A30
:10107000950A97FE03C091948194910835012D81C2
:101080003E81621A730A77FE03C0719461947108FD
:10109000681479045CF43A2D2B2D5C01832F922F78
:1010A0003D812E81DE82CD82C32ED22EAD81BE81C6
:1010B000AA16BB065CF43C2D2D2D6C01832F922FBC
:1010C0003D812E81BE82AD82A32EB22E85012D815F
:1010D0003E81021B130B1C012C183D0837FE03C078
:1010E000319421943108780117FF03C03FEFE31AD0
:1010F000F30AF594E794C816D9062CF08FEF9FEF0A
:101100009A83898304C0A1E0B0E0BA83A9832D81CA
:101110003E81A216B30624F1D201ED91FC91048424
:10112000F585E02D2B813C816814790424F44D81F0
:101130005E81B60103C0A6016D817E81C201099561
:10114000E218F308F7FE06C029813A81C20ED31EC9
:10115000E00EF11E8D819E8101969E838D83D7CFF7
:1011600026960FB6F894DEBF0FBECDBFDF91CF91AC
:101170001F910F91FF90EF90DF90CF90BF90AF90B5
:101180009F908F907F906F905F904F903F902F90A7
:101190000895089580E090E008958F929F92AF9215
:1011A000CF92EF92FF920F931F93CF93DF93EC01B7
:1011B000262F898D9A8D009709F042C06A3059F424
:1011C0001D861C862D898E859F8538E0239F800D86
:1011D000911D112443C06D3009F4AAC08F89882362
:1011E000C9F03C898C859D8546E0349F800D911D1A
:1011F0001124488559854817590764F41D861C86B3
:101200003D898E859F8548E0349F800D911D112476
:101210009F878E87EA88FB88088919894E855F85B4
:101220006C857D85AD88CC88CE010E94601C2C89A0
:101230008C859D8536E0239F800D911D11243EC035
:101240006A3079F41D861C862D89FC013696E4915E
:101250008E859F852E9F800D911D11249F878E87DF
:1012600067C06D3009F464C0FC0134963491631793
:1012700008F45EC03196E491E61708F459C0462F91
:10128000431B342FFC0132968590949047E0349FA5
:10129000800C911C1124F401329634913196E49122
:1012A000332311F0E1110DC0F4013496E4912C893F
:1012B0008C859D85E29F800D911D11249D878C87D3
:1012C00037C0F401359644915F89552319F15C8943
:1012D000E32FF0E0E40FF11D47FDFA955E9FB001AA
:1012E0005F9F700D11244C855D85460F571F6885E3
:1012F00079856417750774F41D861C863D89FC0189
:101300003696E4918E859F853E9F800D911D112418
:101310009F878E87EA88FB88088919894E855F85B3
:101320006C857D85AD88CC88CE010E94601CBCCFC9
:1013300081E090E0DF91CF911F910F91FF90EF90AE
:10134000CF90AF909F908F9008954F925F926F9241
:101350007F928F929F92AF92BF92CF92DF92EF9245
:10136000FF920F931F93CF93DF9300D000D000D054
:10137000CDB7DEB70E94E71A80E090E00E948E1899
:1013800060E771E080ED93E00E9472140E94AF1953
:1013900060E771E08FE892E00E94EB136CE771E088
:1013A0008FE892E00E94EB1381E090E09093AD0310
:1013B0008093AC0310927603109277031092780317
:1013C0001092790388E097E0A0E0B0E08093980362
:1013D00090939903A0939A03B0939B031092940364
:1013E0001092950310929603109297031092720335
:1013F00010927303109274031092750380918E0300
:1014000090918F03A0917E03B0917F03BA83A9834B
:10141000019709F0DFC0BD01BB0F880B990B0E943B
:10142000272820918A0330918B0340918C0350919F
:101430008D030E94622820E030E040E752E40E94E1
:10144000FF294B015C016091880370918903072E8D
:10145000000C880B990B0E9427286B017C010091DE
:10146000900310919103A5019401C501B4010E945C
:1014700062282B013C01B801660F771F072E000C74
:10148000880B990B0E9427289B01AC01C301B20174
:101490000E94FF29A70196010E9462280E94712ADA
:1014A0002B013C0160939C0370939D0380939E03EA
:1014B00090939F03E0919203F0919303FE83ED8359
:1014C000C801012E000CAA0BBB0B89839A83AB8346
:1014D000BC839C01AD01C301B2010E9471299F012F
:1014E000FF0F440B550B0E94CB292093A003309390
:1014F000A1034093A2035093A303D301C201820F1F
:10150000931FA41FB51F89309740A105B1053CF179
:1015100028E037E0AD81BE810E94EA299D01200FBD
:10152000311F032E000C440B550B0E94CB29209336
:101530009C0330939D0340939E0350939F0388E048
:1015400097E0A0E0B0E0821B930BA40BB50B809357
:10155000A0039093A103A093A203B093A303698176
:101560007A818B819C810E9427289B01AC0160E0DD
:1015700070E080E090E40E94FF29A70196010E949C
:10158000FF290E94AD2A20E03AE045E259E40E949A
:1015900062280E94712A6093A4037093A50380932C
:1015A000A6039093A703A501940160E074E284E789
:1015B00099E40E94FF29A70196010E94FF290E9439
:1015C000712A6093A8037093A9038093AA03909350
:1015D000AB035DC010929C0310929D0310929E037A
:1015E00010929F031092A0031092A1031092A203E5
:1015F0001092A30320918A0330918B0340918C03B6
:1016000050918D0360EC71EE84E69CE40E94FF290A
:101610006B017C0129813A81B901330F880B990B49
:101620000E9427289B01AC01C701B6010E94FF2937
:101630006B017C016091880370918903072E000C77
:10164000880B990B0E9427289B01AC01C701B601AA
:101650000E94FF290E94712A6093A8037093A90336
:101660008093AA039093AB0397FD09C06093A403F2
:101670007093A5038093A6039093A70308C01092CC
:10168000A4031092A5031092A6031092A7038091C1
:10169000980390919903A0919A03B0919B03181617
:1016A00019061A061B060CF0E4C080907A0390908D
:1016B0007B03A0907C03B0907D0381149104A1046E
:1016C000B10439F56091AC03809180030E94D91F69
:1016D00061E0809182030E94D91F0E9444206983A7
:1016E0007A838B839C83C090A403D090A503E09061
:1016F000A603F090A7038091980390919903A0917D
:101700009A03B0919B03181619061A061B0604F1DA
:1017100078C0C0907603D0907703E0907803F09083
:101720007903C114D104E104F10421F40E9444209E
:101730006B017C010E944420DC01CB018C199D09C6
:10174000AE09BF0988159905AA05BB0598F3BACF5C
:101750009C01AD01215031094109510920939803A1
:101760003093990340939A0350939B038091940381
:1017700090919503A0919603B09197030196A11DB6
:10178000B11D8093940390939503A0939603B09317
:10179000970360918E0370918F036130710589F515
:1017A000211531054105510561F14090A00350908C
:1017B000A1036090A2037090A3034216530664062F
:1017C00075060CF08AC040919C0350919D03609176
:1017D0009E0370919F03481759076A077B078CF097
:1017E000C4C08091A8039091A903A091AA03B091CD
:1017F000AB038093A4039093A503A093A603B09397
:10180000A7030E9444202B013C010E94442046165D
:10181000570668067906C9F360E0809182030E944A
:10182000D91F0E94442060937603709377038093BE
:10183000780390937903A981BA816A1B7B0BCB0152
:10184000A0E0B0E08C159D05AE05BF0528F4C81AD0
:10185000D90AEA0AFB0A04C0C12CD12C7601C39430
:10186000C0927A03D0927B03E0927C03F0927D03D6
:1018700010C01092760310927703109278031092A2
:10188000790310927A0310927B0310927C031092DA
:101890007D0380917A0390917B03A0917C03B091AA
:1018A0007D03892B8A2B8B2B09F0F1CE26960FB660
:1018B000F894DEBF0FBECDBFDF91CF911F910F9186
:1018C000FF90EF90DF90CF90BF90AF909F908F9060
:1018D0007F906F905F904F9008954090720350906A
:1018E00073036090740370907503ACEFBFEF0E94B8
:1018F000F4294B015C01BFEF8B1A9B0AAB0ABB0AB0
:10190000D701C601880F991FAA1FBB1FBC01CD01BB
:10191000640D751D861D971DA50194010E94CB299C
:10192000D701C601821B930BA40BB50B8093A403B4
:101930009093A503A093A603B093A703880F991FC4
:10194000AA1FBB1FBC01CD01640D751D861D971D0F
:10195000A50194010E94CB296093720370937303D5
:1019600080937403909375034CCF84179507A60753
:10197000B7070CF036CF409072035090730360901D
:1019800074037090750352E0880F991FAA1FBB1F44
:101990005A95D1F74C015D013FEF831A930AA30AD0
:1019A000B30AAECFCF92DF92EF92FF920F931F93C5
:1019B000CF938091AE0387FD69C09091AF0397FDEF
:1019C00065C09091B9039923A1F02091B70330919C
:1019D000B803225031093093B8032093B703209104
:1019E000B7033091B80337FF04C01092B8031092C8
:1019F000B7030E94B01F2091B10330E08217930714
:101A000011F4C3E001C0C0E08091AF030E94B01F99
:101A10002091B10330E08217930711F481E0C827C9
:101A20008091B4039091B5038C1B80FF18C02C2FBC
:101A3000CC0F330B3093B5032093B4032091B20342
:101A40003091B3038270082E000C990B0197820F1E
:101A5000931F9093B3038093B20381E001C080E0B1
:101A60009091B903992391F0882381F08091B70375
:101A70009091B803883E9B4048F48091B7039091C1
:101A8000B80349969093B8038093B7030E94A320AC
:101A90000091C8031091C9032091CA033091CB0370
:101AA000601771078207930740F41092C8031092E1
:101AB000C9031092CA031092CB034091B0031416CD
:101AC0003CF04111D2C02091BE03222309F4CDC0C5
:101AD0000091C8031091C9032091CA033091CB0330
:101AE0006B017C01C01AD10AE20AF30A9701860150
:101AF0000A3011052105310508F4B7C06093C80309
:101B00007093C9038093CA039093CB039091BF0352
:101B1000842F992331F14E3008F08E508770806405
:101B200080937C0080917A00806480937A00809119
:101B30007A0086FDFCCF809178002091790090E0BA
:101B4000922B2091CC033091CD038217930784F020
:101B500021E04091CE035091CF03481759074CF034
:101B600005C00E94B01F21E0892B19F420E001C0BC
:101B700021E03091B10332131EC0E091C003F09117
:101B8000C1033196F093C103E093C0038091C40375
:101B90009091C5036AE070E00E9481296E177F076B
:101BA00050F48091BD03882331F083E090E090935E
:101BB000BB038093BA0381E08327821343C08091E3
:101BC000C0039091C1030297C8F18091BA0390912C
:101BD000BB03039719F484E090E014C02091C20382
:101BE0003091C30322303105B0F08091C60390914B
:101BF000C7036AE070E00E94812926173707F0F4D6
:101C000086E090E09093BB038093BA031092C303E5
:101C10001092C20313C08091BC03882349F08091C5
:101C2000C6039091C7036AE070E00E94812902C058
:101C300061E070E07093C3036093C2031092C1032C
:101C40001092C0038091C2039091C303009769F082
:101C500001979093C3038093C203892B31F485E0ED
:101C600090E09093BB038093BA03CF911F910F91A3
:101C7000FF90EF90DF90CF9008951F920F920FB6D4
:101C80000F9211242F933F934F935F936F937F9302
:101C90008F939F93AF93BF93EF93FF938091B9007E
:101CA000887F803609F49CC068F5883209F45BC0EF
:101CB00090F4803109F454C038F4882309F4F6C054
:101CC000883009F44DC0F6C0883109F44CC0803228
:101CD00009F45DC0EFC0803409F468C048F4803373
:101CE00009F455C0883309F0E5C080936802D8C074
:101CF000803509F44FC0883509F45DC0883409F097
:101D0000D9C0D6C0883909F4C7C0A8F4883709F407
:101D100067C038F4883609F463C0803709F460C0BE
:101D2000C9C0883809F4B8C0803909F45FC0803868
:101D300009F0C0C05BC0803B09F486C038F4803A2B
:101D400009F466C0883A09F47FC0B4C0803C09F445
:101D5000A7C0883C09F4A4C0883B09F48AC0AAC083
:101D60008091450210C09091670280916602981799
:101D700070F5E091670281E08E0F80936702F0E0DA
:101D8000EA5BFD4F80818093BB0085EC86C0809329
:101D900068028EC0E091670281E08E0F8093670237
:101DA0008091BB00F0E0EA5BFD4F80839091670279
:101DB000809166026EC0E091670281E08E0F809391
:101DC00067028091BB00F0E0EA5BFD4F8083809169
:101DD000690281116DC081E08093440284EA61C090
:101DE00083E080936A0210921802CFCF809118028C
:101DF000803208F051C0E091180281E08E0F80938C
:101E000018028091BB00F0E0E850FE4F8083BDCF08
:101E100085EC8093BC0010926A0280911802803297
:101E200030F4E0911802F0E0E850FE4F108260912B
:101E3000180270E0E0911902F0911A0288EF91E027
:101E400009951092180236C084E080936A021092BD
:101E5000F7011092F601E0911B02F0911C02099526
:101E60008091F601811105C081E08093F601109206
:101E7000D601E091F70181E08E0F8093F701F0E049
:101E8000EA52FE4F80818093BB009091F7018091D0
:101E9000F601981708F479CF85E88093BC000AC052
:101EA00085EC8093BC0010926A0204C01092680214
:101EB0000E947605FF91EF91BF91AF919F918F9115
:101EC0007F916F915F914F913F912F910F900FBE36
:101ED0000F901F901895F8948091B2039091B303DE
:101EE0002091B603223021F49C012170332707C0D2
:101EF0002091B603243041F49C01237033273093A2
:101F0000B3032093B20304C01092B3031092B20340
:101F10002091B603243021F4959587959595879562
:101F20002091B603223011F4959587952091B9033D
:101F3000222339F02091B7033091B803232F3327A0
:101F400002C020E030E097FF03C02095309507C025
:101F5000892B19F02F5F3F4F02C020E030E07894CA
:101F60008091B4019091B501821B930B9093B501C0
:101F70008093B40120911F023091200282179307B1
:101F800039F09093200280931F02821B930B0895D7
:101F9000F8948091BA039091BB032091BA033091D9
:101FA000BB032330310511F0009741F47894882366
:101FB00011F09927089580E090E008951092BB03F6
:101FC0001092BA03F3CFAF92BF92CF92DF92EF920B
:101FD000FF920F931F93CF93DF93CDB7DEB7289770
:101FE0000FB6F894DEBF0FBECDBF8C016B016FE75B
:101FF00071E00E949D136FE771E08FE892E00E940C
:102000007214CE0101967C019AE0C916D1042CF518
:1020100080E389831A82D8011496AD90BC901597FD
:10202000BFEFAB1ABB0AB501C8010E94B9108823E3
:1020300079F0F8012081318184819581B701820F87
:10204000931F0E94FE2CD8011596BC92AE92149755
:1020500060E38FE892E00E9473114AE0B701C60185
:102060000E94F027F70101900020E9F73197EE195F
:10207000FF09E1F0D8011496AD90BC901597AE0E13
:10208000BF1EB501C8010E94B910882379F0F8017C
:102090002081318184819581B701820F931F0E9435
:1020A000FE2CD8011596BC92AE921497B6018FE81B
:1020B00092E00E94071BC80128960FB6F894DEBF75
:1020C0000FBECDBFDF91CF911F910F91FF90EF9089
:1020D000DF90CF90BF90AF9008950E94E92C1F929F
:1020E0000F920FB60F9211242F933F938F939F93CC
:1020F000AF93BF9380911B0490911C04A0911D0489
:10210000B0911E043091310223E0230F2D3720F4CB
:102110000196A11DB11D05C026E8230F0296A11D41
:10212000B11D2093310280931B0490931C04A09353
:102130001D04B0931E0480911F0490912004A0916F
:102140002104B09122040196A11DB11D80931F04AA
:1021500090932004A0932104B0932204BF91AF91E7
:102160009F918F913F912F910F900FBE0F901F90D5
:1021700018950F931F93CF93DF93EC01888199817A
:10218000009729F02A813B812617370788F48B01B5
:102190006F5F7F4F0E94232C009761F099838883A3
:1021A0001B830A832C813D81232B11F4FC011082B7
:1021B00081E001C080E0DF91CF911F910F910895E0
:1021C000CF92DF92EF92FF920F931F93CF93DF9303
:1021D0006C017A018B01C0E0D0E0CE15DF0581F003
:1021E000D8016D918D01D601ED91FC910190F081A6
:1021F000E02DC6010995892B11F02196EECF7E01C5
:10220000C701DF91CF911F910F91FF90EF90DF9069
:10221000CF900895FC01538D448D252F30E0842FFD
:1022200090E0821B930B541710F0CF9608950197FE
:102230000895FC01918D828D981761F0828DDF01E8
:10224000A80FB11D5D968C91928D9F5F9F73928FA9
:1022500090E008958FEF9FEF0895FC01918D828D9E
:10226000981731F0828DE80FF11D858D90E008956B
:102270008FEF9FEF0895FC01918D228D892F90E0C3
:10228000805C9F4F821B91098F73992708958FE877
:1022900092E00E943B1121E0892B09F420E0822F7B
:1022A0000895FC01848DDF01A80FB11DA35ABF4F13
:1022B0002C91848D90E001968F739927848FA68945
:1022C000B7892C93A089B1898C91837080648C9399
:1022D000938D848D981306C00288F389E02D808148
:1022E0008F7D80830895EF92FF920F931F93CF937A
:1022F000DF93EC0181E0888F9B8D8C8D981305C056
:10230000E889F989808185FD26C0F62E0B8D10E0C5
:102310000F5F1F4F0F731127E02E8C8DE8120CC03A
:102320000FB607FCFACFE889F989808185FFF5CFE0
:10233000CE010E945111F1CF8B8DFE01E80FF11DEE
:10234000E35AFF4FF0829FB7F8940B8FEA89FB891D
:10235000808180620AC09FB7F894EE89FF8960830C
:10236000E889F98980818370806480839FBF81E0E0
:1023700090E0DF91CF911F910F91FF90EF90089522
:10238000CF93DF93EC01888D8823C9F0EA89FB891C
:10239000808185FD05C0A889B9898C9186FD0FC013
:1023A0000FB607FCF5CF808185FFF2CFA889B989E8
:1023B0008C9185FFEDCFCE010E945111E7CFDF91C7
:1023C000CF91089580E090E0892B29F00E94471179
:1023D00081110C940000089580E890E00895EF9238
:1023E000FF920F931F93CF93DF938C017B01C1E08A
:1023F000D0E0D801ED91FC910190F081E02DC80171
:1024000009958C179D0754F0CE15DF0521F4F801CE
:10241000D18FC08F03C0CC0FDD1FEBCFD8015896F2
:102420008D919C915997DF91CF911F910F91FF90C2
:10243000EF900895FC0177FDB9C0808591856817FC
:1024400079070CF0B3C057FDB1C08285938548175A
:1024500059070CF008958689823079F4848195813A
:10246000DC01A61BB70BBD01615071098681978104
:10247000DC01A41BB50BAD010EC0833009F084C094
:1024800064277527CA0186279727682779274681F9
:102490005781481B590B415051092130310531F00A
:1024A00048F12230310509F44AC00895CA0157FDA8
:1024B00007969C01A3E035952795AA95E1F7A4819D
:1024C000B5812A9FC0012B9F900D3A9F900D11243A
:1024D000680F791F078CF0A1E02DE60FF71F4770FA
:1024E000552781E090E001C0880F4A95EAF7908176
:1024F000892B48C0CA0157FD07969C0193E035958A
:1025000027959A95E1F7A481B5812A9FC0012B9F59
:10251000900D3A9F900D1124680F791F078CF0A140
:10252000E02DE60FF71F4770552781E090E001C0CE
:10253000880F4A95EAF780959081892323C0CA01C4
:1025400057FD07969C0183E0359527958A95E1F71D
:10255000A481B5812A9FC0012B9F900D3A9F900DB9
:102560001124680F791F078CF0A1E02DE60FF71FEB
:102570004770552781E090E001C0880F4A95EAF73F
:102580009081892780830895813009F086CF642760
:102590007527462757276427752784819581DC0195
:1025A000A61BB70BBD016150710977CF0895FC01DF
:1025B000248935892F3FFFEF3F0751F061E0FC018F
:1025C00086899789019709F460E0822F0C94D91FBE
:1025D0000895CF92DF92EF92FF92FC012489358912
:1025E0002F3FFFEF3F0729F0FC016689822F0E94F1
:1025F000D91F0E9444206B017C010E944420DC0111
:10260000CB018C199D09AE09BF090297A105B1053F
:10261000A0F3FF90EF90DF90CF9008950F931F935A
:10262000CF93DF93DC015696EC915697E23071F030
:10263000E330E9F0E13079F5FB0114960D90BC919F
:10264000A02DA41BB50BA21BB30B18C0EC01EC8191
:10265000FD81E61BF70BBF0161507109EE81FF811F
:10266000DF01A41BB50BAD01421B530B14C0DA01F3
:10267000EC01EE81FF81E61BF70B3197F7FD0DC0F2
:10268000EC014E815F81E417F5073CF4AF01BD0119
:102690000E94941E02C00E94FB1EDF91CF911F91E9
:1026A0000F9108950F931F93DC015696EC91569766
:1026B000E23061F0E33009F1E13081F51496ED91FB
:1026C000FC911597E41BF50B319723C0DC011496A0
:1026D000ED91FC911597DF01A61BB70BBD01DC0145
:1026E0001696ED91FC911797DF01A41BB50BAD0178
:1026F00041505109621B730B11C0FA01DC0116969F
:102700004D915C911797DA01A61BB70BBD01621BB7
:10271000730BAB01BF010E94FB1E0CC057FD0AC02A
:10272000DC011696ED91FC9117974E175F0714F494
:102730000E94941E1F910F910895EF92FF920F93A4
:102740001F93CF93DF93EC01198218821B821A82A8
:102750001D821C826115710549F18B01FB010190FD
:102760000020E9F731977F01E61AF70AB7010E94C6
:10277000B9102881398181110DC02115310519F059
:10278000C9010E949A2B198218821D821C821B8209
:102790001A820CC0FD82EC82B801C901DF91CF9191
:1027A0001F910F91FF90EF900C94FE2CDF91CF9131
:1027B0001F910F91FF90EF900895DB0114964D91BA
:1027C0005C9115976D917C91DC01ED91FC910280FB
:1027D000F381E02D09946115710579F0FB010190F9
:1027E0000020E9F73197AF01461B570BDC01ED9153
:1027F000FC910280F381E02D099480E090E008953F
:102800008F929F92AF92BF92EF92FF920F931F937E
:10281000CF93DF93CDB7DEB7A1970FB6F894DEBFA5
:102820000FBECDBF7C01FA01CB0119A2223008F402
:102830002AE08E010F5D1F4F822E912CA12CB12C0E
:10284000BF01A50194010E94A929F901CA01015003
:1028500011096A3014F4605D01C0695CD8016C93A1
:10286000232B242B252B61F7B801C7010E94EB1302
:10287000A1960FB6F894DEBF0FBECDBFDF91CF910A
:102880001F910F91FF90EF90BF90AF909F908F900E
:102890000895CF92DF92EF92FF920F931F93CF9301
:1028A000DF93EC016A017B01E881F9810190F081FD
:1028B000E02D6DE209958C0144275527BA014C198A
:1028C0005D096E097F092AE0CE010E940014800F85
:1028D000911FDF91CF911F910F91FF90EF90DF90AB
:1028E000CF9008950C94EB131F920F920FB60F9296
:1028F00011242F933F934F935F936F937F938F9305
:102900009F93AF93BF93EF93FF938FE892E00E9462
:102910005111FF91EF91BF91AF919F918F917F9155
:102920006F915F914F913F912F910F900FBE0F903C
:102930001F9018951F920F920FB60F9211242F938C
:102940008F939F93EF93FF93E0919F02F091A002EA
:102950008081E091A502F091A60282FD12C09081D3
:102960008091A8028F5F8F732091A902821751F086
:10297000E091A802F0E0E157FD4F958F8093A80207
:1029800001C08081FF91EF919F918F912F910F90C6
:102990000FBE0F901F9018951F920F920FB60F92B7
:1029A00011242F933F934F935F936F937F938F9354
:1029B0009F93AF93BF93EF93FF93E0912102F09128
:1029C00022020995FF91EF91BF91AF919F918F9155
:1029D0007F916F915F914F913F912F910F900FBE1B
:1029E0000F901F901895609340027093410280935E
:1029F000420290934302DC01CB01845D9E4FAF4FB6
:102A0000BF4F80933C0290933D02A0933E02B0934F
:102A10003F0282E090E090933B0280933A020E9452
:102A2000A32060933602709337028093380290930C
:102A300039020895CF92DF92EF92FF920F931F9386
:102A40000E94A32000913602109137022091380293
:102A5000309139026B017C01C01AD10AE20AF30AF3
:102A60006091400270914102809142029091430234
:102A700048EEC41643E0D406E104F104D0F0DC01D2
:102A8000CB010196A11DB11D80934002909341029C
:102A9000A0934202B093430208511C4F2F4F3F4F67
:102AA0000093360210933702209338023093390294
:102AB000C7CF1F910F91FF90EF90DF90CF900895B7
:102AC0002F923F924F925F926F927F928F929F923E
:102AD000AF92BF92CF92DF92EF92FF920F931F932C
:102AE000CF93DF93CDB7DEB72A970FB6F894DEBF4A
:102AF0000FBECDBF9A8789870E941A156B017C0192
:102B0000E985FA858285982F9F702EE0290F2F7016
:102B1000233008F005C14681578160857185C41650
:102B2000D506E606F70608F4FBC0923029F4828148
:102B30009381A481B58145C0933009F04EC0E985E9
:102B4000FA8582809380A480B5800E941A1520E8BF
:102B5000422E21E5522E66246394712CA30192012A
:102B60000E94A92960E871E581E090E00E94712946
:102B7000DC01CB01880D991DAA1DBB1DE985FA85D5
:102B800082809380A480B580C816D906EA06FB0629
:102B9000E8F0C701B601A30192010E94A9292F5FA5
:102BA0003F4F4F4F5F4F60E871E581E090E00E943A
:102BB0007129DC01CB01880D991DAA1DBB1DE9857A
:102BC000FA8586839783A087B187AAC0C701B6011B
:102BD000A30192010E94A929E6CF943009F09CC07C
:102BE000E985FA8542805380648075800E941A15B9
:102BF0004B015C010E941A1569837A838B839C8345
:102C00000E941A156D837E838F839887480C591C08
:102C10006A1C7B1C80E8882E81E5982EAA24A39448
:102C2000B12C69817A818B819C81A50194010E94DC
:102C3000A929461A570A680A790A6D817E818F810F
:102C40009885A50194010E94A929CA01B9016C5F68
:102C50007F4F8F4F9F4F27E030E040E050E00E94D1
:102C6000A9299B01AC0160E871E581E090E00E9438
:102C7000712993018201061B170B280B390BE9857B
:102C8000FA8582819381A481B581C016D106E206BE
:102C9000F30698F08058954CA64FBF4F2C013D018C
:102CA0004C0C5D1C6E1C7F1CC701B601A501940174
:102CB0000E94A929530142010EC016012701280EC6
:102CC000391E4A1E5B1EC701B601A50194010E9470
:102CD000A92952014101861A970AA80AB90ACA010C
:102CE000B9016C5F7F4F8F4F9F4F27E030E040E08E
:102CF00050E00E94A9299B01AC0160E871E581E0E8
:102D000090E00E94712995018401061B170B280B86
:102D1000390BD901C80153CF8F7EE985FA858287A7
:102D2000E985FA8582858F70813061F48281938193
:102D3000A481B581C80ED91EEA1EFB1EC682D782A9
:102D4000E086F1862A960FB6F894DEBF0FBECDBF9F
:102D5000DF91CF911F910F91FF90EF90DF90CF9077
:102D6000BF90AF909F908F907F906F905F904F90AB
:102D70003F902F9008954F925F926F927F928F9223
:102D80009F92AF92BF92CF92DF92EF92FF920F93FA
:102D90001F93CF93DF934B015C018091320290919E
:102DA0003302A0913402B091350288159905AA0525
:102DB000BB0509F4D2C08CE3C82ED12CE12CF12C38
:102DC000C501B401A70196010E94A92960932302BD
:102DD000CA01B901A70196010E94A92960932402A2
:102DE000C501B40120E13EE040E050E00E94A92985
:102DF000CA01B90128E130E040E050E00E94A92971
:102E000060932502C501B40120E831E541E050E0BE
:102E10000E94A92969017A01CA01B9016C5F7F4F3B
:102E20008F4F9F4F27E030E040E050E00E94A929FB
:102E30006F5F60932602412C512C320140E004E682
:102E400010E0C0E9D1E0242F30E02E54384FF901D2
:102E5000E370FF27309789F4C901B8010E949529D2
:102E6000892B31F4C901BE010E949529892B29F4CF
:102E70008EE691E0A0E0B0E004C08DE691E0A0E035
:102E8000B0E0480E591E6A1E7B1ED301C201AA275C
:102E9000BB27C816D906EA06FB0610F04F5FD3CF52
:102EA00040932902309799F4C90164E670E00E94CA
:102EB0009529892B39F4C90160E971E00E949529AF
:102EC000892B29F48EE691E0A0E0B0E004C08DE605
:102ED00091E0A0E0B0E0481A590A6A0A7B0AC418D7
:102EE000D508E608F708C90164E670E00E94952954
:102EF000EC01C90160E971E00E949529A8E0B1E008
:102F000020E0213039F4309749F4209729F40097D4
:102F100029F402C04C9103C04DE101C04CE150E0E6
:102F200060E070E0C416D506E606F70640F0C41A65
:102F3000D50AE60AF70A2F5F11962C3011F72F5F9A
:102F400020932802C394C09227028092320290926A
:102F50003302A0923402B0923502DF91CF911F91DB
:102F60000F91FF90EF90DF90CF90BF90AF909F9028
:102F70008F907F906F905F904F9008950E941A15E8
:102F80000E94BB168091230290E0089508958EBDA3
:102F900000000DB407FEFDCF8EB508951F93CF93AB
:102FA000DF93FC01858D968D009729F1162FEF0197
:102FB00021A131E030936B0220938D0210926C02BC
:102FC00010928E02DC01ED91FC910190F081E02DD8
:102FD00060E009958D8D9E8DDC01ED91FC91019055
:102FE000F081E02D612F09958D8D9E8DDF91CF9120
:102FF0001F910C949E18A5A5B6A59C9183A98095B8
:1030000089238C93838D948D892B31F0862FDF91CA
:10301000CF911F910C94C71728E030E080E8A1A55C
:10302000B2A591A9462F482319F04C91942B03C0C7
:103030004C91909594239C93A3A5B4A54C9192A9EF
:10304000942B9C93A3A5B4A54C9192A990959423FD
:103050009C9386952150310911F7DF91CF911F91F3
:1030600008958CBD9DBD08951F93CF93DF93EC0110
:10307000162F8D8D9E8D892BB1F02FA938AD49ADBE
:103080005AAD60E074E284EF90E00E94A929DA0171
:10309000C9014097A109B109B695A795979587955C
:1030A0008093B8000FC08B8D9C8D892B21F08DA94A
:1030B0009EA90E943118EFA5F8A990818CA980954E
:1030C00089238083111102C066EA01C067EACE013C
:1030D0000E94CE178D8D9E8D892BB1F02BAD3CAD0E
:1030E0004DAD5EAD60E074E284EF90E00E94A929EE
:1030F000DA01C9014097A109B109B695A79597953D
:1031000087958093B80006C0EFA5F8A990818CA997
:10311000892B8083DF91CF911F910895E0EDF3E03B
:10312000158614869787868781E090E0938B828B43
:10313000918B808B82E0848B858B089530918E02F9
:10314000313208F04BC080916A028111FCCF90911E
:103150008D0222E020936A0221E0209369022FEF82
:10316000209368021092670230936602EDE6F2E067
:10317000A6E4B2E020E0321721F041914D932F5F99
:10318000FACF1092450220914502990F922B90930D
:10319000450290914402913061F410924402909162
:1031A00045029093BB009091BC0093FDF8CF95EC45
:1031B00001C095EE9093BC0090916A029230E1F3C9
:1031C000909168029F3F79F080916802803241F0CF
:1031D00080916802803331F084E005C081E003C053
:1031E00082E001C083E010926C0210928E02109275
:1031F0006B020895DF92EF92FF920F931F93CF938C
:10320000DF93D82ED92FC62F8091ED039091EE0336
:10321000009709F454C02091F10331E030936B0220
:1032200020938D0210926C0210928E02DC01ED91BF
:10323000FC910190F081E02D60E00995ED2CFD2ED0
:1032400011E0D1E08091ED039091EE03CC2371F178
:103250001032C8F00E949E188091F103D0936B0247
:1032600080938D0210926C0210928E028091ED0379
:103270009091EE03DC01ED91FC910190F081E02D45
:1032800060E0099511E08091ED039091EE03F70164
:103290006491DC01ED91FC910190F081E02D0995A4
:1032A0001F5FC150BFEFEB1AFB0ACCCFDF91CF916C
:1032B0001F910F91FF90EF90DF900C949E18E0917A
:1032C000FD03F091FE039081809103048095892392
:1032D00080830D2D1D2FCC2309F439C0F801849172
:1032E0002091EB033091EC03232B31F00E94C717A0
:1032F000C1500F5F1F4FEFCF28E030E040E8E09172
:10330000F903F091FA0390910104582F542319F016
:103310005081952B03C05081909595239083E09127
:10332000FB03F091FC03508190910204952B908354
:10333000E091FB03F091FC03508190910204909581
:1033400095239083469521503109C9F6D1CFDF915D
:10335000CF911F910F91FF90EF90DF900895EF9222
:10336000FF920F931F93CF93DF938091ED03909182
:10337000EE03892BD1F0209107043091080440918D
:10338000090450910A0460E074E284EF90E00E9426
:10339000A929DA01C9014097A109B109B695A795F4
:1033A000979587958093B80016C08091EB03909114
:1033B000EC03892B31F080910504909106040E9462
:1033C0003118E091FF03F091000490818091040492
:1033D00080958923808365E084E295E00E94FA1855
:1033E0006091D403615080ED93E00E94CE1720914C
:1033F000D6033091D703C901079697FD079633E0AE
:10340000959587953A95E1F72091D4033091D503AE
:10341000829F8001839F100D929F100D1124C091F7
:10342000EF03D091F0038091ED039091EE030C0F28
:103430001D1F009709F44CC02091F10331E0309337
:103440006B0220938D0210926C0210928E02DC01AE
:10345000ED91FC910190F081E02D60E40995FF244D
:10346000F394EE24E3948091ED039091EE030C1716
:103470001D0759F1BFE1BF15D0F40E949E1880913D
:10348000F103E0926B0280938D0210926C02109215
:103490008E028091ED039091EE03DC01ED91FC91A1
:1034A0000190F081E02D60E40995FF24F394809170
:1034B000ED039091EE036991DC01ED91FC91019097
:1034C000F081E02D0995F394CECF0E949E1841C063
:1034D000E091FD03F091FE03908180910304892B1C
:1034E00080830C171D07A9F189912091EB0330917E
:1034F000EC03232B19F00E94C717F3CF28E030E02C
:1035000040E8E091F903F091FA0390910104582FFB
:10351000542319F05081952B03C050819095952329
:103520009083E091FB03F091FC03508190910204A1
:10353000952B9083E091FB03F091FC0350819091D7
:103540000204909595239083469521503109C9F640
:10355000C8CF8091ED039091EE03892BD1F020919B
:103560000B0430910C0440910D0450910E0460E066
:1035700074E284EF90E00E94A929DA01C901409722
:10358000A109B109B695A795979587958093B8003D
:1035900017C0E091FF03F091000490818091040432
:1035A000892B80838091EB039091EC03892B41F070
:1035B000DF91CF911F910F91FF90EF900C94C61760
:1035C000DF91CF911F910F91FF90EF90089520917F
:1035D000D6033091D703C901079697FD079623E0DC
:1035E000959587952A95E1F72091D4033091D503DD
:1035F000829FA001839F500D929F500D112460E087
:1036000070E08091EF039091F0030C94F72CAB01E4
:10361000770F660B770B77FD0C9449142AE00C9416
:103620000014CF93DF93AC01990F660B770B77FFF4
:1036300005C08FE892E00E94491405C02AE08FE897
:1036400092E00E940014EC016CE771E08FE892E0D8
:103650000E94EB138C0F9D1FDF91CF910895833053
:1036600081F028F4813099F08230A1F008958730FC
:10367000A9F08830B9F08430D1F4809180008F7D3A
:1036800003C0809180008F7780938000089584B577
:103690008F7702C084B58F7D84BD08958091B0007E
:1036A0008F7703C08091B0008F7D8093B000089524
:1036B000EF92FF920F931F93CF93DF937C018B01C7
:1036C0006FEA71E08FE892E00E947214B8018FE80F
:1036D00092E00E94DD1367E971E08FE892E00E94BA
:1036E000EB136CE771E08FE892E00E94EB13C0E00F
:1036F000D0E00E946B0F8130910551F02CF48F3F88
:103700002FEF920729F012C00597029790F10EC093
:10371000C80FD91FD7FD06C0EC16FD0624F4C0E083
:10372000D0E001C0E701CE010E94111B0E94E71A00
:1037300080E090E00E948E186FEA71E080ED93E0E7
:103740000E947214B80180ED93E00E94DD136FE7D0
:1037500071E080ED93E00E94721482E190E00E949B
:103760008E18BE0180ED93E00E94071B0E94AF19E6
:10377000C0CFCE01DF91CF911F910F91FF90EF90BD
:1037800008953F924F925F926F927F928F929F9295
:10379000AF92BF92CF92DF92EF92FF920F931F935F
:1037A000CF93DF9300D000D000D0CDB7DEB72C018F
:1037B0003B014A015901C901079697FD07969C01F3
:1037C00093E0359527959A95E1F73C832B83C12C9F
:1037D000D12CE12CF12C312CC3018E0D9F1D9A832D
:1037E0008983E016F106C4F51E821D822D813E817B
:1037F0002A153B054CF5C90187709927892B11F0D3
:10380000330C0EC0ED81FE81F7FD379683E0F59510
:10381000E7958A95E1F7EC0DFD1DE80DF91D349053
:1038200037FE0CC021E030E049815A816D817E81F4
:10383000640D751D80ED93E00E9410088D819E81BE
:1038400001969E838D83D2CF9FEFE91AF90A2B81CF
:103850003C81C20ED31EC0CF26960FB6F894DEBFB1
:103860000FBECDBFDF91CF911F910F91FF90EF90D1
:10387000DF90CF90BF90AF909F908F907F906F9090
:103880005F904F903F9008958630C8F49BE0899FE9
:10389000F0011124DF01AA5CBC4F8C91982F9F701E
:1038A00071F0807E8C93E45DFC4F11821082128255
:1038B000138214821582168217821086118608954B
:1038C0002F923F924F925F926F927F928F929F9230
:1038D000AF92BF92CF92DF92EF92FF920F931F931E
:1038E000CF93DF93CDB7DEB76B970FB6F894DEBFFB
:1038F0000FBECDBF9B8F8A8F1B014A01D22E198725
:1039000008873701A982DC0159962D913C915A977D
:103910002115310509F0FFC018968D919C911997DA
:10392000681779070CF0E7C11A968D919C911B9747
:10393000481759070CF0DFC1EC2DF0E0FB83EA8358
:103940009B0146E0C49E200D311D11243D872C872C
:10395000121613060CF0CFC16A2D70E07B876A87C0
:1039600083E0660F771F8A95E1F77F876E87CB012B
:10397000880D991D181619060CF0BDC158968C912A
:10398000811104C08FEA8D1508F4D394AA8DBB8DE4
:10399000ED91FC9111970284F385E02DCD010995FD
:1039A000B5E0DB9EC0011124EC2DF0E0F98BE88B33
:1039B00091012B5F3F4F3B8B2A8B3D822C82210153
:1039C000AC01421953095D8B4C8B7981672F70E0F4
:1039D0007F8B6E8BC4010896998F888FEC89FD8947
:1039E000E40DF51DED56FA4FD49054019F828E825E
:1039F000D0FE16C0AA8DBB8DED91FC91B1E0CB122B
:103A000009C02981213031F40484F585E02D288511
:103A1000398519C00684F785E02DE884F9841DC036
:103A2000488559854615570519F1AA8DBB8DED912D
:103A3000FC91B1E0CB120DC02981213051F40484F6
:103A4000F585E02D9301A501B2018A8D9B8D099525
:103A50000FC00684F785E02D73010A851B852A8136
:103A60003B814E815F816C817D818A8D9B8D099523
:103A7000D6943FEFA31AB30A4E815F816E897F8986
:103A8000460F571F5F834E83888D998DA816B90600
:103A900009F0AECF9FEF491A590AAC81BD81E88980
:103AA000F989AE0FBF1FBD83AC832A893B894216BB
:103AB000530609F093CF488559854615570509F4F3
:103AC000F8C0AA8DBB8DED91FC91B1E0CB1211C075
:103AD0002981213071F4B1016B5F7F4F0088F1893A
:103AE000E02D830128E030E0A4018A8D9B8D0995AB
:103AF000E0C06C857D854A815B81641B750B068403
:103B0000F785E02D73010E851F859A01A4018A8D2A
:103B10009B8D0995CEC0F9013496E491DE1AF90126
:103B2000329685919491B7E0DB9E800D911D112412
:103B3000F901259134913B8B2A8BFC01259134911D
:103B40005901FC0132965490319634913C8732965B
:103B500074903196149141E04C1518F0598152300F
:103B600068F0672D072C000C770B7D836C83812F09
:103B7000012E000C990B9B838A8304C01B821A823E
:103B80001D821C82AA8DBB8DED91FC911197028440
:103B9000F385E02DCD010995412CD12C612CF981C3
:103BA000EF2FF0E0FF83EE832C2D30E03B872A8758
:103BB000A401410F511D17FD5A955F8B4E8BB1012A
:103BC000670D711D77FC7A95798F688F7C856716F4
:103BD00008F06FC0262D30E04A815B81420F531FF1
:103BE000AE81BF81A49FC001A59F900DB49F900D91
:103BF0001124F401E80FF91FF98BE88B842D712C47
:103C00004E895F89420F531F5D8B4C8B751408F0F2
:103C10004DC051E0580F5E87877041F4C501019691
:103C2000EA89FB89EA0DFB1DD4905C01D7FE3AC0FE
:103C300061E0C61216C07981713099F4AA8DBB8DEE
:103C4000ED91FC9111970484F585E02D2885398547
:103C50004C895D89688D798D670D711DCD01099540
:103C600021C08C819D81870D911DEA85FB858E9FEA
:103C7000B0018F9F700D9E9F700D1124620D731DFA
:103C8000AA8DBB8DED91FC9111970684F785E02DEF
:103C9000E884F9840E811F812A853B8548895989EA
:103CA000CD010995DD0C73948E85B0CF450C6394DE
:103CB0008DCFAA8DBB8DED91FC9111970688F78968
:103CC000E02DCD016B960FB6F894DEBF0FBECDBFD1
:103CD000DF91CF911F910F91FF90EF90DF90CF90E8
:103CE000BF90AF909F908F907F906F905F904F901C
:103CF0003F902F9009946B960FB6F894DEBF0FBEDD
:103D0000CDBFDF91CF911F910F91FF90EF90DF908A
:103D1000CF90BF90AF909F908F907F906F905F906B
:103D20004F903F902F9008950F931F93CF93DF9361
:103D300077FF04C0260F371F60E070E0DC011496A7
:103D4000CD91DC911597FB01E20FF31FCE17DF0732
:103D50001CF49E01261B370B121613060CF046C0EE
:103D6000FA0157FD3796DF01E3E0B595A795EA958F
:103D7000E1F7AC9FF001AD9FF00DBC9FF00D112459
:103D80006E0F7F1FDC015F96ED91FC919097E60F1F
:103D9000F71F4770552781E090E001C0880F4A95D2
:103DA000EAF7482F0130110539F078F0023011059B
:103DB000E9F42E0F3F1F13C02E0F3F1FE217F3072A
:103DC000A9F08081842B8193F9CF80952E0F3F1F1E
:103DD000E217F30759F0908198239193F9CFE217F6
:103DE000F30721F0808184278193F9CFDF91CF9170
:103DF0001F910F910895EF92FF920F931F93CF930E
:103E0000DF93EC0177FDA5C0EC80FD806E157F058A
:103E10000CF09FC057FF04C0240F351F40E050E056
:103E20008E819F81FA01E20FF31F8E179F071CF40A
:103E30009C01241B350B121613060CF08AC0922F1E
:103E4000842F8695869586958E9DD0018F9DB00D89
:103E500011246A0F7B1FAF8DB8A1A60FB71F477043
:103E6000B1F188E0841B482F682F70E0FB01E55713
:103E7000FA4FE491281798F4621B71092FEF30E094
:103E800002C0359527956A95E2F7E22301301105C6
:103E900049F078F00230110509F05BC00EC0013026
:103EA000110519F48C91E82B0AC00130110508F0B6
:103EB00049C0E0958C91E82302C08C91E827EC93EF
:103EC000941708F446C02C813D81A20FB31FE92F3F
:103ED000E41BE830F8F00230110561F48E2F9C915C
:103EE00090959C932C813D81A20FB31F8850883000
:103EF000B0F70FC081E00115110509F480E081954C
:103F00009E2F8C932C813D81A20FB31F9850983027
:103F1000C0F7E770EE23E9F0F0E0ED57FA4FE491D7
:103F20000130110539F048F00230110591F48C91FF
:103F3000E82706C08C91E82B03C0E0958C91E8231C
:103F4000EC9307C00230110509F4B7CFAE0DBF1DC9
:103F5000BECFDF91CF911F910F91FF90EF90089509
:103F6000CF93DF93282F30E0F901E159FA4F849184
:103F7000F901E55AFA4FD491F901E95BFA4FC4917E
:103F8000CC2391F081110E942F1BEC2FF0E0EE0F5B
:103F9000FF1FE35CFA4FA591B491EC91ED2381E012
:103FA00090E021F480E002C080E090E0DF91CF91CA
:103FB00008951F93CF93DF93282F30E0F901E15943
:103FC000FA4F8491F901E55AFA4FD491F901E95B6E
:103FD000FA4FC491CC23C1F0162F81110E942F1BE0
:103FE000EC2FF0E0EE0FFF1FED5CFA4FA591B491BE
:103FF0009FB7F894111104C08C91D095D82302C0BA
:10400000EC91DE2BDC939FBFDF91CF911F91089540
:10401000CF93DF9390E0FC01E55AFA4F2491FC0125
:10402000E95BFA4F8491882361F190E0880F991F32
:10403000FC01E75DFA4FC591D491FC01ED5CFA4FAC
:10404000A591B491611109C09FB7F894888120951A
:1040500082238883EC912E230BC0623061F49FB7DA
:10406000F8948881322F309583238883EC912E2B0E
:104070002C939FBF06C08FB7F894E8812E2B28831E
:104080008FBFDF91CF9108953FB7F89480911F04BF
:1040900090912004A0912104B091220426B5A89B00
:1040A00005C02F3F19F00196A11DB11D3FBFBA2FCA
:1040B000A92F982F8827820F911DA11DB11DBC012A
:1040C000CD0142E0660F771F881F991F4A95D1F7EF
:1040D00008958F929F92AF92BF92CF92DF92EF920C
:1040E000FF926B017C010E9444204B015C01C114D2
:1040F000D104E104F104F1F00E944420DC01CB0181
:1041000088199909AA09BB09883E9340A105B10500
:1041100070F321E0C21AD108E108F10888EE880E98
:1041200083E0981EA11CB11CC114D104E104F10468
:1041300019F7DDCFFF90EF90DF90CF90BF90AF9059
:104140009F908F9008952FB7F89460911B04709101
:104150001C0480911D0490911E042FBF089588E4D3
:1041600091E09093D1038093D0038091EF039091DD
:10417000F003009711F00C949A2B0895CF93DF93DE
:1041800000D000D000D0CDB7DEB7789484B582607F
:1041900084BD84B5816084BD85B5826085BD85B5EB
:1041A000816085BD80916E00816080936E00109269
:1041B00081008091810082608093810080918100E4
:1041C0008160809381008091800081608093800075
:1041D0008091B10084608093B1008091B0008160D3
:1041E0008093B00080917A00846080937A008091FF
:1041F0007A00826080937A0080917A008160809357
:104200007A0080917A00806880937A001092C100D1
:1042100061E08DE00E940820E0919F02F091A002F1
:1042200082E08083E0919B02F0919C021082E091F9
:104230009D02F0919E028FEC80831092A702E09184
:10424000A302F091A40286E08083E091A102F091A4
:10425000A202808180618083E091A102F091A2029C
:10426000808188608083E091A102F091A202808128
:1042700080688083E091A102F091A20280818F7D0D
:10428000808380E1809381001092800080E49FE130
:10429000909387008093860081E18093810082ED76
:1042A0009CE0909322028093210281E080936F0032
:1042B0001092B9031092B8031092B70380ED97E003
:1042C0009093C5038093C4031092200210921F02A2
:1042D0008091EF039091F003892B11F52091D60383
:1042E0003091D703C901079697FD0796B3E09595DE
:1042F0008795BA95E1F72091D4033091D503AC01AD
:10430000429FC001439F900D529F900D11240E9427
:10431000022B9093F0038093EF03892B09F417C1CC
:104320000E94E71A2091D6033091D7038091D403DD
:104330009091D503213231050CF4CEC1B9016054FE
:10434000710977FF02C06F5F7F4F75956795825542
:10435000910997FD019600E410E022E530E044E683
:1043600052E0959587950E94C11B82E08093F203ED
:104370008091ED039091EE03892B09F4C3C18091E4
:10438000D6039091D703809709F4BAC18DE3809347
:10439000F10310921E0210921D0210926C021092F4
:1043A0008E0210926A0281E08093690210924402A8
:1043B00061E082E10E94D91F61E083E10E94D91F80
:1043C0008091B9008E7F8093B9008091B9008D7F74
:1043D0008093B90088E48093B80085E48093BC00A2
:1043E00088EA95E090931C0280931B0289EA95E08D
:1043F00090931A02809319028091F80387FD1EC0E2
:1044000061E00E94082061E08091F8030E94D91FBA
:1044100061E070E080E090E00E94692060E08091BF
:10442000F8030E94D91F6AE070E080E090E00E94EB
:10443000692061E08091F8030E94D91F8091ED030B
:104440009091EE03892B09F41CC22091070430914E
:1044500008044091090450910A0460E074E284EF7A
:1044600090E00E94A929DA01C9014097A109B10988
:10447000B695A795979587958093B80064E080E8F6
:1044800090E00E94FA186091D603615080ED93E0AD
:104490000E94CE1764E08CE790E00E94FA188091A9
:1044A000F203813009F404C264E180ED93E00E94DC
:1044B000CE1764E088E790E00E94FA188091D40358
:1044C0009091D5038038910509F005C28091D603FB
:1044D0009091D7038032910509F0ECC164E084E744
:1044E00090E00E94FA1869ED80ED93E00E94CE17EB
:1044F0008091F203813009F40AC261EF80ED93E00C
:104500000E94CE1766E088E690E00E94FA1880913B
:10451000ED039091EE03892B09F4FBC120910B046C
:1045200030910C0440910D0450910E0460E074E24F
:1045300084EF90E00E94A929DA01C9014097A109FE
:10454000B109B695A795979587958093B8000E9475
:10455000E71A61E871E0CE0101960E949D13BE0149
:104560006F5F7F4F87E190E00E94581B90932E026F
:1045700080932D0289819A810E949A2B66E871E0CE
:10458000CE0101960E949D13BE016F5F7F4F8BE3AA
:1045900090E00E94581B90932C0280932B028981FB
:1045A0009A810E949A2B0E94E71A61E08091800311
:1045B0000E94082061E0809180030E94D91F61E081
:1045C000809182030E94082060E0809182030E9413
:1045D000D91F80918403909185038F3F5FEF9507EA
:1045E00039F061E00E94082080E793E00E94D71232
:1045F00080E090E0A0EFB2E480938A0390938B0375
:10460000A0938C03B0938D0361E070E080E793E0AA
:104610000E94EF1180E793E00E94E9126CE771E0DD
:104620008FE892E00E94EB136AE871E08FE892E075
:104630000E94721480912D0290912E020E94111BF3
:1046400061E971E08FE892E00E94721480912B0280
:1046500090912C020E94111B40912B0220912D025F
:1046600089E28093290281E08093280280932702C7
:10467000209325024093240210922302E2EBF7E0FC
:1046800090E8C92E9FE3D92E91E1E92E9DE4F92E01
:1046900004E610E030E9A32EBB24B394CF0183706D
:1046A0009927892B99F4CF01B8010E949529892B6C
:1046B00031F4CF01B5010E949529892B39F480E8A6
:1046C000C80E81E5D81E81E0E81EF11C3196EB3D55
:1046D00057E0F50719F730C1B9016052710977FF4A
:1046E00002C06F5F7F4F759567958357910997FD5E
:1046F000019600E210E023E730E044E850E031CEDC
:104700008CE345CE61E08091F6030E94082061E0D1
:104710008091F7030E9408208091F603082E000C78
:10472000990BFC01E95BFA4FE491F0E0EE0FFF1FFB
:10473000ED5CFA4F259134913093FE032093FD03F5
:10474000FC01E55AFA4FE491E09303048091F703EA
:10475000082E000C990BFC01E95BFA4FE491F0E0A4
:10476000EE0FFF1FED5CFA4FA591B491B0930004DA
:10477000A093FF03FC01E55AFA4FE491E09304048F
:104780008C91E82BEC938091EB039091EC03892BB7
:1047900009F434C01FB7F89480912A02811127C010
:1047A000E1E5F5E08491E5E6F5E09491E82FF0E0AD
:1047B000EE0FFF1FE75DFA4FA591B491EC91E9234D
:1047C00021F461E08AE00E94D91F61E08AE00E9442
:1047D00008208CB580618CBD8CB580648CBD61E097
:1047E0008DE00E94082061E08BE00E94082080910B
:1047F0002A028F5F80932A021FBFFECD61E0809165
:10480000F4030E94082061E08091F5030E940820D3
:104810008091F403082E000C990BFC01E95BFA4F20
:10482000E491F0E0EE0FFF1FED5CFA4F259134911B
:104830003093FA032093F903FC01E55AFA4FE4910F
:10484000E09301048091F503082E000C990BFC0104
:10485000E95BFA4FE491F0E0EE0FFF1FED5CFA4FD9
:10486000A591B491B093FC03A093FB03FC01E55A1E
:10487000FA4FE491E09302048C91E095E823EC93E5
:10488000BBCD8091EB039091EC03892B31F08091AB
:104890000504909106040E943118E091FF03F09105
:1048A0000004908180910404809589238083E6CD63
:1048B00060E1FBCD8034910509F015CE63E081E71E
:1048C00090E00E94FA188091F203813011F06FECB1
:1048D00019C06FE917C08036910509F004CE8091A8
:1048E000D6039091D703409709F0FDCD63E08EE6A3
:1048F00090E00E94FA188091F203813011F06FEA83
:1049000001C060E180ED93E00E94CE17ECCD62E241
:10491000F5CDE091FF03F0910004908180910404B3
:10492000892B80838091EB039091EC03892B09F410
:104930000ECE0E94C6170BCE30E0A0E1BEE00E9472
:1049400062294B015C01242F30E0ACE3B0E00E940F
:104950006229DC01CB01880D991DAA1DBB1DBC017C
:10496000CD016C0D7D1D8E1D9F1D0E94F3140E94B4
:104970001A156115724E8F4D914038F180E090E02C
:104980003BE0389FF001399FF00D1124DF01AA5C54
:10499000BC4F2C912F70F1F4E45DFC4F85EA99E057
:1049A000918380838C91807D45E850E760E070E0E2
:1049B0004283538364837583836080618C93828593
:1049C00084FF03C0CF010E9460158BE0D82ECC2459
:1049D000C39496C001968630910599F6F6CF0E9451
:1049E000BE1720910001309101018217930709F44D
:1049F0005CC00E94BE1790930101809300010E9449
:104A0000E71A80E090E00E948E186AE971E080ED7C
:104A100093E00E94721482E190E00E948E180E943E
:104A20001A150E94BB166091250270E08FE892E093
:104A30000E94071B0E941A150E94BB166091250256
:104A400070E080ED93E00E94071B0E941A150E94FF
:104A5000BB166091240270E0CE0101960E94E30F24
:104A6000BE016F5F7F4F80ED93E00E94DD1389816F
:104A70009A810E949A2B0E94BE17BC01CE0101961A
:104A80000E94E30FBE016F5F7F4F80ED93E00E94B5
:104A9000DD1389819A810E949A2B0E94AF196CE7DD
:104AA00071E08FE892E00E94EB130E94A3204B017B
:104AB0005C0180916E0381110AC0C0926E03109256
:104AC0006F03E0916F03E630B0F110926E030E9425
:104AD000A320DC01CB0188199909AA09BB098536F5
:104AE0009105A105B10528F30330110509F476C03D
:104AF0000CF052C0013011050CF056C00E94E211BA
:104B00000E946B0F8C0180912F02909130020097D0
:104B100009F465CF019749F60E94E71A80E090E01A
:104B20000E948E1863EA71E080ED93E00E94721497
:104B30000E94AF19BACFDE9EF0011124EA5CFC4F4F
:104B4000808184FF23C00E941A1540916F03D49E78
:104B500090011124F901E45DFC4F46805780608488
:104B60007184641575058605970580F0E080F180F5
:104B7000D901AA5CBC4F9C9195FF33C0842F0E9441
:104B8000441CE114F10411F0F701099580916F03C1
:104B90008F5F80936F0395CF0530110549F024F0A6
:104BA0000630110509F0AACFC8010E94111BA6CF3B
:104BB00085E090E00E94111B80912F0290913002BD
:104BC0000196823091052CF49093300280932F024D
:104BD00095CF1092300210922F0290CF0E94A5091B
:104BE0008DCF828584FFCDCFCF010E946015C9CFC4
:104BF000CF93109292021092910288EE93E0A0E07F
:104C0000B0E08093930290939402A0939502B093A6
:104C1000960288E191E09093900280938F0285EC58
:104C200090E090939C0280939B0284EC90E09093A0
:104C30009E0280939D0280EC90E09093A00280936E
:104C40009F0281EC90E09093A2028093A10282ECFB
:104C500090E09093A4028093A30286EC90E090935E
:104C6000A6028093A5021092A8021092A9021092A7
:104C7000AA021092AB02ECE2F3E02EE633E082856A
:104C8000807C828716821782108611861282138298
:104C900014821582118210823B962E173F0779F7F6
:104CA00010926E03C0E08C2F0E94441CCF5FC63070
:104CB000D1F7109212041092110488EE93E0A0E054
:104CC000B0E08093130490931404A0931504B09360
:104CD00016048AE291E09093100480930F041092DE
:104CE000D3031092D20320E830E03093D503209311
:104CF000D40380E290E09093D7038093D60330935F
:104D0000D9032093D8039093DB038093DA031092A6
:104D1000E6031092DD031092DC031092DF03109281
:104D2000DE0381E08093E5038093E4032FEF3FEF00
:104D30003093E3032093E2033093E1032093E003F5
:104D40008093E7031092E8031092EA031092E903BC
:104D500028E431E03093D1032093D0031092EC0388
:104D60001092EB032FE034E03093EE032093ED0339
:104D70001092F0031092EF039FEF9093F40390933F
:104D8000F5039093F6039093F70394E09093F80360
:104D900020E5209305041092060440E85AE166E0FD
:104DA00070E04093070450930804609309047093E3
:104DB0000A0440EA56E861E070E040930B04509327
:104DC0000C0460930D0470930E04C093AE0325E0B1
:104DD0002093AF039093B0031092B1031092B303EA
:104DE0001092B2031092B5031092B4039093B603DD
:104DF0001092B8031092B7038093B9031092BB03CB
:104E00001092BA038093BC038093BD031092BE033B
:104E10001092BF031092C1031092C0031092C303FB
:104E20001092C20388EE93E09093C5038093C4036D
:104E300080E991E09093C7038093C6031092C80362
:104E40001092C9031092CA031092CB031092CD03A3
:104E50001092CC031092CF031092CE0362E086E052
:104E60000E9408208091AF0387FD03C062E00E948A
:104E700008208091B00387FD03C062E00E940820F3
:104E80008091AE030E94B01F2091B10330E08217E1
:104E9000930731F483E090E09093B5038093B403DB
:104EA0008091AF030E94B01F2091B10330E08217C0
:104EB000930751F48091B4039091B50321E08227C8
:104EC0009093B5038093B4038CE391E090937103C6
:104ED00080937003109276031092770310927803F8
:104EE0001092790310927A0310927B0310927C0344
:104EF00010927D0388EC90E090937F0380937E0373
:104F000085E190E0909381038093800384E190E0B9
:104F100090938303809382038FEF9FEF9093850399
:104F20008093840381E090E09093870380938603CD
:104F3000909389038093880310928A0310928B03C5
:104F400010928C0310928D0310928F0310928E0397
:104F500088EE93E090939103809390039093930352
:104F60008093920310929C0310929D0310929E03D3
:104F700010929F03109298031092990310929A0333
:104F800010929B031092AD031092AC031092A003F9
:104F90001092A1031092A2031092A3031092A403F3
:104FA0001092A5031092A6031092A7031092A803D3
:104FB0001092A9031092AA031092AB0310927203ED
:104FC000109273031092740310927503109294035D
:104FD000109295031092960310929703CF91089523
:104FE000BB274A3031F4992322F4BDE29095819594
:104FF0009F4F0C94FC27BB27FB015527AA27880F3E
:10500000991FAA1FA41710F0A41B83955051B9F73C
:10501000A05DAA3308F0A95DA193009779F7B111BB
:10502000B1931192CB010C941528DC01FC01672F80
:1050300071917723E1F7329704C07C916D9370836F
:105040006291AE17BF07C8F30895E89409C097FBB3
:105050003EF490958095709561957F4F8F4F9F4F4F
:105060009923A9F0F92F96E9BB279395F695879593
:1050700077956795B795F111F8CFFAF4BB0F11F456
:1050800060FF1BC06F5F7F4F8F4F9F4F16C08823FD
:1050900011F096E911C0772321F09EE8872F762F33
:1050A00005C0662371F096E8862F70E060E02AF074
:1050B0009A95660F771F881FDAF7880F9695879560
:1050C00097F908950E9475280C94E6280E94D82824
:1050D00038F00E94DF2820F0952311F00C94CF289F
:1050E0000C94D52811240C941A290E94F72870F3E7
:1050F000959FC1F3950F50E0551F629FF001729F7D
:10510000BB27F00DB11D639FAA27F00DB11DAA1F8B
:10511000649F6627B00DA11D661F829F2227B00DD8
:10512000A11D621F739FB00DA11D621F839FA00D63
:10513000611D221F749F3327A00D611D231F849FB3
:10514000600D211D822F762F6A2F11249F5750400A
:105150009AF0F1F088234AF0EE0FFF1FBB1F661F85
:10516000771F881F91505040A9F79E3F510580F04E
:105170000C94CF280C941A295F3FE4F3983ED4F3A3
:10518000869577956795B795F795E7959F5FC1F7F2
:10519000FE2B880F911D9695879597F9089597F99D
:1051A0009F6780E870E060E008959FEF80EC0895CD
:1051B00000240A94161617061806090608950024F6
:1051C0000A9412161306140605060895092E039470
:1051D000000C11F4882352F0BB0F40F4BF2B11F4E4
:1051E00060FF04C06F5F7F4F8F4F9F4F089557FD43
:1051F0009058440F551F59F05F3F71F04795880F45
:1052000097FB991F61F09F3F79F0879508951216DB
:1052100013061406551FF2CF4695F1DF08C0161687
:1052200017061806991FF1CF869571056105089438
:105230000895E894BB2766277727CB0197F908954F
:105240000E946229A59F900DB49F900DA49F800D90
:10525000911D112408952F923F924F925F926F9269
:105260007F928F929F92AF92BF92CF92DF92EF92F6
:10527000FF920F931F93CF93DF93CDB7DEB7CA1B77
:10528000DB0B0FB6F894DEBF0FBECDBF09942A88A2
:10529000398848885F846E847D848C849B84AA844A
:1052A000B984C884DF80EE80FD800C811B81AA81D7
:1052B000B981CE0FD11D0FB6F894DEBF0FBECDBFA2
:1052C000ED010895A29FB001B39FC001A39F700D8F
:1052D000811D1124911DB29F700D811D1124911DFE
:1052E0000895DB018F939F930E942029BF91AF9176
:1052F000A29F800D911DA39F900DB29F900D112430
:105300000895AA1BBB1B51E107C0AA1FBB1FA6170C
:10531000B70710F0A61BB70B881F991F5A95A9F75E
:1053200080959095BC01CD01089597FB072E16F44A
:10533000009407D077FD09D00E94812907FC05D091
:105340003EF4909581959F4F0895709561957F4F9C
:105350000895A1E21A2EAA1BBB1BFD010DC0AA1FB6
:10536000BB1FEE1FFF1FA217B307E407F50720F0CE
:10537000A21BB30BE40BF50B661F771F881F991F49
:105380001A9469F760957095809590959B01AC0192
:10539000BD01CF010895052E97FB1EF400940E94D5
:1053A000E22957FD07D00E94A92907FC03D04EF43B
:1053B0000C94E22950954095309521953F4F4F4FE1
:1053C0005F4F089590958095709561957F4F8F4FB1
:1053D0009F4F08950E946229B7FF0895821B930B87
:1053E0000895B7FF0C9420290E942029821B930B5B
:1053F0000895EE0FFF1F0590F491E02D09940E948F
:10540000132A0C94E6280E94DF2858F00E94D8281E
:1054100040F029F45F3F29F00C94CF2851110C94EF
:105420001A290C94D5280E94F72868F39923B1F320
:10543000552391F3951B550BBB27AA2762177307BA
:10544000840738F09F5F5F4F220F331F441FAA1F4E
:10545000A9F335D00E2E3AF0E0E832D0915050400A
:10546000E695001CCAF72BD0FE2F29D0660F771FB8
:10547000881FBB1F261737074807AB07B0E809F09E
:10548000BB0B802DBF01FF2793585F4F3AF09E3F23
:10549000510578F00C94CF280C941A295F3FE4F35F
:1054A000983ED4F3869577956795B795F7959F5F66
:1054B000C9F7880F911D9695879597F90895E1E0B2
:1054C000660F771F881FBB1F621773078407BA0711
:1054D00020F0621B730B840BBA0BEE1F88F7E0956C
:1054E00008950E94782A6894B1110C941A2908959D
:1054F0000E94FF2888F09F5798F0B92F9927B7513D
:10550000B0F0E1F0660F771F881F991F1AF0BA9567
:10551000C9F714C0B13091F00E941929B1E0089583
:105520000C941929672F782F8827B85F39F0B93F75
:10553000CCF3869577956795B395D9F73EF490951A
:105540008095709561957F4F8F4F9F4F089519F407
:1055500016F40C94D5280C94ED2A0E94FF28B8F379
:105560009923C9F3B6F39F57550B87FF0E94FB2A77
:105570000024A0E640EA900180585695979528F4BB
:10558000805C660F771F881F20F0261737074807B3
:1055900030F4621B730B840B202931294A2BA6950A
:1055A00017940794202531254A2758F7660F771F4F
:1055B000881F20F026173707480730F4620B730B5B
:1055C000840B200D311D411DA09581F7B901842F59
:1055D0009158880F9695879508959F3F31F0915087
:1055E00020F4879577956795B795880F911D9695C7
:1055F000879597F9089591505040660F771F881F3F
:10560000D2F708950F931F93CF93DF9382309105C4
:1056100010F482E090E0E0912504F091260420E06F
:1056200030E0A0E0B0E0309719F140815181028173
:10563000138148175907C8F08417950769F4109724
:1056400031F012960C93129713961C9327C0009377
:1056500025041093260422C02115310519F04217A4
:10566000530718F49A01BD01EF01DF01F801DBCF08
:1056700021153105F9F0281B390B2430310580F450
:105680008A819B816115710521F0FB0193838283DF
:1056900004C09093260480932504FE01329644C0F2
:1056A000FE01E20FF31F8193919322503109398358
:1056B00028833AC02091230430912404232B41F401
:1056C0002091040130910501309324042093230498
:1056D00020910201309103012115310541F42DB7CC
:1056E0003EB74091060150910701241B350BE09114
:1056F0002304F0912404E217F307A0F42E1B3F0BC0
:105700002817390778F0AC014E5F5F4F2417350733
:1057100048F04E0F5F1F509324044093230481935D
:10572000919302C0E0E0F0E0CF01DF91CF911F91B3
:105730000F910895CF93DF93009709F481C0FC0186
:10574000329713821282A0912504B09126041097FB
:1057500081F420813181820F931F209123043091A5
:1057600024042817390751F5F0932404E093230407
:1057700067C0ED0120E030E0CE17DF0740F44A813A
:105780005B819E0141155105F1F0EA01F5CFD3830C
:10579000C28340815181840F951FC817D90759F4DE
:1057A00088819981840F951F0296918380838A81D5
:1057B0009B81938382832115310529F4F09326047C
:1057C000E09325043DC0E901FB83EA8349915991A7
:1057D000C40FD51FEC17FD0761F480819181840F00
:1057E000951F0296E90199838883828193819B8327
:1057F0008A83E0E0F0E012968D919C9113970097D8
:1058000019F0FD01DC01F7CF8D919C9111979D015D
:105810002E5F3F4F820F931F209123043091240469
:105820002817390769F4309729F41092260410924A
:10583000250402C013821282B0932404A09323048F
:10584000DF91CF910895A0E0B0E0E9E2FCE20C9492
:105850002F29EC01009721F4CB010E94022BB4C048
:10586000FC01E60FF71F9C0122503109E217F307F4
:1058700008F4A8C0D9010D911C91119706171707BC
:10588000B0F00530110508F49BC0C80104978617D5
:10589000970708F495C002501109061B170B0193D6
:1058A00011936D937C93CF010E949A2B89C05B0169
:1058B000A01AB10A4C01800E911EA0912504B0914E
:1058C0002604612C712CE12CF12C109709F446C0B0
:1058D0008D919C911197A815B905B1F56C0142E025
:1058E000C40ED11CCA14DB0478F14C018A189B0841
:1058F000640142E0C40ED11C1296BC90129713961C
:10590000AC91B5E0CB16D10440F0B282A383918272
:105910008082D9016D937C9309C00E5F1F4F800F69
:10592000911FF90191838083EB2DFA2FE114F1048B
:1059300031F0D7011396FC93EE93129741C0F09388
:105940002604E09325043CC06816790608F43C015F
:105950007D0112960D90BC91A02DB7CF80912304AC
:105960009091240488169906E1F466167706C8F427
:105970008091020190910301009741F48DB79EB789
:105980004091060150910701841B950BE817F90718
:10599000C8F4F0932404E0932304F9017183608335
:1059A0000FC0CB010E94022B7C01009759F0A80187
:1059B000BE010E94EE2CCE010E949A2BC70104C0AA
:1059C000CE0102C080E090E0CDB7DEB7EEE00C94EF
:1059D0004B2981E090E0F8940C94052DFB01DC014B
:1059E00002C001900D9241505040D8F70895DC015B
:1059F00001C06D9341505040E0F70895FB01DC0178
:105A000001900D920020E1F7089515E0CBE4D5E078
:105A100004C0FE010E94F9292196CC34D107C9F7B0
:045A2000F894FFCF28
:105A2400FFFF0000270420001F1C1F1E1F1E1F1F36
:105A34001E1F1E1F000000007311E0100A11C01188
:105A44003B1119112D11000000000306D605CA08E8
:105A5400AA05CE05BA05AB0500000000EC11EF1154
:105A6400E912D71200000000CD08E010CA08C908E6
:105A74001A12AA051008E8070408F8071708AA0567
:105A8400330634180E13521331071407A7064806B9
:105A940044697370656E73696E6721000D0A003A7C
:105AA40000486F7572004D696E00686F75723A2018
:105AB400006D696E7574653A2000482E2046617247
:105AC4006D7300484661726D73204C6F676F0053AD
:045AD40065742000D5
:00000001FF
