:100000000C944C060C9474060C9474060C947406B0
:100010000C9474060C9474060C9474060C94740678
:100020000C9474060C9474060C9474060C94740668
:100030000C9474060C94620E0C9474060C94740662
:100040000C9409180C9474060C94300E0C940A0E3F
:100050000C9474060C9474060C9474060C94740638
:100060000C94510F0C94740600000000240027002B
:100070002A0000000000250028002B0000000000DE
:1000800023002600290004040404040404040202DA
:100090000202020203030303030301020408102007
:1000A0004080010204081020010204081020000012
:1000B0000008000201000003040700000000000027
:1000C0000000000103070F1F3F7F0080C0E0F0F831
:1000D000FCFE00000000003E5B4F5B3E3E6B4F6B42
:1000E0003E1C3E7C3E1C183C7E3C181C577D571C19
:1000F0001C5E7F5E1C00183C1800FFE7C3E7FF0092
:1001000018241800FFE7DBE7FF30483A060E2629DF
:10011000792926407F050507407F05253F5A3CE7A2
:100120003C5A7F3E1C1C08081C1C3E7F14227F2268
:10013000145F5F005F5F06097F017F006689956A33
:10014000606060606094A2FFA29408047E040810BE
:10015000207E201008082A1C08081C2A08081E10E7
:100160001010100C1E0C1E0C30383E3830060E3E9F
:100170000E06000000000000005F000000070007FE
:1001800000147F147F14242A7F2A12231308646228
:1001900036495620500008070300001C2241000089
:1001A00041221C002A1C7F1C2A08083E08080080E7
:1001B000703000080808080800006060002010087F
:1001C00004023E5149453E00427F40007249494980
:1001D000462141494D331814127F102745454539B2
:1001E0003C4A4949314121110907364949493646B6
:1001F0004949291E00001400000040340000000896
:100200001422411414141414004122140802015938
:1002100009063E415D594E7C1211127C7F494949C5
:10022000363E414141227F4141413E7F494949415A
:100230007F090909013E414151737F0808087F0089
:10024000417F41002040413F017F081422417F400F
:100250004040407F021C027F7F0408107F3E4141E6
:10026000413E7F090909063E4151215E7F09192956
:1002700046264949493203017F01033F4040403F40
:100280001F2040201F3F4038403F63140814630381
:10029000047804036159494D43007F414141020400
:1002A000081020004141417F040201020440404007
:1002B0004040000307080020545478407F284444FD
:1002C000383844444428384444287F385454541817
:1002D00000087E090218A4A49C787F080404780012
:1002E000447D40002040403D007F102844000041F4
:1002F0007F40007C047804787C0804047838444407
:100300004438FC1824241818242418FC7C080404FD
:1003100008485454542404043F44243C4040207C66
:100320001C2040201C3C4030403C44281028444CB9
:100330009090907C4464544C440008364100000086
:10034000770000004136080002010204023C262327
:10035000263C1EA1A161123A4040207A38545455DF
:1003600059215555794122545478422155547840A9
:1003700020545579400C1E52721239555555593931
:100380005454545939555454580000457C41000286
:10039000457D420001457C407D1211127DF02825EB
:1003A00028F07C545545002054547C547C0A097F25
:1003B0004932494949323A4444443A324A48483039
:1003C0003A4141217A3A42402078009DA0A07D3DEB
:1003D0004242423D3D4040403D3C24FF2424487E73
:1003E0004943662B2FFC2F2BFF0929F620C0887E5E
:1003F000090320545479410000447D413048484A63
:1004000032384040227A007A0A0A727D0D19317D15
:100410002629292F28262929292630484D402038E9
:100420000808080808080808382F10C8ACBA2F10A8
:100430002834FA00007B000008142A142222142A0F
:1004400014085500550055AA55AA55AAFF55FF5541
:10045000FF000000FF00101010FF00141414FF0034
:100460001010FF00FF1010F010F0141414FC001412
:1004700014F700FF0000FF00FF1414F404FC141430
:1004800017101F10101F101F1414141F001010102D
:10049000F0000000001F101010101F10101010F0BE
:1004A00010000000FF101010101010101010FF109E
:1004B000000000FF140000FF00FF00001F101700E5
:1004C00000FC04F414141710171414F404F40000BE
:1004D000FF00F714141414141414F700F714141470
:1004E000171410101F101F141414F4141010F0100F
:1004F000F000001F101F0000001F14000000FC147B
:100500000000F010F01010FF10FF141414FF14106E
:1005100010101F00000000F010FFFFFFFFFFF0F0C1
:10052000F0F0F0FFFFFF0000000000FFFF0F0F0FD3
:100530000F0F3844443844FC4A4A4A347E020206CB
:1005400006027E027E0263554941633844443C04FE
:10055000407E201E2006027E020299A5E7A5991C76
:100560002A492A1C4C7201724C304A4D4D30304899
:10057000784830BC625A463D3E494949007E0101F7
:10058000017E2A2A2A2A2A44445F444440514A448C
:100590004040444A51400000FF0103E080FF00005A
:1005A00008086B6B083612362436060F090F060052
:1005B0000018180000001010003040FF0101001F5B
:1005C00001011E00191D1712003C3C3C3C000000BC
:1005D00000002200FF2100DB40A4A62EAFDA02813A
:1005E000DA1281DA02818F2000A1C8D300408DAEDB
:1005F000D580A8000060000000000000000000009E
:1006000000000000E000000000000000000000000A
:10061000000001E0000000000000000000000000F9
:100620000001F000000000000000000000000000D9
:1006300003F00000000000000000000000000007C0
:10064000F00000000000000000000000000007F8BB
:10065000000000000000000000000000000FF80093
:10066000000003C0007E000001E0007F0FF80000E2
:100670000003C000FE000001E000FFEFF8000000F2
:1006800003C000FE000001E000FFFFF800000003CF
:10069000C000F00000000F007FFE7FC0000003C01C
:1006A00000F00000000F003FFE7FF83FF1FBCFFCA1
:1006B000FEF3BC3DEFE01FFE7FFF7FFBFFDFFEFE92
:1006C000FFBC3DEFE01FC6FFFF7FFBFFDFFEFEFF2D
:1006D000BC3DEFE00FE3C7FE787BC3DE1EF0FFBC3E
:1006E0003DEF0007FF87FC787BC3DE1EF0F83C3D42
:1006F000EF0001FFFFF0007BC3C01EF0F03C3DEFB8
:100700000001F37FE03FFBC3CFFEF0F03C3DEF0084
:1007100003E33F807FFBC3DFFEF0F03C3DEF0007CB
:10072000E73C00787BC3DE1EF0F03C3DEF0007FFA6
:10073000BE00787BC3DE1EF0F03C3DEF0007FFFEFD
:1007400000787BC3DE1EF0F03C3DEF000FFFFE00A3
:100750007FFBFFDFFEF0F03FFDEFE00FFFFF007FCC
:10076000FBFFDFFEF0F03FFDEFE00FF9FF003E7909
:10077000F9CF9EF0F01F3DE7E01FF1FF0000000001
:1007800000000000000000001F80FF007FFFFFFF4F
:10079000FFFFFFFFFFFFE01C007F007FFFFFFFFE6A
:1007A000B46D888D18E000001F007FFFFFFFFE95ED
:1007B000AD7DB577E000000F007FFFFFFFFEA5AD28
:1007C0009D8D19E0000006007FFFFFFFFEB5ADED37
:1007D000B57EE00000000000018000000000000085
:1007E000000000038000000000000000000007C0BF
:1007F00000000000000000000007C0000000000032
:10080000000000000FC00000000000000000001FFA
:10081000E00000000000000000001FE000000000F9
:1008200000000000003FE0000000000000000000A9
:100830003FF00000000000000000007FF00000001A
:10084000000000001FF87FF0000000000000003FE3
:10085000FE7FF0000000000000003FFF7FF000007E
:1008600000000000001FFFFBE0000000000000008F
:100870000FFFF9FFC00000000000000FFFF9FFF8B4
:1008800000000000000007FFF1FFFF000000000073
:100890000003FC73FFFF80000000000001FE3FFF2B
:1008A000FF80000000000000FF1E0FFF000000009E
:1008B0000000007FFE1FFC000000000000003FFF62
:1008C000FFF8000000000000000FDFFFE000000064
:1008D000000000001F19FFC0000000000000003FE2
:1008E0003CFF00000000000000007E7CF8000000DB
:1008F00000000000007FFE7C0000000000000000FF
:10090000FFFFFC0000000000000000FFFFFE0000F1
:10091000000000000000FFFFFE00000000000000DB
:1009200001FFEFFE0000000000000001FFCFFE000D
:1009300000000000000003FF07FE000000000000B0
:100940000003FC07FE0000000000000003F003FEAF
:1009500000000000000000018000FE000000000018
:1009600000000000007E0000000000000000000009
:100970003E000000000000000000000C000000002D
:100980000000078000FC000003C000000007800199
:10099000FC000003C0000000078001FC000003C051
:1009A000000000078001E00000001E00000007803A
:1009B00001E00000001E007FE3F79FF9FDE7787B70
:1009C000DFC0FFF7FFBFFDFDFF787BDFC0FFF7FF54
:1009D000BFFDFDFF787BDFC0F0F787BC3DE1FF780E
:1009E0007BDE00F0F787BC3DE1F0787BDE0000F7AE
:1009F00087803DE1E0787BDE007FF7879FFDE1E0C7
:100A0000787BDE00FFF787BFFDE1E0787BDE00F05A
:100A1000F787BC3DE1E0787BDE00F0F787BC3DE185
:100A2000E0787BDE00F0F787BC3DE1E0787BDE001C
:100A3000FFF7FFBFFDE1E07FFBDFC0FFF7FFBFFD7A
:100A4000E1E07FFBDFC07CF3F39F3DE1E03E7BCF45
:100A5000C00000000000000000000000FFFFFFFFDA
:100A6000FFFFFFFFFFFFC0FFFFFFFFFD68DB111A65
:100A700031C0FFFFFFFFFD2B5AFB6AEFC0FFFFFFF6
:100A8000FFFD4B5B3B1A33C0FFFFFFFFFD6B5BDBE2
:100A90006AFDC0000000000000000000000000002F
:100AA0000000000F800000000000000000000000B7
:100AB00000000000400000000000000000000000F6
:100AC00000000000400000000000000000000000E6
:100AD00000000000400000000000000000000000D6
:100AE0000000000F80000000000000000000000077
:100AF00000000000000000000000000000000000F6
:100B000000000000000000000000000000000000E5
:100B100000000007C000000000000000000000000E
:100B200000000008000000000000000000000000BD
:100B300000000008000000000000000000000000AD
:100B4000000000080000000000000000000000009D
:100B50000000000FC00000000000000000000000C6
:100B60000000000000000000000000000000000085
:100B70000000000000000000000000000000000075
:100B8000000000064000000000000000000000001F
:100B90000000000A4000000000000000000000000B
:100BA0000000000A400000000000000000000000FB
:100BB0000000000A400000000000000000000000EB
:100BC000000000078000000000000000000000009E
:100BD0000000000000000000000000000000000015
:100BE0000000000000000000000000000000000005
:100BF0000000007FC00000000000000000000000B6
:100C000000000030000000000000000000000000B4
:100C100000000018000000000000000000000000BC
:100C20000000000C000000000000000000000000B8
:100C300000000006000000000000000000000000AE
:100C40000000000C00000000000000000000000098
:100C5000000000180000000000000000000000007C
:100C60000000003000000000000000000000000054
:100C70000000007FC0000000000000000000000035
:100C80000000000000000000000000000000000064
:100C9000000000006218531811241FBECFEFD8E0E7
:100CA000DEBFCDBF11E0A0E0B1E0ECEEFDE302C09D
:100CB00005900D92AC37B107D9F723E0ACE7B1E06E
:100CC00001C01D92AE32B207E1F716E0CBE4D6E0E8
:100CD00004C02197FE010E94B61DCA34D107C9F78E
:100CE0000E94E6180C94E91E0C940000FC01538D40
:100CF000448D252F30E0842F90E0821B930B5417F6
:100D000010F0CF96089501970895FC01918D828D82
:100D1000981761F0828DDF01A80FB11D5D968C914F
:100D2000928D9F5F9F73928F90E008958FEF9FEF5A
:100D30000895FC01918D828D981731F0828DE80F16
:100D4000F11D858D90E008958FEF9FEF0895FC01D0
:100D5000918D228D892F90E0805C9F4F821B91099D
:100D60008F73992708958AE292E00E94A70621E0F6
:100D7000892B09F420E0822F0895FC01848DDF0186
:100D8000A80FB11DA35ABF4F2C91848D90E00196FE
:100D90008F739927848FA689B7892C93A089B189ED
:100DA0008C91837080648C93938D848D981306C08E
:100DB0000288F389E02D80818F7D80830895EF92F2
:100DC000FF920F931F93CF93DF93EC0181E0888F05
:100DD0009B8D8C8D981305C0E889F989808185FDEC
:100DE00026C0F62E0B8D10E00F5F1F4F0F731127DB
:100DF000E02E8C8DE8120CC00FB607FCFACFE88904
:100E0000F989808185FFF5CFCE010E94BD06F1CF23
:100E10008B8DFE01E80FF11DE35AFF4FF0829FB763
:100E2000F8940B8FEA89FB89808180620AC09FB7A2
:100E3000F894EE89FF896083E889F989808183705D
:100E4000806480839FBF81E090E0DF91CF911F910C
:100E50000F91FF90EF900895CF93DF93EC01888D71
:100E60008823C9F0EA89FB89808185FD05C0A889AE
:100E7000B9898C9186FD0FC00FB607FCF5CF808134
:100E800085FFF2CFA889B9898C9185FFEDCFCE017E
:100E90000E94BD06E7CFDF91CF91089580E090E0FA
:100EA000892B29F00E94B30681110C94000008954B
:100EB000FC0177FDB9C080859185681779070CF032
:100EC000B3C057FDB1C082859385481759070CF010
:100ED00008958689823079F484819581DC01A61B8E
:100EE000B70BBD016150710986819781DC01A41B9C
:100EF000B50BAD010EC0833009F084C0642775279F
:100F0000CA01862797276827792746815781481B7A
:100F1000590B415051092130310531F048F122304F
:100F2000310509F44AC00895CA0157FD07969C018E
:100F3000A3E035952795AA95E1F7A481B5812A9F6D
:100F4000C0012B9F900D3A9F900D1124680F791FBF
:100F5000078CF0A1E02DE60FF71F4770552781E0C1
:100F600090E001C0880F4A95EAF79081892B48C02C
:100F7000CA0157FD07969C0193E0359527959A95F0
:100F8000E1F7A481B5812A9FC0012B9F900D3A9F64
:100F9000900D1124680F791F078CF0A1E02DE60F4A
:100FA000F71F4770552781E090E001C0880F4A95F0
:100FB000EAF780959081892323C0CA0157FD0796DF
:100FC0009C0183E0359527958A95E1F7A481B58149
:100FD0002A9FC0012B9F900D3A9F900D1124680FFE
:100FE000791F078CF0A1E02DE60FF71F47705527FA
:100FF00081E090E001C0880F4A95EAF79081892747
:1010000080830895813009F086CF642775274627AD
:1010100057276427752784819581DC01A61BB70BB0
:10102000BD016150710977CF089585ED8093BC00B3
:101030008091BC0084FDFCCF109205020895409180
:10104000BC01262F30E0240F311D21323105DCF4A4
:10105000209105022430C9F4FC0180E090E086175D
:1010600058F43091BC012191DC01A456BE4FA30F6E
:10107000B11D2C930196F3CF8091BC01680F609352
:10108000BC0180E0089581E0089582E0089508950C
:1010900008950895E091170380911603E81730F43E
:1010A000F0E0E458FE4F808190E008958FEF9FEFCD
:1010B00008959091170380911603981750F4E92F23
:1010C000F0E0E458FE4F208130E09F5F90931703DB
:1010D00002C02FEF3FEFC90108958091160390E001
:1010E00020911703821B91090895CF92DF92EF920E
:1010F000FF920F931F93CF93DF937C01CB018A0163
:1011000020910602222389F0EB016B01C40ED51E4B
:10111000CC15DD0569F06991D701ED91FC91019045
:10112000F081E02DC7010995F3CF642F0E941F08BD
:10113000C801DF91CF911F910F91FF90EF90DF9049
:10114000CF900895CF93DF931F92CDB7DEB7698319
:10115000209106022223D1F020912902203240F072
:1011600021E030E0FC013383228380E090E015C071
:1011700080910702E82FF0E0E85FFD4F99819083AE
:101180008F5F809307028093290205C061E0CE0142
:1011900001960E941F0881E090E00F90DF91CF91AF
:1011A00008950895FC016370668B84819581268182
:1011B0003781613039F0633029F091878087338738
:1011C00022870895318720879387828708956F92B9
:1011D0007F928F929F92AF92BF92CF92DF92EF92C7
:1011E000FF920F931F93CF93DF93EC014B015A01B2
:1011F00069013801E881F9810284F385E02D0995C0
:10120000E881F9810288F389E02D87019601A50123
:10121000B401CE010995A501460D571D4150510954
:10122000E881F9810288F389E02D9601B401CE01AD
:101230000995E881F9810088F189E02D9301A501E4
:10124000B401CE010995C80CD91CB60161507109D1
:10125000E881F9810088F189E02D9301A501CE0193
:101260000995E881F9810688F789E02DCE01DF91A3
:10127000CF911F910F91FF90EF90DF90CF90BF9093
:10128000AF909F908F907F906F9009948F929F92D4
:10129000AF92BF92CF92DF92EF92FF920F931F9384
:1012A000CF93DF934C016B015A01E901DC01ED9111
:1012B000FC916217730781F40417150724F48B2D32
:1012C0005801042F182F0A191B0998012F5F3F4F4F
:1012D000048CF58DE02D12C04017510709F5261733
:1012E000370724F48D2D6901C62FD82F9E012C19A4
:1012F0003D092F5F3F4F068CF78DE02D8701A5013B
:10130000B601C4010995DF91CF911F910F91FF9014
:10131000EF90DF90CF90BF90AF909F908F90089507
:101320000284F385E02D0995D401ED91FC910488A8
:10133000F589E02D9E01A501B601C4010995D401EE
:10134000ED91FC910688F789E02DC401DF91CF91E2
:101350001F910F91FF90EF90DF90CF90BF90AF90D3
:101360009F908F900994EF92FF920F931F93DC014F
:101370001A960D911C911B9718962D913C911997D7
:10138000ED91FC9100A0F1A1E02D7B0140E050E047
:1013900060E070E009951F910F91FF90EF90089524
:1013A0004F925F926F927F928F929F92AF92BF9275
:1013B000CF92DF92EF92FF920F931F93CF93DF9321
:1013C0006C012B015A0139014801DC01ED91FC91BE
:1013D0000284F385E02D0995E201640C751CD601A9
:1013E000ED91FC91C615D7055CF40088F189E02DDC
:1013F00087019401A501BE01C60109952196EFCF91
:101400000688F789E02DC601DF91CF911F910F91DA
:10141000FF90EF90DF90CF90BF90AF909F908F9014
:101420007F906F905F904F9009948F929F92AF92B0
:10143000BF92CF92DF92EF92FF920F931F93CF93C1
:10144000DF93EC015B014A016901E881F9810284C3
:10145000F385E02D099595012C0D3D1D2150310995
:10146000E881F9810488F589E02D78018401A401DF
:10147000B501CE010995E881F9810688F789E02D4B
:10148000CE01DF91CF911F910F91FF90EF90DF90F0
:10149000CF90BF90AF909F908F9009948F929F9222
:1014A000AF92BF92CF92DF92EF92FF920F931F9372
:1014B000CF93DF93EC015B014A0169017801E88178
:1014C000F9810284F385E02D0995C80CD91C8601A9
:1014D00001501109E881F9810488F589E02D950111
:1014E000A401B501CE010995E881F9810688F78943
:1014F000E02DCE01DF91CF911F910F91FF90EF90E2
:10150000DF90CF90BF90AF909F908F900994EF9213
:10151000FF920F931F93DC01ED91FC9100A0F1A1CC
:10152000E02D09951F910F91FF90EF9008950F9373
:101530001F93DC01ED91FC91068CF78DE02D099550
:101540001F910F9108950F931F93DC01ED91FC9172
:10155000048CF58DE02D09951F910F910895DC0104
:10156000ED91FC910084F185E02D09942F923F923A
:101570004F925F926F927F928F929F92AF92BF92A3
:10158000CF92DF92EF92FF920F931F93CF93DF934F
:1015900000D000D000D0CDB7DEB72C017E836D83A4
:1015A0006A015901C801FC82EB824801841A950A3C
:1015B00097FE03C091948194910835012D813E815D
:1015C000621A730A77FE03C07194619471086814FB
:1015D00079045CF43A2D2B2D5C01832F922F3D81F1
:1015E0002E81DE82CD82C32ED22EAD81BE81AA167F
:1015F000BB065CF43C2D2D2D6C01832F922F3D8179
:101600002E81BE82AD82A32EB22E85012D813E8118
:10161000021B130B1C012C183D0837FE03C031942C
:1016200021943108780117FF03C03FEFE31AF30A52
:10163000F594E794C816D9062CF08FEF9FEF9A83A4
:10164000898304C0A1E0B0E0BA83A9832D813E81E3
:10165000A216B30624F1D201ED91FC910484F58524
:10166000E02D2B813C816814790424F44D815E8146
:10167000B60103C0A6016D817E81C2010995E21801
:10168000F308F7FE06C029813A81C20ED31EE00E90
:10169000F11E8D819E8101969E838D83D7CF2696E4
:1016A0000FB6F894DEBF0FBECDBFDF91CF911F9173
:1016B0000F91FF90EF90DF90CF90BF90AF909F90F1
:1016C0008F907F906F905F904F903F902F900895F4
:1016D000089580E090E008950F931F93CF93DF93D8
:1016E000DC015696EC915697E23071F0E330E9F068
:1016F000E13079F5FB0114960D90BC91A02DA41B4F
:10170000B50BA21BB30B18C0EC01EC81FD81E61BED
:10171000F70BBF0161507109EE81FF81DF01A41B4E
:10172000B50BAD01421B530B14C0DA01EC01EE8185
:10173000FF81E61BF70B3197F7FD0DC0EC014E81E1
:101740005F81E417F5073CF4AF01BD010E94CE159F
:1017500002C00E943516DF91CF911F910F9108951D
:101760000F931F93DC015696EC915697E23061F08F
:10177000E33009F1E13081F51496ED91FC91159774
:10178000E41BF50B319723C0DC011496ED91FC911D
:101790001597DF01A61BB70BBD01DC011696ED9175
:1017A000FC911797DF01A41BB50BAD014150510906
:1017B000621B730B11C0FA01DC0116964D915C910E
:1017C0001797DA01A61BB70BBD01621B730BAB01A8
:1017D000BF010E9435160CC057FD0AC0DC011696E9
:1017E000ED91FC9117974E175F0714F40E94CE15E8
:1017F0001F910F9108958F929F92AF92CF92EF9287
:10180000FF920F931F93CF93DF93EC01262F898DC7
:101810009A8D009709F042C06A3059F41D861C86E3
:101820002D898E859F8538E0239F800D911D112481
:1018300043C06D3009F4AAC08F898823C9F03C8960
:101840008C859D8546E0349F800D911D112448852F
:1018500059854817590764F41D861C863D898E8575
:101860009F8548E0349F800D911D11249F878E87AE
:10187000EA88FB88088919894E855F856C857D8596
:10188000AD88CC88CE010E949A132C898C859D85C9
:1018900036E0239F800D911D11243EC06A3079F4FB
:1018A0001D861C862D89FC013696E4918E859F85C8
:1018B0002E9F800D911D11249F878E8767C06D30EC
:1018C00009F464C0FC0134963491631708F45EC0D7
:1018D0003196E491E61708F459C0462F431B342F84
:1018E000FC0132968590949047E0349F800C911CC7
:1018F0001124F401329634913196E491332311F09E
:10190000E1110DC0F4013496E4912C898C859D85FC
:10191000E29F800D911D11249D878C8737C0F401B3
:10192000359644915F89552319F15C89E32FF0E0E6
:10193000E40FF11D47FDFA955E9FB0015F9F700DAA
:1019400011244C855D85460F571F6885798564177E
:10195000750774F41D861C863D89FC013696E4915A
:101960008E859F853E9F800D911D11249F878E87B8
:10197000EA88FB88088919894E855F856C857D8595
:10198000AD88CC88CE010E949A13BCCF81E090E054
:10199000DF91CF911F910F91FF90EF90CF90AF907B
:1019A0009F908F900895CF92DF92EF92FF920F93C6
:1019B0001F93CF93DF93C0911A03D0911B038881AB
:1019C00087FD4DC0998197FD4AC09B85992361F0A1
:1019D00029853A85225031093A87298729853A8510
:1019E00037FF02C01A8619860E94EA162B8130E062
:1019F0008217930711F413E001C010E089810E945F
:101A0000EA162B8130E08217930711F481E0182742
:101A10008E819F81811B80FF12C0212F110F330BFC
:101A20003F832E832C813D818270082E000C990B00
:101A30000197820F931F9D838C8381E001C080E01A
:101A40009B85992361F0882351F089859A85883E8A
:101A50009B4028F489859A8549969A8789878FB70C
:101A6000F89440911C0350911D0360911E037091E6
:101A70001F038FBF8A8D9B8DAC8DBD8D4817590775
:101A80006A077B0720F41A8E1B8E1C8E1D8E8A819E
:101A9000181634F08111A0C09889992309F49CC0CC
:101AA0000A8D1B8D2C8D3D8D6A017B01C01AD10AD8
:101AB000E20AF30A970186010A3011052105310572
:101AC00008F48AC04A8F5B8F6C8F7D8F9989992328
:101AD00011F18E3008F08E508770806480937C0006
:101AE00080917A00806480937A0080917A0086FDEC
:101AF000FCCF809178002091790090E0922B2E8D80
:101B00003F8D8217930774F021E048A159A148172F
:101B100059074CF005C00E94EA1621E0892B19F400
:101B200020E001C021E03B81321315C0EA89FB8926
:101B30003196FB8BEA8B8E899F896AE070E00E9468
:101B4000801D6E177F0738F48F85882321F083E08E
:101B500090E09D878C8781E08327821330C08A893B
:101B60009B89029750F18C859D85039719F484E039
:101B700090E010C02C893D892230310580F0888D9D
:101B8000998D6AE070E00E94801D26173707A8F43F
:101B900086E090E09D878C871D8A1C8A0EC08E850A
:101BA000882339F0888D998D6AE070E00E94801D4D
:101BB00002C061E070E07D8B6C8B1B8A1A8A8C8975
:101BC0009D89009749F001979D8B8C8B892B21F47F
:101BD00085E090E09D878C87DF91CF911F910F91D9
:101BE000FF90EF90DF90CF9008956115710579F027
:101BF000FB0101900020E9F73197AF01461B570B1D
:101C0000DC01ED91FC910280F381E02D099480E0EC
:101C100090E008951F920F920FB60F9211242F9308
:101C20003F934F935F936F937F938F939F93AF9364
:101C3000BF93EF93FF938AE292E00E94BD06FF916B
:101C4000EF91BF91AF919F918F917F916F915F9134
:101C50004F913F912F910F900FBE0F901F901895AD
:101C60001F920F920FB60F9211242F938F939F9371
:101C7000EF93FF93E0913A02F0913B028081E09173
:101C80004002F091410282FD12C090818091430296
:101C90008F5F8F7320914402821751F0E0914302CD
:101CA000F0E0E65DFD4F958F8093430201C0808197
:101CB000FF91EF919F918F912F910F900FBE0F90F9
:101CC0001F9018951F920F920FB60F9211242F9309
:101CD0003F934F935F936F937F938F939F93AF93B4
:101CE000BF93EF93FF93E0911803F09119030995C7
:101CF000FF91EF91BF91AF919F918F917F916F91E4
:101D00005F914F913F912F910F900FBE0F901F90B9
:101D1000189508958EBD00000DB407FEFDCF8EB559
:101D200008951F93CF93DF93FC01858D968D0097C7
:101D300029F1162FEF0121A131E030930602209303
:101D400028021092070210922902DC01ED91FC9109
:101D50000190F081E02D60E009958D8D9E8DDC0174
:101D6000ED91FC910190F081E02D612F09958D8D11
:101D70009E8DDF91CF911F910C94A810A5A5B6A5BB
:101D80009C9183A9809589238C93838D948D892B35
:101D900031F0862FDF91CF911F910C948A0E28E0AD
:101DA00030E080E8A1A5B2A591A9462F482319F0FB
:101DB0004C91942B03C04C91909594239C93A3A594
:101DC000B4A54C9192A9942B9C93A3A5B4A54C9136
:101DD00092A9909594239C9386952150310911F7EF
:101DE000DF91CF911F9108958CBD9DBD08951F93E4
:101DF000CF93DF93EC01162F8D8D9E8D892BB1F043
:101E00002FA938AD49AD5AAD60E074E284EF90E09F
:101E10000E94941DDA01C9014097A109B109B69544
:101E2000A795979587958093B8000FC08B8D9C8D53
:101E3000892B21F08DA99EA90E94F40EEFA5F8A987
:101E400090818CA9809589238083111102C066EA54
:101E500001C067EACE010E94910E8D8D9E8D892B67
:101E6000B1F02BAD3CAD4DAD5EAD60E074E284EF02
:101E700090E00E94941DDA01C9014097A109B109BF
:101E8000B695A795979587958093B80006C0EFA55E
:101E9000F8A990818CA9892B8083DF91CF911F9124
:101EA00008951F920F920FB60F9211242F933F9314
:101EB0004F935F936F937F938F939F93AF93BF9352
:101EC000EF93FF938091B900887F803609F49CC01E
:101ED00068F5883209F45BC090F4803109F454C08D
:101EE00038F4882309F4F6C0883009F44DC0F6C0F0
:101EF000883109F44CC0803209F45DC0EFC08034F1
:101F000009F468C048F4803309F455C0883309F0F7
:101F1000E5C080930302D8C0803509F44FC08835EE
:101F200009F45DC0883409F0D9C0D6C0883909F4F5
:101F3000C7C0A8F4883709F467C038F4883609F4B4
:101F400063C0803709F460C0C9C0883809F4B8C0DC
:101F5000803909F45FC0803809F0C0C05BC0803BA5
:101F600009F486C038F4803A09F466C0883A09F466
:101F70007FC0B4C0803C09F4A7C0883C09F4A4C069
:101F8000883B09F48AC0AAC08091E00110C09091FA
:101F9000020280910102981770F5E091020281E03F
:101FA0008E0F80930202F0E0EF51FE4F808180930C
:101FB000BB0085EC86C0809303028EC0E0910202D4
:101FC00081E08E0F809302028091BB00F0E0EF5120
:101FD000FE4F808390910202809101026EC0E091D9
:101FE000020281E08E0F809302028091BB00F0E03C
:101FF000EF51FE4F80838091040281116DC081E01A
:102000008093DF0184EA61C083E08093050210922F
:10201000DE01CFCF8091DE01803208F051C0E09127
:10202000DE0181E08E0F8093DE018091BB00F0E045
:10203000E254FE4F8083BDCF85EC8093BC001092AC
:1020400005028091DE01803230F4E091DE01F0E0A3
:10205000E254FE4F10826091DE0170E0E0911203C5
:10206000F09113038EEB91E009951092DE0136C0DA
:1020700084E0809305021092BD011092BC01E091B2
:102080001403F091150309958091BC01811105C0DD
:1020900081E08093BC0110929C01E091BD0181E040
:1020A0008E0F8093BD01F0E0E456FE4F8081809357
:1020B000BB009091BD018091BC01981708F479CFC5
:1020C00085E88093BC000AC085EC8093BC00109228
:1020D000050204C0109203020E941508FF91EF91BF
:1020E000BF91AF919F918F917F916F915F914F9130
:1020F0003F912F910F900FBE0F901F901895833036
:1021000081F028F4813099F08230A1F00895873071
:10211000A9F08830B9F08430D1F4809180008F7DAF
:1021200003C0809180008F7780938000089584B5EC
:102130008F7702C084B58F7D84BD08958091B000F3
:102140008F7703C08091B0008F7D8093B000089599
:1021500030912902313208F04BC080910502811183
:10216000FCCF9091280222E02093050221E02093E9
:1021700004022FEF20930302109202023093010217
:10218000E8E0F2E0A1EEB1E020E0321721F0419169
:102190004D932F5FFACF1092E0012091E001990F4B
:1021A000922B9093E0019091DF01913061F41092B5
:1021B000DF019091E0019093BB009091BC0093FDF2
:1021C000F8CF95EC01C095EE9093BC00909105027C
:1021D0009230E1F3909103029F3F79F080910302E6
:1021E000803241F080910302803331F084E005C0F9
:1021F00081E003C082E001C083E0109207021092E8
:102200002902109206020895DF92EF92FF920F9337
:102210001F93CF93DF93D82ED92FC62F8091E4023E
:102220009091E502009709F454C02091E80231E052
:10223000309306022093280210920702109229027E
:10224000DC01ED91FC910190F081E02D60E00995B9
:10225000ED2CFD2E11E0D1E08091E4029091E50299
:10226000CC2371F11032C8F00E94A8108091E802CE
:10227000D09306028093280210920702109229023E
:102280008091E4029091E502DC01ED91FC910190D6
:10229000F081E02D60E0099511E08091E4029091D9
:1022A000E502F7016491DC01ED91FC910190F08170
:1022B000E02D09951F5FC150BFEFEB1AFB0ACCCF91
:1022C000DF91CF911F910F91FF90EF90DF900C94D1
:1022D000A810E091F402F091F50290818091FA0249
:1022E0008095892380830D2D1D2FCC2309F439C0BF
:1022F000F80184912091E2023091E302232B31F026
:102300000E948A0EC1500F5F1F4FEFCF28E030E0D0
:1023100040E8E091F002F091F1029091F802582F1C
:10232000542319F05081952B03C05081909595232B
:102330009083E091F202F091F30250819091F902C2
:10234000952B9083E091F202F091F30250819091ED
:10235000F902909595239083469521503109C9F64D
:10236000D1CFDF91CF911F910F91FF90EF90DF9030
:102370000895EF92FF920F931F93CF93DF93809175
:10238000E4029091E502892BD1F02091FE02309178
:10239000FF02409100035091010360E074E284EF7A
:1023A00090E00E94941DDA01C9014097A109B1098A
:1023B000B695A795979587958093B80016C080919C
:1023C000E2029091E302892B31F08091FC0290911E
:1023D000FD020E94F40EE091F602F091F702908166
:1023E0008091FB0280958923808365E082ED95E0F2
:1023F0000E9404116091CB02615087EC92E00E9430
:10240000910E2091CD023091CE02C901079697FD21
:10241000079633E0959587953A95E1F72091CB02A1
:102420003091CC02829F8001839F100D929F100DEE
:102430001124C091E602D091E7028091E4029091CC
:10244000E5020C0F1D1F009709F44CC02091E80213
:1024500031E0309306022093280210920702109276
:102460002902DC01ED91FC910190F081E02D60E406
:102470000995FF24F394EE24E3948091E402909173
:10248000E5020C171D0759F1BFE1BF15D0F40E94FA
:10249000A8108091E802E092060280932802109230
:1024A0000702109229028091E4029091E502DC017A
:1024B000ED91FC910190F081E02D60E40995FF24FD
:1024C000F3948091E4029091E5026991DC01ED9131
:1024D000FC910190F081E02D0995F394CECF0E94FC
:1024E000A81041C0E091F402F091F5029081809132
:1024F000FA02892B80830C171D07A9F1899120917D
:10250000E2023091E302232B19F00E948A0EF3CFEE
:1025100028E030E040E8E091F002F091F102909183
:10252000F802582F542319F05081952B03C0508185
:10253000909595239083E091F202F091F3025081FF
:102540009091F902952B9083E091F202F091F302C1
:1025500050819091F9029095952390834695215052
:102560003109C9F6C8CF8091E4029091E502892B28
:10257000D1F0209102033091030340910403509164
:10258000050360E074E284EF90E00E94941DDA019C
:10259000C9014097A109B109B695A7959795879567
:1025A0008093B80017C0E091F602F091F702908195
:1025B0008091FB02892B80838091E2029091E3025B
:1025C000892B41F0DF91CF911F910F91FF90EF90F8
:1025D0000C94890EDF91CF911F910F91FF90EF9096
:1025E00008953F924F925F926F927F928F929F9247
:1025F000AF92BF92CF92DF92EF92FF920F931F9311
:10260000CF93DF93CDB7DEB728970FB6F894DEBF30
:102610000FBECDBF4C017E836D832A013901C801F5
:10262000079697FD07969C0193E0359527959A9517
:10263000E1F73C832B83A12CB12CC12CD12C312C64
:10264000C2018C0D9D1D9A838983CE14DF04D4F5BD
:1026500018861F822F813885201731075CF5C90144
:1026600087709927892B11F0330C0EC0EF81F88504
:10267000F7FD379683E0F595E7958A95E1F7EA0D42
:10268000FB1DE60DF71D349037FE0DC021E030E054
:1026900049815A816D817E818F819885680F791F6C
:1026A000C4010E94AF0A2F8138852F5F3F4F3887C2
:1026B0002F83D0CF3FEFC31AD30A8B819C81A80E02
:1026C000B91EBECF28960FB6F894DEBF0FBECDBFA1
:1026D000DF91CF911F910F91FF90EF90DF90CF90FE
:1026E000BF90AF909F908F907F906F905F904F9032
:1026F0003F9008952091CD023091CE02C9010796F6
:1027000097FD079623E0959587952A95E1F7209107
:10271000CB023091CC02829FA001839F500D929FEB
:10272000500D112460E070E08091E6029091E70284
:102730000C94E21E2F923F924F925F926F927F9283
:102740008F929F92AF92BF92CF92DF92EF92FF92C1
:102750000F931F93CF93DF93CDB7DEB76B970FB671
:10276000F894DEBF0FBECDBF9B8F8A8F1B014A013D
:10277000D22E198708873701A982DC0159962D913D
:102780003C915A972115310509F0FFC018968D919B
:102790009C911997681779070CF0E7C11A968D91EB
:1027A0009C911B97481759070CF0DFC1EC2DF0E006
:1027B000FB83EA839B0146E0C49E200D311D11245A
:1027C0003D872C87121613060CF0CFC16A2D70E0DE
:1027D0007B876A8783E0660F771F8A95E1F77F879B
:1027E0006E87CB01880D991D181619060CF0BDC116
:1027F00058968C91811104C08FEA8D1508F4D394FA
:10280000AA8DBB8DED91FC9111970284F385E02D8B
:10281000CD010995B5E0DB9EC0011124EC2DF0E05F
:10282000F98BE88B91012B5F3F4F3B8B2A8B3D82CD
:102830002C822101AC01421953095D8B4C8B7981AB
:10284000672F70E07F8B6E8BC4010896998F888FFD
:10285000EC89FD89E40DF51DEE52FF4FD490540133
:102860009F828E82D0FE16C0AA8DBB8DED91FC9109
:10287000B1E0CB1209C02981213031F40484F585FF
:10288000E02D2885398519C00684F785E02DE88478
:10289000F9841DC0488559854615570519F1AA8D3B
:1028A000BB8DED91FC91B1E0CB120DC0298121309F
:1028B00051F40484F585E02D9301A501B2018A8DC0
:1028C0009B8D09950FC00684F785E02D73010A855D
:1028D0001B852A813B814E815F816C817D818A8D40
:1028E0009B8D0995D6943FEFA31AB30A4E815F8161
:1028F0006E897F89460F571F5F834E83888D998D20
:10290000A816B90609F0AECF9FEF491A590AAC8153
:10291000BD81E889F989AE0FBF1FBD83AC832A89C9
:102920003B894216530609F093CF488559854615D1
:10293000570509F4F8C0AA8DBB8DED91FC91B1E06B
:10294000CB1211C02981213071F4B1016B5F7F4F2F
:102950000088F189E02D830128E030E0A4018A8D10
:102960009B8D0995E0C06C857D854A815B81641BE8
:10297000750B0684F785E02D73010E851F859A017E
:10298000A4018A8D9B8D0995CEC0F9013496E491FE
:10299000DE1AF901329685919491B7E0DB9E800DA5
:1029A000911D1124F901259134913B8B2A8BFC0157
:1029B000259134915901FC0132965490319634910D
:1029C0003C87329674903196149141E04C1518F082
:1029D0005981523068F0672D072C000C770B7D83EE
:1029E0006C83812F012E000C990B9B838A8304C07A
:1029F0001B821A821D821C82AA8DBB8DED91FC91D7
:102A000011970284F385E02DCD010995412CD12C3D
:102A1000612CF981EF2FF0E0FF83EE832C2D30E065
:102A20003B872A87A401410F511D17FD5A955F8BE3
:102A30004E8BB101670D711D77FC7A95798F688F88
:102A40007C85671608F06FC0262D30E04A815B81D7
:102A5000420F531FAE81BF81A49FC001A59F900D5F
:102A6000B49F900D1124F401E80FF91FF98BE88B46
:102A7000842D712C4E895F89420F531F5D8B4C8BC7
:102A8000751408F04DC051E0580F5E87877041F40F
:102A9000C5010196EA89FB89EA0DFB1DD4905C0112
:102AA000D7FE3AC061E0C61216C07981713099F440
:102AB000AA8DBB8DED91FC9111970484F585E02DD5
:102AC000288539854C895D89688D798D670D711DE3
:102AD000CD01099521C08C819D81870D911DEA85CD
:102AE000FB858E9FB0018F9F700D9E9F700D1124EE
:102AF000620D731DAA8DBB8DED91FC91119706841B
:102B0000F785E02DE884F9840E811F812A853B85B5
:102B100048895989CD010995DD0C73948E85B0CF14
:102B2000450C63948DCFAA8DBB8DED91FC911197CF
:102B30000688F789E02DCD016B960FB6F894DEBFBD
:102B40000FBECDBFDF91CF911F910F91FF90EF90FE
:102B5000DF90CF90BF90AF909F908F907F906F90BD
:102B60005F904F903F902F9009946B960FB6F8941A
:102B7000DEBF0FBECDBFDF91CF911F910F91FF90B0
:102B8000EF90DF90CF90BF90AF909F908F907F900D
:102B90006F905F904F903F902F9008950F931F93E9
:102BA000CF93DF9377FF04C0260F371F60E070E0FC
:102BB000DC011496CD91DC911597FB01E20FF31F18
:102BC000CE17DF071CF49E01261B370B12161306C7
:102BD0000CF046C0FA0157FD3796DF01E3E0B595EA
:102BE000A795EA95E1F7AC9FF001AD9FF00DBC9F72
:102BF000F00D11246E0F7F1FDC015F96ED91FC91AB
:102C00009097E60FF71F4770552781E090E001C0CD
:102C1000880F4A95EAF7482F0130110539F078F00E
:102C200002301105E9F42E0F3F1F13C02E0F3F1F76
:102C3000E217F307A9F08081842B8193F9CF809567
:102C40002E0F3F1FE217F30759F0908198239193BD
:102C5000F9CFE217F30721F0808184278193F9CF20
:102C6000DF91CF911F910F910895EF92FF920F93F3
:102C70001F93CF93DF93EC0177FDA5C0EC80FD801F
:102C80006E157F050CF09FC057FF04C0240F351F41
:102C900040E050E08E819F81FA01E20FF31F8E1712
:102CA0009F071CF49C01241B350B121613060CF015
:102CB0008AC0922F842F8695869586958E9DD00109
:102CC0008F9DB00D11246A0F7B1FAF8DB8A1A60F89
:102CD000B71F4770B1F188E0841B482F682F70E060
:102CE000FB01E653FF4FE491281798F4621B71092A
:102CF0002FEF30E002C0359527956A95E2F7E22381
:102D00000130110549F078F00230110509F05BC07F
:102D10000EC00130110519F48C91E82B0AC0013066
:102D2000110508F049C0E0958C91E82302C08C9110
:102D3000E827EC93941708F446C02C813D81A20F3C
:102D4000B31FE92FE41BE830F8F00230110561F4FD
:102D50008E2F9C9190959C932C813D81A20FB31F47
:102D600088508830B0F70FC081E00115110509F4D3
:102D700080E081959E2F8C932C813D81A20FB31F03
:102D800098509830C0F7E770EE23E9F0F0E0EE538A
:102D9000FF4FE4910130110539F048F00230110580
:102DA00091F48C91E82706C08C91E82B03C0E09544
:102DB0008C91E823EC9307C00230110509F4B7CFDA
:102DC000AE0DBF1DBECFDF91CF911F910F91FF9030
:102DD000EF900895CF93DF93282F30E0F901E2556B
:102DE000FF4F8491F901E656FF4FD491F901EA575C
:102DF000FF4FC491CC2391F081110E947F10EC2FE2
:102E0000F0E0EE0FFF1FE458FF4FA591B491EC9155
:102E1000ED2381E090E021F480E002C080E090E0CA
:102E2000DF91CF9108951F93CF93DF93282F30E048
:102E3000F901E255FF4F8491F901E656FF4FD49115
:102E4000F901EA57FF4FC491CC23C1F0162F81112D
:102E50000E947F10EC2FF0E0EE0FFF1FEE58FF4FA7
:102E6000A591B4919FB7F894111104C08C91D0959D
:102E7000D82302C0EC91DE2BDC939FBFDF91CF9172
:102E80001F910895CF93DF9390E0FC01E656FF4F2A
:102E90002491FC01EA57FF4F8491882361F190E06F
:102EA000880F991FFC01E859FF4FC591D491FC018F
:102EB000EE58FF4FA591B491611109C09FB7F894E6
:102EC0008881209582238883EC912E230BC0623069
:102ED00061F49FB7F8948881322F309583238883DB
:102EE000EC912E2B2C939FBF06C08FB7F894E881EE
:102EF0002E2B28838FBFDF91CF9108958F929F92C1
:102F0000AF92BF92CF92DF92EF92FF926B017C0162
:102F10000E94E4174B015C01C114D104E104F104E7
:102F2000F1F00E94E417DC01CB0188199909AA0984
:102F3000BB09883E9340A105B10570F321E0C21A98
:102F4000D108E108F10888EE880E83E0981EA11CE4
:102F5000B11CC114D104E104F10419F7DDCFFF90D5
:102F6000EF90DF90CF90BF90AF909F908F9008959B
:102F7000CF92DF92EF92FF920F931F93CF93DF9345
:102F80006C017A018B01C0E0D0E0CE15DF0581F045
:102F9000D8016D918D01D601ED91FC910190F081E8
:102FA000E02DC6010995892B11F02196EECF7E0107
:102FB000C701DF91CF911F910F91FF90EF90DF90AC
:102FC000CF9008950E94DD1E3FB7F89480912603AC
:102FD00090912703A0912803B091290326B5A89BBF
:102FE00005C02F3F19F00196A11DB11D3FBFBA2F9B
:102FF000A92F982F8827820F911DA11DB11DBC01FB
:10300000CD0142E0660F771F881F991F4A95D1F7BF
:1030100008951F920F920FB60F9211242F933F9392
:103020008F939F93AF93BF9380911C0390911D0347
:10303000A0911E03B0911F033091250323E0230FBD
:103040002D3720F40196A11DB11D05C026E8230FE0
:103050000296A11DB11D2093250380931C0390931C
:103060001D03A0931E03B0931F038091260390912C
:103070002703A0912803B09129030196A11DB11D3A
:103080008093260390932703A0932803B0932903EA
:10309000BF91AF919F918F913F912F910F900FBE54
:1030A0000F901F9018958EE291E09093C802809344
:1030B000C7028091E6029091E702009711F00C940C
:1030C000541E0895EAE2F2E01382128248EE53E0C1
:1030D00060E070E044835583668377838AE091E003
:1030E0009183808385EC90E09587848784EC90E0E1
:1030F0009787868780EC90E0918B808B81EC90E0C5
:10310000938B828B82EC90E0958B848B86EC90E0A5
:10311000978B868B118E128E138E148EA6E0B3E0E1
:1031200013961C921E92129714964D935D936D9375
:103130007C9317978CE191E011969C938E93E7EC2A
:10314000F2E01382128220E830E03583248380E2AB
:1031500090E0978386833187208793878287168ABA
:10316000158614861786168681E0858B848B2FEF53
:103170003FEF338B228B318B208B878B108E128EFF
:10318000118E8EE291E091838083148E138EB68F20
:10319000A58F10A2178E8FEF84A385A386A387A384
:1031A00084E080A780E585AB16AA80E89AE1A6E0D6
:1031B000B0E087AB90AFA1AFB2AF80EA96E8A1E0F4
:1031C000B0E083AF94AFA5AFB6AF0895CF93DF93D0
:1031D000CDB7DEB7A1970FB6F894DEBF0FBECDBF57
:1031E000789484B5826084BD84B5816084BD85B5E2
:1031F000826085BD85B5816085BD80916E008160EE
:1032000080936E0010928100809181008260809393
:103210008100809181008160809381008091800095
:103220008160809380008091B10084608093B100C0
:103230008091B00081608093B00080917A008460BA
:1032400080937A0080917A00826080937A008091E6
:103250007A00816080937A0080917A008068809300
:103260007A001092C10061E08DE00E944217E09167
:103270003A02F0913B0282E08083E0913602F091C5
:1032800037021082E0913802F09139028FEC80838E
:1032900010924202E0913E02F0913F0236E0D32EBE
:1032A000D082E0913C02F0913D0280818061808378
:1032B000E0913C02F0913D02808188608083E09142
:1032C0003C02F0913D02808180688083E0913C0265
:1032D000F0913D0280818F7D808382E290E00E94A8
:1032E000BC1D8C0184E0F801808395E09183D2823B
:1032F00013821582148217821682808712861186A5
:1033000081E083871586148686878787108A118ACD
:10331000138A128A158A148A88EE93E0978B868B1B
:1033200080E991E0918F808F128E138E148E158E0E
:10333000178E168E11A210A262E084E00E9442173E
:10334000F801818187FD03C062E00E944217F80105
:10335000828187FD03C062E00E944217F8018081EC
:103360000E94EA16F801238130E08217930721F4C6
:1033700083E090E097838683F80181810E94EA16BA
:10338000F801238130E08217930739F48681978111
:10339000F1E08F27F8019783868310931B03009336
:1033A0001A0380E1809381001092800080E49FE105
:1033B000909387008093860081E18093810083ED64
:1033C0009CE0909319038093180381E080936F0031
:1033D0008FEF9FEF9093220380932103E0911A03D4
:1033E000F0911B031386128611868091E60290915C
:1033F000E702892B11F52091CD023091CE02C9014F
:10340000079697FD079623E0959587952A95E1F70E
:103410002091CB023091CC02AC01429FC001439F6E
:10342000900D529F900D11240E94BC1D9093E702B5
:103430008093E602892B09F41CC10E947A138091C3
:10344000CD029091CE02813291050CF420C2AC01E4
:103450004054510957FF02C04F5F5F4F5595479544
:103460006091CB027091CC026255710977FF02C066
:103470006F5F7F4F7595679510E4E12EF12C02E5A3
:1034800010E023ED37E087EC92E00E94F11282E039
:103490008093E9028091E4029091E502892B09F47E
:1034A00015C28091CD029091CE02809709F40CC292
:1034B0008DE38093E8021092170310921603109286
:1034C0000702109229021092050281E08093040203
:1034D0001092DF0161E082E10E94131761E083E155
:1034E0000E9413178091B9008E7F8093B90080915C
:1034F000B9008D7F8093B90088E48093B80085E49B
:103500008093BC0087E498E09093150380931403A4
:1035100088E498E090931303809312038091EF0264
:1035200087FD1EC061E00E94421761E08091EF02BA
:103530000E94131761E070E080E090E00E947E1727
:1035400060E08091EF020E9413176AE070E080E073
:1035500090E00E947E1761E08091EF020E941317B5
:103560008091E4029091E502892B09F46EC22091CA
:10357000FE023091FF02409100035091010360E090
:1035800074E284EF90E00E94941DDA01C901409733
:10359000A109B109B695A795979587958093B8002D
:1035A00064E08FEE95E00E9404116091CD026150BD
:1035B00087EC92E00E94910E64E08BEE95E00E9411
:1035C00004118091E902813009F456C264E187EC6C
:1035D00092E00E94910E64E087EE95E00E94041153
:1035E0008091CB029091CC028038910509F057C2AE
:1035F0008091CD029091CE028032910509F03EC2B9
:1036000064E083EE95E00E94041169ED87EC92E09E
:103610000E94910E8091E902813009F45CC261EF51
:1036200087EC92E00E94910E66E087ED95E00E94A3
:1036300004118091E4029091E502892B09F44DC2B6
:10364000209102033091030340910403509105033C
:1036500060E074E284EF90E00E94941DDA01C901F9
:103660004097A109B109B695A7959795879580933D
:10367000B8000E947A13EE24E394F12C00E110E0EC
:1036800020E830E040E150E060E070E087EC92E05C
:103690000E9446090E94B911EAE02E2E312C412CDD
:1036A000512CF4E18F2E912CAA24A394B12CBAE0D2
:1036B0006B2E712CE0911A03F0911B03F894248176
:1036C00035818085823021F4C9018170992706C037
:1036D0008085843031F4C901837099279583848370
:1036E00002C0158214828085843021F43595279597
:1036F000359527958085823011F4359527958385FA
:10370000882329F081859285892F992702C080E03E
:1037100090E037FF03C08095909506C0232B11F0F1
:10372000019602C080E090E07894209123033091CC
:103730002403820F931F90932403809323032091EB
:103740002103309122038217930709F454C0909308
:1037500022038093210366E571E08AE292E00E94F1
:10376000F50D20912303309124036901330FEE08F6
:10377000FF08F7FE20C06DE28AE292E00E94DF06B9
:1037800022273327A9012C193D094E095F0919A2E7
:103790008E010F5D1F4FCA01B901A20191010E9464
:1037A000941D605DF80162938F012115310541057B
:1037B000510589F715C0A701960119A28E010F5D69
:1037C0001F4FCA01B901A20191010E94941D605DC1
:1037D000F80162938F01211531054105510589F7E3
:1037E000B8018AE292E00E94F50D66E671E08AE295
:1037F00092E00E94F50D0E947A1380E2E82EF12CEF
:1038000000E810E023E93AE040E050E060E070E0DA
:1038100087EC92E00E94F1129092D4028092D3023F
:103820001092D6021092D502B092DA02A092D9027A
:10383000B092D802A092D702F1E0F093DB02F093AD
:10384000DC0269E671E087EC92E00E94F50D90924F
:10385000D4028092D3027092D6026092D502B092C6
:10386000DA02A092D902B092D802A092D70221E047
:103870002093DB022093DC0262E771E087EC92E0A8
:103880000E94F50D0E94B9110E944E0713CFAC01A2
:103890004052510957FF02C04F5F5F4F5595479502
:1038A0006091CB027091CC026357710977FF02C01F
:1038B0006F5F7F4F75956795F0E2EF2EF12C03E770
:1038C00010E023EF35E0DFCD8CE3F3CD61E08091B4
:1038D000ED020E94421761E08091EE020E944217C1
:1038E0008091ED02082E000C990BFC01EA57FF4F66
:1038F000E491F0E0EE0FFF1FEE58FF4F2591349159
:103900003093F5022093F402FC01E656FF4FE49158
:10391000E093FA028091EE02082E000C990BFC0154
:10392000EA57FF4FE491F0E0EE0FFF1FEE58FF4F14
:10393000A591B491B093F702A093F602FC01E6566C
:10394000FF4FE491E093FB028C91E82BEC93809184
:10395000E2029091E302892B09F434C01FB7F89476
:1039600080912003811127C0E0E9F0E08491E4EA2E
:10397000F0E09491E82FF0E0EE0FFF1FE859FF4FC1
:10398000A591B491EC91E92321F461E08AE00E94D1
:10399000131761E08AE00E9442178CB580618CBDEC
:1039A0008CB580648CBD61E08DE00E94421761E0BF
:1039B0008BE00E944217809120038F5F8093200349
:1039C0001FBFACCD61E08091EB020E94421761E025
:1039D0008091EC020E9442178091EB02082E000CAD
:1039E000990BFC01EA57FF4FE491F0E0EE0FFF1F47
:1039F000EE58FF4F259134913093F1022093F0025D
:103A0000FC01E656FF4FE491E093F8028091EC024E
:103A1000082E000C990BFC01EA57FF4FE491F0E0EF
:103A2000EE0FFF1FEE58FF4FA591B491B093F30234
:103A3000A093F202FC01E656FF4FE491E093F902F5
:103A40008C91E095E823EC9369CD8091E20290910E
:103A5000E302892B31F08091FC029091FD020E94DB
:103A6000F40EE091F602F091F70290818091FB0252
:103A700080958923808394CD60E1A9CD8034910520
:103A800009F0C3CD63E080EE95E00E9404118091BF
:103A9000E902813011F06FEC19C06FE917C0803670
:103AA000910509F0B2CD8091CD029091CE02409760
:103AB00009F0ABCD63E08DED95E00E94041180919B
:103AC000E902813011F06FEA01C060E187EC92E019
:103AD0000E94910E9ACD62E2A3CDE091F602F091A0
:103AE000F70290818091FB02892B80838091E20212
:103AF0009091E302892B09F4BCCD0E94890EB9CDC7
:103B0000AA1BBB1B51E107C0AA1FBB1FA617B70703
:103B100010F0A61BB70B881F991F5A95A9F780951F
:103B20009095BC01CD010895A1E21A2EAA1BBB1BE2
:103B3000FD010DC0AA1FBB1FEE1FFF1FA217B30779
:103B4000E407F50720F0A21BB30BE40BF50B661F8F
:103B5000771F881F991F1A9469F760957095809553
:103B600090959B01AC01BD01CF010895EE0FFF1FA1
:103B70000590F491E02D09940F931F93CF93DF9359
:103B80008230910510F482E090E0E0912C03F091F6
:103B90002D0320E030E0A0E0B0E0309719F1408143
:103BA00051810281138148175907C8F0841795077E
:103BB00069F4109731F012960C93129713961C9398
:103BC00027C000932C0310932D0322C0211531052B
:103BD00019F04217530718F49A01BD01EF01DF01F4
:103BE000F801DBCF21153105F9F0281B390B243002
:103BF000310580F48A819B816115710521F0FB01FB
:103C00009383828304C090932D0380932C03FE0141
:103C1000329644C0FE01E20FF31F8193919322502C
:103C20003109398328833AC020912A0330912B032C
:103C3000232B41F4209102013091030130932B0397
:103C400020932A03209100013091010121153105B3
:103C500041F42DB73EB74091040150910501241B5A
:103C6000350BE0912A03F0912B03E217F307A0F440
:103C70002E1B3F0B2817390778F0AC014E5F5F4FC2
:103C80002417350748F04E0F5F1F50932B034093C6
:103C90002A038193919302C0E0E0F0E0CF01DF912D
:103CA000CF911F910F910895CF93DF93009709F45F
:103CB00081C0FC01329713821282A0912C03B09133
:103CC0002D03109781F420813181820F931F209161
:103CD0002A0330912B032817390751F5F0932B0352
:103CE000E0932A0367C0ED0120E030E0CE17DF0744
:103CF00040F44A815B819E0141155105F1F0EA01D2
:103D0000F5CFD383C28340815181840F951FC8179B
:103D1000D90759F488819981840F951F0296918360
:103D200080838A819B81938382832115310529F4C5
:103D3000F0932D03E0932C033DC0E901FB83EA835C
:103D400049915991C40FD51FEC17FD0761F480818B
:103D50009181840F951F0296E9019983888382815E
:103D600093819B838A83E0E0F0E012968D919C9191
:103D70001397009719F0FD01DC01F7CF8D919C910D
:103D800011979D012E5F3F4F820F931F20912A03B1
:103D900030912B032817390769F4309729F41092D2
:103DA0002D0310922C0302C013821282B0932B03B6
:103DB000A0932A03DF91CF91089581E090E0F894D9
:103DC0000C94E91EDC0101C06D9341505040E0F7B6
:103DD000089516E0CBE4D6E004C0FE010E94B61DB3
:0C3DE0002196CC34D107C9F7F894FFCF2E
:103DEC0000002E03200000000000DF06B817760646
:103DFC002C07A7068506990600000000A208750886
:103E0C00690B49086D0859084A0800000000FB0BB3
:103E1C00B817690B680B58074908AF0A870AA30A39
:103E2C00970AB60A4908D208F70E6C0BB00BD009EA
:103E3C00B3094609E708456E636F646572205661E5
:103E4C006C75653A20000D0A0046656564206E6F3E
:0C3E5C0077005363686564756C650000B6
:00000001FF
