:100000000C944C050C9474050C9474050C947405B4
:100010000C9474050C9474050C9474050C9474057C
:100020000C9474050C9474050C9474050C9474056C
:100030000C9474050C9459140C9474050C94740568
:100040000C9470100C9474050C9427140C940114E7
:100050000C9474050C9474050C9474050C9474053C
:100060000C943B0E0C947405DB40A4A62EAFDA0270
:1000700081DA1281DA02818F2000A1C8D300408D7D
:10008000AED580A800006000000000000000000065
:100090000000000000E00000000000000000000080
:1000A00000000001E000000000000000000000006F
:1000B000000001F00000000000000000000000004F
:1000C0000003F0000000000000000000000000003D
:1000D00007F0000000000000000000000000000722
:1000E000F8000000000000000000000000000FF811
:1000F00000000003C0007E000001E0007F0FF80058
:10010000000003C000FE000001E000FFEFF8000067
:100110000003C000FE000001E000FFFFF800000047
:1001200003C000F00000000F007FFE7FC00000034E
:10013000C000F00000000F003FFE7FF83FF1FBCF52
:10014000FCFEF3BC3DEFE01FFE7FFF7FFBFFDFFE09
:10015000FEFFBC3DEFE01FC6FFFF7FFBFFDFFEFEA3
:10016000FFBC3DEFE00FE3C7FE787BC3DE1EF0FF70
:10017000BC3DEF0007FF87FC787BC3DE1EF0F83C38
:100180003DEF0001FFFFF0007BC3C01EF0F03C3DDF
:10019000EF0001F37FE03FFBC3CFFEF0F03C3DEF0B
:1001A0000003E33F807FFBC3DFFEF0F03C3DEF0048
:1001B00007E73C00787BC3DE1EF0F03C3DEF000714
:1001C000FFBE00787BC3DE1EF0F03C3DEF0007FF72
:1001D000FE00787BC3DE1EF0F03C3DEF000FFFFE1B
:1001E000007FFBFFDFFEF0F03FFDEFE00FFFFF00C1
:1001F0007FFBFFDFFEF0F03FFDEFE00FF9FF003E79
:1002000079F9CF9EF0F01F3DE7E01FF1FF000000FD
:100210000000000000000000001F80FF007FFFFFC3
:10022000FFFFFFFFFFFFFFE01C007F007FFFFFFFDE
:10023000FEB46D888D18E000001F007FFFFFFFFEF9
:1002400095AD7DB577E000000F007FFFFFFFFEA5B5
:10025000AD9D8D19E0000006007FFFFFFFFEB5ADEC
:10026000EDB57EE00000000000018000000000000D
:1002700000000000038000000000000000000007F4
:10028000C000000000000000000007C000000000E7
:1002900000000000000FC00000000000000000008F
:1002A0001FE00000000000000000001FE000000050
:1002B0000000000000003FE000000000000000001F
:1002C000003FF00000000000000000007FF0000090
:1002D00000000000001FF87FF00000000000000098
:1002E0003FFE7FF0000000000000003FFF7FF000B5
:1002F0000000000000001FFFFBE000000000000005
:10030000000FFFF9FFC00000000000000FFFF9FF21
:10031000F800000000000007FFF1FFFF00000000F0
:10032000000003FC73FFFF80000000000001FE3F9F
:10033000FFFF80000000000000FF1E0FFF00000014
:10034000000000007FFE1FFC000000000000003FD6
:10035000FFFFF8000000000000000FDFFFE00000DA
:1003600000000000001F19FFC00000000000000096
:100370003F3CFF00000000000000007E7CF8000011
:100380000000000000007FFE7C0000000000000074
:1003900000FFFFFC0000000000000000FFFFFE0067
:1003A00000000000000000FFFFFE00000000000051
:1003B0000001FFEFFE0000000000000001FFCFFE83
:1003C0000000000000000003FF07FE000000000026
:1003D000000003FC07FE0000000000000003F00323
:1003E000FE00000000000000018000FE0000000090
:1003F0000000000000007E0000000000000000007F
:10040000003E000000000000000000000C000000A2
:10041000000000078000FC000003C000000007800F
:1004200001FC000003C0000000078001FC00000385
:10043000C0000000078001E00000001E000000076F
:100440008001E00000001E007FE3F79FF9FDE778E0
:100450007BDFC0FFF7FFBFFDFDFF787BDFC0FFF74D
:10046000FFBFFDFDFF787BDFC0F0F787BC3DE1FFFC
:10047000787BDE00F0F787BC3DE1F0787BDE0000A2
:10048000F787803DE1E0787BDE007FF7879FFDE125
:10049000E0787BDE00FFF787BFFDE1E0787BDE00E0
:1004A000F0F787BC3DE1E0787BDE00F0F787BC3DEC
:1004B000E1E0787BDE00F0F787BC3DE1E0787BDEB1
:1004C00000FFF7FFBFFDE1E07FFBDFC0FFF7FFBFED
:1004D000FDE1E07FFBDFC07CF3F39F3DE1E03E7B8D
:1004E000CFC00000000000000000000000FFFFFF80
:1004F000FFFFFFFFFFFFFFC0FFFFFFFFFD68DB11F6
:100500001A31C0FFFFFFFFFD2B5AFB6AEFC0FFFF50
:10051000FFFFFD4B5B3B1A33C0FFFFFFFFFD6B5B33
:10052000DB6AFDC02200FF2100000000002400273C
:10053000002A0000000000250028002B0000000019
:100540000023002600290004040404040404040217
:100550000202020202030303030303010204081060
:10056000204080010204081020010204081020002D
:100570000000080002010000030407000000000062
:10058000000000000103070F1F3F7F0080C0E0F064
:10059000F8FCFE00000000003E5B4F5B3E3E6B4FF0
:1005A0006B3E1C3E7C3E1C183C7E3C181C577D5705
:1005B0001C1C5E7F5E1C00183C1800FFE7C3E7FFB1
:1005C0000018241800FFE7DBE7FF30483A060E2644
:1005D00029792926407F050507407F05253F5A3C9C
:1005E000E73C5A7F3E1C1C08081C1C3E7F14227FDF
:1005F00022145F5F005F5F06097F017F00668995B7
:100600006A606060606094A2FFA29408047E04089F
:1006100010207E201008082A1C08081C2A08081E22
:10062000101010100C1E0C1E0C30383E3830060E08
:100630003E0E06000000000000005F000000070002
:100640000700147F147F14242A7F2A1223130864BE
:100650006236495620500008070300001C22410062
:100660000041221C002A1C7F1C2A08083E080800A2
:100670008070300008080808080000606000201042
:100680000804023E5149453E00427F4000724949FC
:1006900049462141494D331814127F1027454545DD
:1006A000393C4A49493141211109073649494936FE
:1006B000464949291E000014000000403400000093
:1006C00008142241141414141400412214080201C5
:1006D0005909063E415D594E7C1211127C7F4949F1
:1006E00049363E414141227F4141413E7F4949498E
:1006F000417F090909013E414151737F0808087F84
:1007000000417F41002040413F017F081422417F8A
:10071000404040407F021C027F7F0408107F3E4122
:1007200041413E7F090909063E4151215E7F091979
:100730002946264949493203017F01033F40404091
:100740003F1F2040201F3F4038403F631408146380
:1007500003047804036159494D43007F414141023C
:1007600004081020004141417F040201020440407E
:10077000404040000307080020545478407F28443C
:1007800044383844444428384444287F3854545426
:100790001800087E090218A4A49C787F0804047835
:1007A00000447D40002040403D007F102844000070
:1007B000417F40007C047804787C08040478384445
:1007C000444438FC1824241818242418FC7C0804F9
:1007D0000408485454542404043F44243C4040201A
:1007E0007C1C2040201C3C4030403C4428102844C5
:1007F0004C9090907C4464544C4400083641000076
:1008000000770000004136080002010204023C2685
:1008100023263C1EA1A161123A4040207A3854544C
:1008200055592155557941225454784221555478CF
:100830004020545579400C1E527212395555555965
:10084000395454545939555454580000457C41008A
:1008500002457D420001457C407D1211127DF02849
:100860002528F07C545545002054547C547C0A09BA
:100870007F4932494949323A4444443A324A484825
:10088000303A4141217A3A42402078009DA0A07D33
:100890003D4242423D3D4040403D3C24FF242448EF
:1008A0007E4943662B2FFC2F2BFF0929F620C08899
:1008B0007E090320545479410000447D413048486A
:1008C0004A32384040227A007A0A0A727D0D193184
:1008D0007D2629292F28262929292630484D4020E0
:1008E000380808080808080808382F10C8ACBA2FBC
:1008F000102834FA00007B000008142A1422221465
:100900002A14085500550055AA55AA55AAFF55FFA7
:1009100055FF000000FF00101010FF00141414FF1A
:10092000001010FF00FF1010F010F0141414FC0061
:100930001414F700FF0000FF00FF1414F404FC146B
:100940001417101F10101F101F1414141F00101064
:1009500010F0000000001F101010101F10101010D9
:10096000F010000000FF101010101010101010FFF9
:1009700010000000FF140000FF00FF00001F101710
:100980000000FC04F414141710171414F404F400F9
:1009900000FF00F714141414141414F700F71414BF
:1009A00014171410101F101F141414F4141010F046
:1009B00010F000001F101F0000001F14000000FCBA
:1009C000140000F010F01010FF10FF141414FF14A6
:1009D0001010101F00000000F010FFFFFFFFFFF0DD
:1009E000F0F0F0F0FFFFFF0000000000FFFF0F0F2E
:1009F0000F0F0F3844443844FC4A4A4A347E0202FE
:100A00000606027E027E0263554941633844443C37
:100A100004407E201E2006027E020299A5E7A599C9
:100A20001C2A492A1C4C7201724C304A4D4D303000
:100A300048784830BC625A463D3E494949007E01EB
:100A400001017E2A2A2A2A2A44445F444440514A0A
:100A5000444040444A51400000FF0103E080FF0051
:100A60000008086B6B083612362436060F090F068D
:100A7000000018180000001010003040FF010100B5
:100A80001F01011E00191D1712003C3C3C3C0000D8
:100A9000000000009125872011241FBECFEFD8E071
:100AA000DEBFCDBF24E0A2EAB1E001C01D92A331B8
:100AB000B207E1F711E0A0E0B1E0E6E9F9E502C034
:100AC00005900D92A23AB107D9F715E0CBE4D5E035
:100AD00004C02197FE010E94B229CA34D107C9F788
:100AE0000E9496200C94BE2C0C94000085ED8093FF
:100AF000BC008091BC0084FDFCCF1092560208958A
:100B00004091E401262F30E0240F311D21323105C0
:100B1000DCF4209156022430C9F4FC0180E090E01E
:100B2000861758F43091E4012191DC01AC53BE4F9B
:100B3000A30FB11D2C930196F3CF8091E401680FB0
:100B40006093E40180E0089581E0089582E00895D3
:100B5000089508950895E0910C0280910B02E81722
:100B600030F4F0E0EC55FE4F808190E008958FEF77
:100B70009FEF089590910C0280910B02981750F40A
:100B8000E92FF0E0EC55FE4F208130E09F5F90931D
:100B90000C0202C02FEF3FEFC901089580910B02B4
:100BA00090E020910C02821B91090895CF92DF9270
:100BB000EF92FF920F931F93CF93DF937C01CB01B2
:100BC0008A0120915702222389F0EB016B01C40EA8
:100BD000D51ECC15DD0569F06991D701ED91FC9129
:100BE0000190F081E02DC7010995F3CF642F0E9499
:100BF0008005C801DF91CF911F910F91FF90EF9079
:100C0000DF90CF900895CF93DF931F92CDB7DEB7DB
:100C10006983209157022223D1F020917A02203259
:100C200040F021E030E0FC013383228380E090E05B
:100C300015C080915802E82FF0E0E75AFD4F9981E6
:100C400090838F5F8093580280937A0205C061E0A1
:100C5000CE0101960E94800581E090E00F90DF9127
:100C6000CF9108950895FC016370668B848195810E
:100C700026813781613039F0633029F09187808790
:100C80003387228708953187208793878287089545
:100C90006F927F928F929F92AF92BF92CF92DF928C
:100CA000EF92FF920F931F93CF93DF93EC014B01D1
:100CB0005A0169013801E881F9810284F385E02D48
:100CC0000995E881F9810288F389E02D8701960171
:100CD000A501B401CE010995A501460D571D41504E
:100CE0005109E881F9810288F389E02D9601B40168
:100CF000CE010995E881F9810088F189E02D930101
:100D0000A501B401CE010995C80CD91CB6016150EA
:100D10007109E881F9810088F189E02D9301A5012D
:100D2000CE010995E881F9810688F789E02DCE0189
:100D3000DF91CF911F910F91FF90EF90DF90CF90B7
:100D4000BF90AF909F908F907F906F9009948F92FB
:100D50009F92AF92BF92CF92DF92EF92FF920F934A
:100D60001F93CF93DF934C016B015A01E901DC0122
:100D7000ED91FC916217730781F40417150724F4B1
:100D80008B2D5801042F182F0A191B0998012F5F6A
:100D90003F4F048CF58DE02D12C04017510709F527
:100DA0002617370724F48D2D6901C62FD82F9E01F1
:100DB0002C193D092F5F3F4F068CF78DE02D8701E1
:100DC000A501B601C4010995DF91CF911F910F9143
:100DD000FF90EF90DF90CF90BF90AF909F908F905B
:100DE00008950284F385E02D0995D401ED91FC91DD
:100DF0000488F589E02D9E01A501B601C40109957D
:100E0000D401ED91FC910688F789E02DC401DF91B2
:100E1000CF911F910F91FF90EF90DF90CF90BF90F7
:100E2000AF909F908F900994EF92FF920F931F9332
:100E3000DC011A960D911C911B9718962D913C91EF
:100E40001997ED91FC9100A0F1A1E02D7B0140E00C
:100E500050E060E070E009951F910F91FF90EF90D6
:100E600008954F925F926F927F928F929F92AF926E
:100E7000BF92CF92DF92EF92FF920F931F93CF9387
:100E8000DF936C012B015A0139014801DC01ED911E
:100E9000FC910284F385E02D0995E201640C751C38
:100EA000D601ED91FC91C615D7055CF40088F18957
:100EB000E02D87019401A501BE01C6010995219687
:100EC000EFCF0688F789E02DC601DF91CF911F9102
:100ED0000F91FF90EF90DF90CF90BF90AF909F90D9
:100EE0008F907F906F905F904F9009948F929F9218
:100EF000AF92BF92CF92DF92EF92FF920F931F9328
:100F0000CF93DF93EC015B014A016901E881F9812C
:100F10000284F385E02D099595012C0D3D1D21508E
:100F20003109E881F9810488F589E02D780184018F
:100F3000A401B501CE010995E881F9810688F789F8
:100F4000E02DCE01DF91CF911F910F91FF90EF9097
:100F5000DF90CF90BF90AF909F908F9009948F9229
:100F60009F92AF92BF92CF92DF92EF92FF920F9338
:100F70001F93CF93DF93EC015B014A016901780174
:100F8000E881F9810284F385E02D0995C80CD91C0C
:100F9000860101501109E881F9810488F589E02D65
:100FA0009501A401B501CE010995E881F981068872
:100FB000F789E02DCE01DF91CF911F910F91FF9026
:100FC000EF90DF90CF90BF90AF909F908F9009945B
:100FD000EF92FF920F931F93DC01ED91FC9100A023
:100FE000F1A1E02D09951F910F91FF90EF900895C9
:100FF0000F931F93DC01ED91FC91068CF78DE02D92
:1010000009951F910F9108950F931F93DC01ED91A6
:10101000FC91048CF58DE02D09951F910F91089599
:10102000DC01ED91FC910084F185E02D09942F9273
:101030003F924F925F926F927F928F929F92AF9268
:10104000BF92CF92DF92EF92FF920F931F93CF93B5
:10105000DF9300D000D000D0CDB7DEB72C017E8367
:101060006D836A015901C801FC82EB824801841A30
:10107000950A97FE03C091948194910835012D81C2
:101080003E81621A730A77FE03C0719461947108FD
:10109000681479045CF43A2D2B2D5C01832F922F78
:1010A0003D812E81DE82CD82C32ED22EAD81BE81C6
:1010B000AA16BB065CF43C2D2D2D6C01832F922FBC
:1010C0003D812E81BE82AD82A32EB22E85012D815F
:1010D0003E81021B130B1C012C183D0837FE03C078
:1010E000319421943108780117FF03C03FEFE31AD0
:1010F000F30AF594E794C816D9062CF08FEF9FEF0A
:101100009A83898304C0A1E0B0E0BA83A9832D81CA
:101110003E81A216B30624F1D201ED91FC91048424
:10112000F585E02D2B813C816814790424F44D81F0
:101130005E81B60103C0A6016D817E81C201099561
:10114000E218F308F7FE06C029813A81C20ED31EC9
:10115000E00EF11E8D819E8101969E838D83D7CFF7
:1011600026960FB6F894DEBF0FBECDBFDF91CF91AC
:101170001F910F91FF90EF90DF90CF90BF90AF90B5
:101180009F908F907F906F905F904F903F902F90A7
:101190000895089580E090E008958F929F92AF9215
:1011A000CF92EF92FF920F931F93CF93DF93EC01B7
:1011B000262F898D9A8D009709F042C06A3059F424
:1011C0001D861C862D898E859F8538E0239F800D86
:1011D000911D112443C06D3009F4AAC08F89882362
:1011E000C9F03C898C859D8546E0349F800D911D1A
:1011F0001124488559854817590764F41D861C86B3
:101200003D898E859F8548E0349F800D911D112476
:101210009F878E87EA88FB88088919894E855F85B4
:101220006C857D85AD88CC88CE010E94381C2C89C8
:101230008C859D8536E0239F800D911D11243EC035
:101240006A3079F41D861C862D89FC013696E4915E
:101250008E859F852E9F800D911D11249F878E87DF
:1012600067C06D3009F464C0FC0134963491631793
:1012700008F45EC03196E491E61708F459C0462F91
:10128000431B342FFC0132968590949047E0349FA5
:10129000800C911C1124F401329634913196E49122
:1012A000332311F0E1110DC0F4013496E4912C893F
:1012B0008C859D85E29F800D911D11249D878C87D3
:1012C00037C0F401359644915F89552319F15C8943
:1012D000E32FF0E0E40FF11D47FDFA955E9FB001AA
:1012E0005F9F700D11244C855D85460F571F6885E3
:1012F00079856417750774F41D861C863D89FC0189
:101300003696E4918E859F853E9F800D911D112418
:101310009F878E87EA88FB88088919894E855F85B3
:101320006C857D85AD88CC88CE010E94381CBCCFF1
:1013300081E090E0DF91CF911F910F91FF90EF90AE
:10134000CF90AF909F908F9008954F925F926F9241
:101350007F928F929F92AF92BF92CF92DF92EF9245
:10136000FF920F931F93CF93DF9300D000D000D054
:10137000CDB7DEB70E94741A0E941B1860E771E0B7
:101380008CEB93E00E94EC130E943C1960E771E043
:101390008BE792E00E94EC136CE771E08BE792E040
:1013A0000E94EC1381E090E090939903809398035E
:1013B000109262031092630310926403109265030B
:1013C00080ED97E0A0E0B0E08093840390938503E4
:1013D000A0938603B0938703109280031092810339
:1013E000109282031092830310925E0310925F03A7
:1013F000109260031092610380917A0390917B03B5
:10140000A0916A03B0916B03BA83A983019709F095
:10141000DFC0BD01BB0F880B990B0E94E027209114
:1014200076033091770340917803509179030E94BD
:101430001B2820E030E040E752E40E94B8294B012D
:101440005C016091740370917503072E000C880B8A
:10145000990B0E94E0276B017C0100917C031091A5
:101460007D03A5019401C501B4010E941B282B0135
:101470003C01B801660F771F072E000C880B990BF3
:101480000E94E0279B01AC01C301B2010E94B82970
:10149000A70196010E941B280E942A2A2B013C01C9
:1014A000609388037093890380938A0390938B03DE
:1014B000E0917E03F0917F03FE83ED83C801012E4E
:1014C000000CAA0BBB0B89839A83AB83BC839C0162
:1014D000AD01C301B2010E942A299F01FF0F440BF5
:1014E000550B0E94842920938C0330938D034093E5
:1014F0008E0350938F03D301C201820F931FA41F49
:10150000B51F813D9740A105B1053CF120ED37E0C5
:10151000AD81BE810E94A3299D01200F311F032EA2
:10152000000C440B550B0E948429209388033093B0
:10153000890340938A0350938B0380ED97E0A0E0EA
:10154000B0E0821B930BA40BB50B80938C0390939C
:101550008D03A0938E03B0938F0369817A818B8171
:101560009C810E94E0279B01AC0160E070E080E07C
:1015700090E40E94B829A70196010E94B8290E9410
:10158000662A20E03AE045E259E40E941B280E94C6
:101590002A2A60939003709391038093920390930F
:1015A0009303A501940160E074E284E799E40E944A
:1015B000B829A70196010E94B8290E942A2A60939F
:1015C00094037093950380939603909397035DC063
:1015D000109288031092890310928A0310928B0351
:1015E00010928C0310928D0310928E0310928F0331
:1015F00020917603309177034091780350917903DD
:1016000060EC71EE84E69CE40E94B8296B017C01D9
:1016100029813A81B901330F880B990B0E94E02789
:101620009B01AC01C701B6010E94B8296B017C0186
:101630006091740370917503072E000C880B990B51
:101640000E94E0279B01AC01C701B6010E94B829A6
:101650000E942A2A609394037093950380939603C3
:101660009093970397FD09C0609390037093910343
:10167000809392039093930308C01092900310926A
:10168000910310929203109293038091840390919E
:101690008503A0918603B0918703181619061A06D0
:1016A0001B060CF0E4C08090660390906703A09046
:1016B0006803B090690381149104A104B10439F561
:1016C0006091980380916C030E94B11F61E080914A
:1016D0006E030E94B11F0E941C2069837A838B8352
:1016E0009C83C0909003D0909103E0909203F0907F
:1016F00093038091840390918503A0918603B09118
:101700008703181619061A061B0604F178C0C09044
:101710006203D0906303E0906403F0906503C1140A
:10172000D104E104F10421F40E941C206B017C012E
:101730000E941C20DC01CB018C199D09AE09BF0958
:1017400088159905AA05BB0598F3BACF9C01AD0190
:1017500021503109410951092093840330938503B5
:101760004093860350938703809180039091810377
:10177000A0918203B09183030196A11DB11D8093B6
:10178000800390938103A0938203B09383036091BD
:101790007A0370917B036130710589F5211531055C
:1017A0004105510561F140908C0350908D0360908C
:1017B0008E0370908F0342165306640675060CF074
:1017C0008AC0409188035091890360918A03709187
:1017D0008B03481759076A077B078CF0C4C08091B8
:1017E000940390919503A0919603B09197038093F1
:1017F000900390939103A0939203B09393030E945C
:101800001C202B013C010E941C204616570668062E
:101810007906C9F360E080916E030E94B11F0E94B7
:101820001C2060936203709363038093640390931E
:101830006503A981BA816A1B7B0BCB01A0E0B0E0F4
:101840008C159D05AE05BF0528F4C81AD90AEA0A09
:10185000FB0A04C0C12CD12C7601C394C09266034C
:10186000D0926703E0926803F092690310C010926F
:101870006203109263031092640310926503109246
:1018800066031092670310926803109269038091B7
:10189000660390916703A0916803B0916903892B57
:1018A0008A2B8B2B09F0F1CE26960FB6F894DEBF6B
:1018B0000FBECDBFDF91CF911F910F91FF90EF90A1
:1018C000DF90CF90BF90AF909F908F907F906F9060
:1018D0005F904F90089540905E0350905F0360903A
:1018E000600370906103ACEFBFEF0E94AD294B0124
:1018F0005C01BFEF8B1A9B0AAB0ABB0AD701C6017A
:10190000880F991FAA1FBB1FBC01CD01640D751D57
:10191000861D971DA50194010E948429D701C60147
:10192000821B930BA40BB50B8093900390939103B0
:10193000A0939203B0939303880F991FAA1FBB1F14
:10194000BC01CD01640D751D861D971DA501940177
:101950000E94842960935E0370935F038093600309
:10196000909361034CCF84179507A607B7070CF037
:1019700036CF40905E0350905F036090600370909C
:10198000610352E0880F991FAA1FBB1F5A95D1F718
:101990004C015D013FEF831A930AA30AB30AAECF4D
:1019A000CF92DF92EF92FF920F931F93CF9380918C
:1019B0009A0387FD69C090919B0397FD65C0909144
:1019C000A5039923A1F02091A3033091A4032250F1
:1019D00031093093A4032093A3032091A3033091F2
:1019E000A40337FF04C01092A4031092A3030E9423
:1019F000881F20919D0330E08217930711F4C3E004
:101A000001C0C0E080919B030E94881F20919D032C
:101A100030E08217930711F481E0C8278091A0037A
:101A20009091A1038C1B80FF18C02C2FCC0F330B7F
:101A30003093A1032093A00320919E0330919F0334
:101A40008270082E000C990B0197820F931F9093C0
:101A50009F0380939E0381E001C080E09091A503E5
:101A6000992391F0882381F08091A3039091A4039E
:101A7000883E9B4048F48091A3039091A40349962B
:101A80009093A4038093A3030E947B200091B4034E
:101A90001091B5032091B6033091B7036017710719
:101AA0008207930740F41092B4031092B50310928A
:101AB000B6031092B70340919C0314163CF04111F9
:101AC000D2C02091AA03222309F4CDC00091B4030F
:101AD0001091B5032091B6033091B7036B017C01DF
:101AE000C01AD10AE20AF30A970186010A301105E9
:101AF0002105310508F4B7C06093B4037093B503B2
:101B00008093B6039093B7039091AB03842F9923EE
:101B100031F14E3008F08E508770806480937C00E5
:101B200080917A00806480937A0080917A0086FDAB
:101B3000FCCF809178002091790090E0922B209149
:101B4000B8033091B9038217930784F021E04091E4
:101B5000BA035091BB03481759074CF005C00E94C7
:101B6000881F21E0892B19F420E001C021E0309189
:101B70009D0332131EC0E091AC03F091AD0331968A
:101B8000F093AD03E093AC038091B0039091B10367
:101B90006AE070E00E943A296E177F0750F4809146
:101BA000A903882331F083E090E09093A70380930A
:101BB000A60381E08327821343C08091AC039091F8
:101BC000AD030297C8F18091A6039091A7030397F4
:101BD00019F484E090E014C02091AE033091AF037B
:101BE00022303105B0F08091B2039091B3036AE0E6
:101BF00070E00E943A2926173707F0F486E090E05B
:101C00009093A7038093A6031092AF031092AE03A4
:101C100013C08091A803882349F08091B20390916A
:101C2000B3036AE070E00E943A2902C061E070E00C
:101C30007093AF036093AE031092AD031092AC03A8
:101C40008091AE039091AF03009769F00197909354
:101C5000AF038093AE03892B31F485E090E090933D
:101C6000A7038093A603CF911F910F91FF90EF9050
:101C7000DF90CF9008951F920F920FB60F9211240C
:101C80002F933F934F935F936F937F938F939F9384
:101C9000AF93BF93EF93FF938091B900887F803615
:101CA00009F49CC068F5883209F45BC090F4803177
:101CB00009F454C038F4882309F4F6C0883009F4D4
:101CC0004DC0F6C0883109F44CC0803209F45DC0C3
:101CD000EFC0803409F468C048F4803309F455C07B
:101CE000883309F0E5C080935402D8C0803509F4E8
:101CF0004FC0883509F45DC0883409F0D9C0D6C01A
:101D0000883909F4C7C0A8F4883709F467C038F4E3
:101D1000883609F463C0803709F460C0C9C08838C8
:101D200009F4B8C0803909F45FC0803809F0C0C038
:101D30005BC0803B09F486C038F4803A09F466C081
:101D4000883A09F47FC0B4C0803C09F4A7C0883C3D
:101D500009F4A4C0883B09F48AC0AAC0809131026A
:101D600010C09091530280915202981770F5E09143
:101D7000530281E08E0F80935302F0E0EE5CFD4F42
:101D800080818093BB0085EC86C0809354028EC016
:101D9000E091530281E08E0F809353028091BB004B
:101DA000F0E0EE5CFD4F80839091530280915202EF
:101DB0006EC0E091530281E08E0F809353028091B8
:101DC000BB00F0E0EE5CFD4F8083809155028111F5
:101DD0006DC081E08093300284EA61C083E080932B
:101DE000560210920602CFCF80910602803208F090
:101DF00051C0E091060281E08E0F8093060280912F
:101E0000BB00F0E0EA51FE4F8083BDCF85EC8093AC
:101E1000BC001092560280910602803230F4E091AC
:101E20000602F0E0EA51FE4F10826091060270E077
:101E3000E0910702F091080286EE91E00995109278
:101E4000060236C084E0809356021092E50110929B
:101E5000E401E0910902F0910A0209958091E40100
:101E6000811105C081E08093E4011092C401E091EA
:101E7000E50181E08E0F8093E501F0E0EC53FE4F29
:101E800080818093BB009091E5018091E4019817D7
:101E900008F479CF85E88093BC000AC085EC809374
:101EA000BC001092560204C0109254020E947605A3
:101EB000FF91EF91BF91AF919F918F917F916F9122
:101EC0005F914F913F912F910F900FBE0F901F90F8
:101ED0001895F89480919E0390919F032091A203FE
:101EE000223021F49C012170332707C02091A203E6
:101EF000243041F49C012370332730939F032093B7
:101F00009E0304C010929F0310929E032091A2038F
:101F1000243021F495958795959587952091A20376
:101F2000223011F4959587952091A503222339F04D
:101F30002091A3033091A403232F332702C020E074
:101F400030E097FF03C02095309507C0892B19F02A
:101F50002F5F3F4F02C020E030E078948091A201D3
:101F60009091A301821B930B9093A3018093A201F4
:101F700020910D0230910E028217930739F0909351
:101F80000E0280930D02821B930B0895F8948091AA
:101F9000A6039091A7032091A6033091A7032330B5
:101FA000310511F0009741F47894882311F09927B6
:101FB000089580E090E008951092A7031092A60380
:101FC000F3CFAF92BF92CF92DF92EF92FF920F9337
:101FD0001F93CF93DF93CDB7DEB728970FB6F89452
:101FE000DEBF0FBECDBF8C017B016FE771E00E94A9
:101FF0009E136FE771E08BE792E00E94EC13CE0135
:1020000001966C019AE0E916F1042CF580E38983CE
:102010001A82D8011496AD90BC901597BFEFAB1AF9
:10202000BB0AB501C8010E94BA10882379F0F801F3
:102030002081318184819581B601820F931F0E9496
:10204000B72CD8011596BC92AE92149760E38BE73B
:1020500092E00E9474114AE0B601C7010E94A927CC
:10206000F60101900020E9F73197EC19FD09E1F044
:10207000D8011496AD90BC901597AE0EBF1EB50159
:10208000C8010E94BA10882379F0F80120813181BB
:1020900084819581B601820F931F0E94B72CD801CD
:1020A0001596BC92AE921497A701FF0C660B770BA6
:1020B0008BE792E00E94941AC80128960FB6F89414
:1020C000DEBF0FBECDBFDF91CF911F910F91FF906B
:1020D000EF90DF90CF90BF90AF9008950E94A22C18
:1020E0001F920F920FB60F9211242F933F938F934D
:1020F0009F93AF93BF938091070490910804A091A0
:102100000904B0910A0430911D0223E0230F2D37FA
:1021100020F40196A11DB11D05C026E8230F0296EB
:10212000A11DB11D20931D02809307049093080404
:10213000A0930904B0930A0480910B0490910C04BD
:10214000A0910D04B0910E040196A11DB11D8093C4
:102150000B0490930C04A0930D04B0930E04BF9154
:10216000AF919F918F913F912F910F900FBE0F9044
:102170001F9018950F931F93CF93DF93EC018881E5
:102180009981009729F02A813B812617370788F427
:102190008B016F5F7F4F0E94DC2B009761F099836A
:1021A00088831B830A832C813D81232B11F4FC013E
:1021B000108281E001C080E0DF91CF911F910F91EB
:1021C0000895CF92DF92EF92FF920F931F93CF93D8
:1021D000DF936C017A018B01C0E0D0E0CE15DF0502
:1021E00081F0D8016D918D01D601ED91FC910190A6
:1021F000F081E02DC6010995892B11F02196EECFD3
:102200007E01C701DF91CF911F910F91FF90EF9059
:10221000DF90CF900895FC01538D448D252F30E041
:10222000842F90E0821B930B541710F0CF960895E3
:1022300001970895FC01918D828D981761F0828D30
:10224000DF01A80FB11D5D968C91928D9F5F9F73EA
:10225000928F90E008958FEF9FEF0895FC01918D8C
:10226000828D981731F0828DE80FF11D858D90E0F9
:1022700008958FEF9FEF0895FC01918D228D892F96
:1022800090E0805C9F4F821B91098F73992708957E
:102290008BE792E00E943C1121E0892B09F420E0B9
:1022A000822F0895FC01848DDF01A80FB11DA35A70
:1022B000BF4F2C91848D90E001968F739927848F66
:1022C000A689B7892C93A089B1898C918370806489
:1022D0008C93938D848D981306C00288F389E02D2A
:1022E00080818F7D80830895EF92FF920F931F93DB
:1022F000CF93DF93EC0181E0888F9B8D8C8D9813B9
:1023000005C0E889F989808185FD26C0F62E0B8DF0
:1023100010E00F5F1F4F0F731127E02E8C8DE81216
:102320000CC00FB607FCFACFE889F989808185FFD8
:10233000F5CFCE010E945211F1CF8B8DFE01E80F37
:10234000F11DE35AFF4FF0829FB7F8940B8FEA8993
:10235000FB89808180620AC09FB7F894EE89FF896B
:102360006083E889F98980818370806480839FBF5E
:1023700081E090E0DF91CF911F910F91FF90EF905E
:102380000895CF93DF93EC01888D8823C9F0EA8903
:10239000FB89808185FD05C0A889B9898C9186FD5E
:1023A0000FC00FB607FCF5CF808185FFF2CFA8895B
:1023B000B9898C9185FFEDCFCE010E945211E7CFF4
:1023C000DF91CF91089580E090E0892B29F00E9461
:1023D000481181110C940000089580E890E0089560
:1023E000EF92FF920F931F93CF93DF938C017B01AA
:1023F000C1E0D0E0D801ED91FC910190F081E02D99
:10240000C80109958C179D0754F0CE15DF0521F4FE
:10241000F801D18FC08F03C0CC0FDD1FEBCFD801E7
:1024200058968D919C915997DF91CF911F910F9163
:10243000FF90EF900895FC0177FDB9C080859185EC
:10244000681779070CF0B3C057FDB1C0828593853A
:10245000481759070CF008958689823079F48481F1
:102460009581DC01A61BB70BBD0161507109868106
:102470009781DC01A41BB50BAD010EC0833009F0C0
:1024800084C064277527CA0186279727682779277C
:1024900046815781481B590B415051092130310564
:1024A00031F048F12230310509F44AC00895CA01DB
:1024B00057FD07969C01A3E035952795AA95E1F76E
:1024C000A481B5812A9FC0012B9F900D3A9F900D4A
:1024D0001124680F791F078CF0A1E02DE60FF71F7C
:1024E0004770552781E090E001C0880F4A95EAF7D0
:1024F0009081892B48C0CA0157FD07969C0193E043
:10250000359527959A95E1F7A481B5812A9FC00159
:102510002B9F900D3A9F900D1124680F791F078C07
:10252000F0A1E02DE60FF71F4770552781E090E0FE
:1025300001C0880F4A95EAF780959081892323C0CE
:10254000CA0157FD07969C0183E0359527958A952A
:10255000E1F7A481B5812A9FC0012B9F900D3A9F7E
:10256000900D1124680F791F078CF0A1E02DE60F64
:10257000F71F4770552781E090E001C0880F4A950A
:10258000EAF79081892780830895813009F086CF0A
:1025900064277527462757276427752784819581E7
:1025A000DC01A61BB70BBD016150710977CF0895FF
:1025B000FC01248935892F3FFFEF3F0751F061E08F
:1025C000FC0186899789019709F460E0822F0C94B9
:1025D000B11F0895CF92DF92EF92FF92FC01248900
:1025E00035892F3FFFEF3F0729F0FC016689822FD5
:1025F0000E94B11F0E941C206B017C010E941C20C4
:10260000DC01CB018C199D09AE09BF090297A10518
:10261000B105A0F3FF90EF90DF90CF9008950F9356
:102620001F93CF93DF93DC015696EC915697E230DF
:1026300071F0E330E9F0E13079F5FB0114960D908B
:10264000BC91A02DA41BB50BA21BB30B18C0EC01B1
:10265000EC81FD81E61BF70BBF0161507109EE8132
:10266000FF81DF01A41BB50BAD01421B530B14C04E
:10267000DA01EC01EE81FF81E61BF70B3197F7FDE4
:102680000DC0EC014E815F81E417F5073CF4AF010A
:10269000BD010E946C1E02C00E94D31EDF91CF912B
:1026A0001F910F9108950F931F93DC015696EC91A3
:1026B0005697E23061F0E33009F1E13081F514968C
:1026C000ED91FC911597E41BF50B319723C0DC01CC
:1026D0001496ED91FC911597DF01A61BB70BBD0178
:1026E000DC011696ED91FC911797DF01A41BB50B49
:1026F000AD0141505109621B730B11C0FA01DC019D
:1027000016964D915C911797DA01A61BB70BBD0188
:10271000621B730BAB01BF010E94D31E0CC057FD9F
:102720000AC0DC011696ED91FC9117974E175F07D2
:1027300014F40E946C1E1F910F910895EF92FF9266
:102740000F931F93CF93DF93EC01198218821B82A2
:102750001A821D821C826115710549F18B01FB01F2
:1027600001900020E9F731977F01E61AF70AB701D7
:102770000E94BA102881398181110DC021153105BF
:1027800019F0C9010E94532B198218821D821C82E4
:102790001B821A820CC0FD82EC82B801C901DF9154
:1027A000CF911F910F91FF90EF900C94B72CDF9178
:1027B000CF911F910F91FF90EF900895DB01149638
:1027C0004D915C9115976D917C91DC01ED91FC919F
:1027D0000280F381E02D09946115710579F0FB0108
:1027E00001900020E9F73197AF01461B570BDC0140
:1027F000ED91FC910280F381E02D099480E090E05E
:1028000008951F920F920FB60F9211242F933F93AA
:102810004F935F936F937F938F939F93AF93BF93E8
:10282000EF93FF938BE792E00E945211FF91EF919B
:10283000BF91AF919F918F917F916F915F914F91D8
:102840003F912F910F900FBE0F901F9018951F92E0
:102850000F920FB60F9211242F938F939F93EF93A4
:10286000FF93E0918B02F0918C028081E0919102C4
:10287000F091920282FD12C09081809194028F5F4C
:102880008F7320919502821751F0E0919402F0E04D
:10289000E558FD4F958F8093940201C08081FF9190
:1028A000EF919F918F912F910F900FBE0F901F90DE
:1028B00018951F920F920FB60F9211242F933F93EA
:1028C0004F935F936F937F938F939F93AF93BF9338
:1028D000EF93FF93E0910F02F09110020995FF91A1
:1028E000EF91BF91AF919F918F917F916F915F9188
:1028F0004F913F912F910F900FBE0F901F90189501
:1029000060932C0270932D0280932E0290932F02DD
:10291000DC01CB01845D9E4FAF4FBF4F80932802F7
:1029200090932902A0932A02B0932B0282E090E0B8
:1029300090932702809326020E947B2060932202BC
:102940007093230280932402909325020895CF92DE
:10295000DF92EF92FF920F931F930E947B200091D2
:1029600022021091230220912402309125026B0152
:102970007C01C01AD10AE20AF30A60912C0270911C
:102980002D0280912E0290912F0248EEC41643E052
:10299000D406E104F104D0F0DC01CB010196A11DC5
:1029A000B11D80932C0290932D02A0932E02B09320
:1029B0002F0208511C4F2F4F3F4F009322021093BC
:1029C00023022093240230932502C7CF1F910F9139
:1029D000FF90EF90DF90CF9008952F923F924F920B
:1029E0005F926F927F928F929F92AF92BF92CF929F
:1029F000DF92EF92FF920F931F93CF93DF93CDB7A8
:102A0000DEB72A970FB6F894DEBF0FBECDBF9A8708
:102A100089870E94A7146B017C01E985FA8582856C
:102A2000982F9F702EE0290F2F70233008F005C1DA
:102A30004681578160857185C416D506E606F7067E
:102A400008F4FBC0923029F482819381A481B5817E
:102A500045C0933009F04EC0E985FA8582809380A5
:102A6000A480B5800E94A71420E8422E21E5522EB2
:102A700066246394712CA30192010E94622960E88C
:102A800071E581E090E00E942A29DC01CB01880DEC
:102A9000991DAA1DBB1DE985FA8582809380A480BB
:102AA000B580C816D906EA06FB06E8F0C701B601EC
:102AB000A30192010E9462292F5F3F4F4F4F5F4F4A
:102AC00060E871E581E090E00E942A29DC01CB01F9
:102AD000880D991DAA1DBB1DE985FA8586839783FC
:102AE000A087B187AAC0C701B601A30192010E94C5
:102AF0006229E6CF943009F09CC0E985FA854280CE
:102B00005380648075800E94A7144B015C010E9471
:102B1000A71469837A838B839C830E94A7146D8397
:102B20007E838F839887480C591C6A1C7B1C80E825
:102B3000882E81E5982EAA24A394B12C69817A81EC
:102B40008B819C81A50194010E946229461A570A33
:102B5000680A790A6D817E818F819885A50194012B
:102B60000E946229CA01B9016C5F7F4F8F4F9F4F4E
:102B700027E030E040E050E00E9462299B01AC0178
:102B800060E871E581E090E00E942A2993018201CA
:102B9000061B170B280B390BE985FA858281938177
:102BA000A481B581C016D106E206F30698F08058DC
:102BB000954CA64FBF4F2C013D014C0C5D1C6E1C6B
:102BC0007F1CC701B601A50194010E94622953012F
:102BD00042010EC016012701280E391E4A1E5B1E37
:102BE000C701B601A50194010E9462295201410169
:102BF000861A970AA80AB90ACA01B9016C5F7F4F01
:102C00008F4F9F4F27E030E040E050E00E94622964
:102C10009B01AC0160E871E581E090E00E942A2907
:102C200095018401061B170B280B390BD901C8012C
:102C300053CF8F7EE985FA858287E985FA8582857B
:102C40008F70813061F482819381A481B581C80E37
:102C5000D91EEA1EFB1EC682D782E086F1862A961E
:102C60000FB6F894DEBF0FBECDBFDF91CF911F919D
:102C70000F91FF90EF90DF90CF90BF90AF909F901B
:102C80008F907F906F905F904F903F902F9008951E
:102C90004F925F926F927F928F929F92AF92BF926C
:102CA000CF92DF92EF92FF920F931F93CF93DF9318
:102CB0004B015C0180911E0290911F02A0912002A5
:102CC000B091210288159905AA05BB0509F4D2C067
:102CD0008CE3C82ED12CE12CF12CC501B401A70145
:102CE00096010E94622960931102CA01B901A701ED
:102CF00096010E94622960931202C501B40120E18D
:102D00003EE040E050E00E946229CA01B90128E19A
:102D100030E040E050E00E94622960931302C50158
:102D2000B40120E831E541E050E00E9462296901E8
:102D30007A01CA01B9016C5F7F4F8F4F9F4F27E027
:102D400030E040E050E00E9462296F5F609314021F
:102D5000412C512C320140E004E610E0C0E9D1E002
:102D6000242F30E02E54384FF901E370FF273097BD
:102D700089F4C901B8010E944E29892B31F4C90197
:102D8000BE010E944E29892B29F48EE691E0A0E035
:102D9000B0E004C08DE691E0A0E0B0E0480E591E1E
:102DA0006A1E7B1ED301C201AA27BB27C816D906FB
:102DB000EA06FB0610F04F5FD3CF4093170230971F
:102DC00099F4C90164E670E00E944E29892B39F418
:102DD000C90160E971E00E944E29892B29F48EE631
:102DE00091E0A0E0B0E004C08DE691E0A0E0B0E0AA
:102DF000481A590A6A0A7B0AC418D508E608F7086F
:102E0000C90164E670E00E944E29EC01C90160E945
:102E100071E00E944E29A8E0B1E020E0213039F4B1
:102E2000309749F4209729F4009729F402C04C9177
:102E300003C04DE101C04CE150E060E070E0C41619
:102E4000D506E606F70640F0C41AD50AE60AF70AE0
:102E50002F5F11962C3011F72F5F20931602C39429
:102E6000C092150280921E0290921F02A092200230
:102E7000B0922102DF91CF911F910F91FF90EF90BF
:102E8000DF90CF90BF90AF909F908F907F906F908A
:102E90005F904F9008950E94A7140E944816809159
:102EA000110290E0089508958EBD00000DB407FE54
:102EB000FDCF8EB508951F93CF93DF93FC01858DD1
:102EC000968D009729F1162FEF0121A131E0309363
:102ED0005702209379021092580210927A02DC0174
:102EE000ED91FC910190F081E02D60E009958D8DD0
:102EF0009E8DDC01ED91FC910190F081E02D612F20
:102F000009958D8D9E8DDF91CF911F910C942B187B
:102F1000A5A5B6A59C9183A9809589238C93838DC3
:102F2000948D892B31F0862FDF91CF911F910C94D6
:102F3000541728E030E080E8A1A5B2A591A9462F5A
:102F4000482319F04C91942B03C04C9190959423F5
:102F50009C93A3A5B4A54C9192A9942B9C93A3A553
:102F6000B4A54C9192A9909594239C938695215059
:102F7000310911F7DF91CF911F9108958CBD9DBD4F
:102F800008951F93CF93DF93EC01162F8D8D9E8DA7
:102F9000892BB1F02FA938AD49AD5AAD60E074E28C
:102FA00084EF90E00E946229DA01C9014097A109EB
:102FB000B109B695A795979587958093B8000FC0EE
:102FC0008B8D9C8D892B21F08DA99EA90E94BE1707
:102FD000EFA5F8A990818CA9809589238083111190
:102FE00002C066EA01C067EACE010E945B178D8DC0
:102FF0009E8D892BB1F02BAD3CAD4DAD5EAD60E04B
:1030000074E284EF90E00E946229DA01C9014097DE
:10301000A109B109B695A795979587958093B800B2
:1030200006C0EFA5F8A990818CA9892B8083DF9138
:10303000CF911F910895ECEBF3E015861486178667
:10304000168681E090E0938B828B918B808B82E05F
:10305000848B858B089530917A02313208F04BC011
:10306000809156028111FCCF9091790222E0209349
:10307000560221E0209355022FEF20935402109224
:10308000530230935202E9E5F2E0A2E3B2E020E01D
:10309000321721F041914D932F5FFACF10923102F8
:1030A00020913102990F922B90933102909130022E
:1030B000913061F410923002909131029093BB00F4
:1030C0009091BC0093FDF8CF95EC01C095EE9093E4
:1030D000BC00909156029230E1F3909154029F3FD0
:1030E00079F080915402803241F080915402803313
:1030F00031F084E005C081E003C082E001C083E0DC
:103100001092580210927A02109257020895DF929C
:10311000EF92FF920F931F93CF93DF93D82ED92F67
:10312000C62F8091D9039091DA03009709F454C017
:103130002091DD0331E03093570220937902109201
:10314000580210927A02DC01ED91FC910190F0811D
:10315000E02D60E00995ED2CFD2E11E0D1E080918D
:10316000D9039091DA03CC2371F11032C8F00E9498
:103170002B188091DD03D09357028093790210922F
:10318000580210927A028091D9039091DA03DC01FF
:10319000ED91FC910190F081E02D60E0099511E046
:1031A0008091D9039091DA03F7016491DC01ED91EC
:1031B000FC910190F081E02D09951F5FC150BFEF98
:1031C000EB1AFB0ACCCFDF91CF911F910F91FF90AB
:1031D000EF90DF900C942B18E091E903F091EA0353
:1031E00090818091EF038095892380830D2D1D2F81
:1031F000CC2309F439C0F80184912091D703309190
:10320000D803232B31F00E945417C1500F5F1F4F7A
:10321000EFCF28E030E040E8E091E503F091E603ED
:103220009091ED03582F542319F05081952B03C032
:103230005081909595239083E091E703F091E80306
:1032400050819091EE03952B9083E091E703F091EC
:10325000E80350819091EE039095952390834695D5
:1032600021503109C9F6D1CFDF91CF911F910F9134
:10327000FF90EF90DF900895EF92FF920F931F93CE
:10328000CF93DF938091D9039091DA03892BD1F00A
:103290002091F3033091F4034091F5035091F6032C
:1032A00060E074E284EF90E00E946229DA01C901D3
:1032B0004097A109B109B695A795979587958093F1
:1032C000B80016C08091D7039091D803892B31F0B4
:1032D0008091F1039091F2030E94BE17E091EB03FD
:1032E000F091EC0390818091F00380958923808395
:1032F00065E084E295E00E9487186091C003615008
:103300008CEB93E00E945B172091C2033091C303C2
:10331000C901079697FD079633E0959587953A95ED
:10332000E1F72091C0033091C103829F8001839F08
:10333000100D929F100D1124C091DB03D091DC037E
:103340008091D9039091DA030C0F1D1F009709F4A7
:103350004CC02091DD0331E0309357022093790275
:103360001092580210927A02DC01ED91FC910190CA
:10337000F081E02D60E40995FF24F394EE24E394BA
:103380008091D9039091DA030C171D0759F1BFE121
:10339000BF15D0F40E942B188091DD03E0925702F4
:1033A000809379021092580210927A028091D90388
:1033B0009091DA03DC01ED91FC910190F081E02D18
:1033C00060E40995FF24F3948091D9039091DA0386
:1033D0006991DC01ED91FC910190F081E02D09955E
:1033E000F394CECF0E942B1841C0E091E903F091F5
:1033F000EA0390818091EF03892B80830C171D07CE
:10340000A9F189912091D7033091D803232B19F08A
:103410000E945417F3CF28E030E040E8E091E50344
:10342000F091E6039091ED03582F542319F0508149
:10343000952B03C05081909595239083E091E703ED
:10344000F091E80350819091EE03952B9083E091E9
:10345000E703F091E80350819091EE039095952356
:103460009083469521503109C9F6C8CF8091D90380
:103470009091DA03892BD1F02091F7033091F80372
:103480004091F9035091FA0360E074E284EF90E018
:103490000E946229DA01C9014097A109B109B695D4
:1034A000A795979587958093B80017C0E091EB0397
:1034B000F091EC0390818091F003892B80838091BF
:1034C000D7039091D803892B41F0DF91CF911F91C1
:1034D0000F91FF90EF900C945317DF91CF911F91B4
:1034E0000F91FF90EF9008952091C2033091C30394
:1034F000C901079697FD079623E0959587952A952C
:10350000E1F72091C0033091C103829FA001839F06
:10351000500D929F500D112460E070E08091DB030C
:103520009091DC030C94B02C4F925F926F927F923B
:103530008F929F92AF92BF92CF92DF92EF92FF92C3
:103540000F931F93CF93DF93CDB7DEB7A1970FB63D
:10355000F894DEBF0FBECDBF8C016A017B0177FFFF
:103560002FC0DC01ED91FC910190F081E02D6DE226
:1035700009955C0122273327A9012C193D094E0921
:103580005F0919A2FE01B1967F019AE0492E512CE4
:10359000612C712CCA01B901A30192010E94622918
:1035A000605DD7016E937D012115310541055105FF
:1035B00089F7BD01C8010E94EC138A0D9B1D1EC036
:1035C0009A01AB0119A2FE01B1967F018AE0882E13
:1035D000912CA12CB12CCA01B901A50194010E9422
:1035E0006229605DD7016E937D012115310541058A
:1035F000510589F7BD01C8010E94EC13A1960FB6D1
:10360000F894DEBF0FBECDBFDF91CF911F910F9118
:10361000FF90EF90DF90CF90BF90AF909F908F90F2
:103620007F906F905F904F900895833081F028F4E1
:10363000813099F08230A1F008958730A9F0883068
:10364000B9F08430D1F4809180008F7D03C08091E7
:1036500080008F7780938000089584B58F7702C0B3
:1036600084B58F7D84BD08958091B0008F7703C0AD
:103670008091B0008F7D8093B0000895CF93DF9349
:10368000AC01990F660B770B8BE792E00E94941ABE
:10369000EC016CE771E08BE792E00E94EC138C0F79
:1036A0009D1FDF91CF910895EF92FF920F931F938B
:1036B000CF93DF937C018B016DE971E08BE792E0A2
:1036C0000E94EC13B8018BE792E00E94DE136AE9D6
:1036D00071E08BE792E00E94EC136CE771E08BE7FE
:1036E00092E00E94EC13C0E0D0E00E94690F8130AC
:1036F000910551F02CF48F3F2FEF920729F012C063
:103700000597029750F10EC0C80FD91FD7FD06C00C
:10371000EC16FD0624F4C0E0D0E001C0E701CE01C4
:103720000E943E1B0E94741A0E941B18B8018CEB69
:1037300093E00E94DE136AE971E08CEB93E00E9453
:10374000EC13AE010D2E000C660B770B8CEB93E0A7
:103750000E94941A0E943C19C8CFCE01DF91CF91EC
:103760001F910F91FF90EF9008953F924F925F92BB
:103770006F927F928F929F92AF92BF92CF92DF9281
:10378000EF92FF920F931F93CF93DF9300D000D05F
:1037900000D0CDB7DEB72C013B014A015901C90168
:1037A000079697FD07969C0193E0359527959A9586
:1037B000E1F73C832B83C12CD12CE12CF12C312C53
:1037C000C3018E0D9F1D9A838983E016F106C4F50F
:1037D0001E821D822D813E812A153B054CF5C901B3
:1037E00087709927892B11F0330C0EC0ED81FE8173
:1037F000F7FD379683E0F595E7958A95E1F7EC0DAF
:10380000FD1DE80DF91D349037FE0CC021E030E0BD
:1038100049815A816D817E81640D751D8CEB93E029
:103820000E9410088D819E8101969E838D83D2CF48
:103830009FEFE91AF90A2B813C81C20ED31EC0CF3B
:1038400026960FB6F894DEBF0FBECDBFDF91CF91A5
:103850001F910F91FF90EF90DF90CF90BF90AF90AE
:103860009F908F907F906F905F904F903F900895C2
:103870002F923F924F925F926F927F928F929F9280
:10388000AF92BF92CF92DF92EF92FF920F931F936E
:10389000CF93DF93CDB7DEB76B970FB6F894DEBF4B
:1038A0000FBECDBF9B8F8A8F1B014A01D22E198775
:1038B00008873701A982DC0159962D913C915A97CE
:1038C0002115310509F0FFC018968D919C9119972B
:1038D000681779070CF0E7C11A968D919C911B9798
:1038E000481759070CF0DFC1EC2DF0E0FB83EA83A9
:1038F0009B0146E0C49E200D311D11243D872C877D
:10390000121613060CF0CFC16A2D70E07B876A8710
:1039100083E0660F771F8A95E1F77F876E87CB017B
:10392000880D991D181619060CF0BDC158968C917A
:10393000811104C08FEA8D1508F4D394AA8DBB8D34
:10394000ED91FC9111970284F385E02DCD0109954D
:10395000B5E0DB9EC0011124EC2DF0E0F98BE88B83
:1039600091012B5F3F4F3B8B2A8B3D822C822101A3
:10397000AC01421953095D8B4C8B7981672F70E044
:103980007F8B6E8BC4010896998F888FEC89FD8997
:10399000E40DF51DED56FA4FD49054019F828E82AE
:1039A000D0FE16C0AA8DBB8DED91FC91B1E0CB127B
:1039B00009C02981213031F40484F585E02D288562
:1039C000398519C00684F785E02DE884F9841DC087
:1039D000488559854615570519F1AA8DBB8DED917E
:1039E000FC91B1E0CB120DC02981213051F4048447
:1039F000F585E02D9301A501B2018A8D9B8D099576
:103A00000FC00684F785E02D73010A851B852A8186
:103A10003B814E815F816C817D818A8D9B8D099573
:103A2000D6943FEFA31AB30A4E815F816E897F89D6
:103A3000460F571F5F834E83888D998DA816B90650
:103A400009F0AECF9FEF491A590AAC81BD81E889D0
:103A5000F989AE0FBF1FBD83AC832A893B8942160B
:103A6000530609F093CF488559854615570509F443
:103A7000F8C0AA8DBB8DED91FC91B1E0CB1211C0C5
:103A80002981213071F4B1016B5F7F4F0088F1898A
:103A9000E02D830128E030E0A4018A8D9B8D0995FB
:103AA000E0C06C857D854A815B81641B750B068453
:103AB000F785E02D73010E851F859A01A4018A8D7B
:103AC0009B8D0995CEC0F9013496E491DE1AF90177
:103AD000329685919491B7E0DB9E800D911D112463
:103AE000F901259134913B8B2A8BFC01259134916E
:103AF0005901FC0132965490319634913C873296AC
:103B000074903196149141E04C1518F0598152305F
:103B100068F0672D072C000C770B7D836C83812F59
:103B2000012E000C990B9B838A8304C01B821A828E
:103B30001D821C82AA8DBB8DED91FC911197028490
:103B4000F385E02DCD010995412CD12C612CF98113
:103B5000EF2FF0E0FF83EE832C2D30E03B872A87A8
:103B6000A401410F511D17FD5A955F8B4E8BB1017A
:103B7000670D711D77FC7A95798F688F7C85671644
:103B800008F06FC0262D30E04A815B81420F531F41
:103B9000AE81BF81A49FC001A59F900DB49F900DE1
:103BA0001124F401E80FF91FF98BE88B842D712C97
:103BB0004E895F89420F531F5D8B4C8B751408F043
:103BC0004DC051E0580F5E87877041F4C5010196E2
:103BD000EA89FB89EA0DFB1DD4905C01D7FE3AC04F
:103BE00061E0C61216C07981713099F4AA8DBB8D3F
:103BF000ED91FC9111970484F585E02D2885398598
:103C00004C895D89688D798D670D711DCD01099590
:103C100021C08C819D81870D911DEA85FB858E9F3A
:103C2000B0018F9F700D9E9F700D1124620D731D4A
:103C3000AA8DBB8DED91FC9111970684F785E02D3F
:103C4000E884F9840E811F812A853B85488959893A
:103C5000CD010995DD0C73948E85B0CF450C63942E
:103C60008DCFAA8DBB8DED91FC9111970688F789B8
:103C7000E02DCD016B960FB6F894DEBF0FBECDBF21
:103C8000DF91CF911F910F91FF90EF90DF90CF9038
:103C9000BF90AF909F908F907F906F905F904F906C
:103CA0003F902F9009946B960FB6F894DEBF0FBE2D
:103CB000CDBFDF91CF911F910F91FF90EF90DF90DB
:103CC000CF90BF90AF909F908F907F906F905F90BC
:103CD0004F903F902F9008950F931F93CF93DF93B2
:103CE00077FF04C0260F371F60E070E0DC011496F8
:103CF000CD91DC911597FB01E20FF31FCE17DF0783
:103D00001CF49E01261B370B121613060CF046C03E
:103D1000FA0157FD3796DF01E3E0B595A795EA95DF
:103D2000E1F7AC9FF001AD9FF00DBC9FF00D1124A9
:103D30006E0F7F1FDC015F96ED91FC919097E60F6F
:103D4000F71F4770552781E090E001C0880F4A9522
:103D5000EAF7482F0130110539F078F002301105EB
:103D6000E9F42E0F3F1F13C02E0F3F1FE217F3077A
:103D7000A9F08081842B8193F9CF80952E0F3F1F6E
:103D8000E217F30759F0908198239193F9CFE21746
:103D9000F30721F0808184278193F9CFDF91CF91C0
:103DA0001F910F910895EF92FF920F931F93CF935E
:103DB000DF93EC0177FDA5C0EC80FD806E157F05DB
:103DC0000CF09FC057FF04C0240F351F40E050E0A7
:103DD0008E819F81FA01E20FF31F8E179F071CF45B
:103DE0009C01241B350B121613060CF08AC0922F6F
:103DF000842F8695869586958E9DD0018F9DB00DDA
:103E000011246A0F7B1FAF8DB8A1A60FB71F477093
:103E1000B1F188E0841B482F682F70E0FB01E55763
:103E2000FA4FE491281798F4621B71092FEF30E0E4
:103E300002C0359527956A95E2F7E2230130110516
:103E400049F078F00230110509F05BC00EC0013076
:103E5000110519F48C91E82B0AC00130110508F006
:103E600049C0E0958C91E82302C08C91E827EC933F
:103E7000941708F446C02C813D81A20FB31FE92F8F
:103E8000E41BE830F8F00230110561F48E2F9C91AC
:103E900090959C932C813D81A20FB31F8850883050
:103EA000B0F70FC081E00115110509F480E081959C
:103EB0009E2F8C932C813D81A20FB31F9850983078
:103EC000C0F7E770EE23E9F0F0E0ED57FA4FE49128
:103ED0000130110539F048F00230110591F48C9150
:103EE000E82706C08C91E82B03C0E0958C91E8236D
:103EF000EC9307C00230110509F4B7CFAE0DBF1D1A
:103F0000BECFDF91CF911F910F91FF90EF90089559
:103F1000CF93DF93282F30E0F901E159FA4F8491D4
:103F2000F901E55AFA4FD491F901E95BFA4FC491CE
:103F3000CC2391F081110E94151BEC2FF0E0EE0FC5
:103F4000FF1FE35CFA4FA591B491EC91ED2381E062
:103F500090E021F480E002C080E090E0DF91CF911A
:103F600008951F93CF93DF93282F30E0F901E15993
:103F7000FA4F8491F901E55AFA4FD491F901E95BBE
:103F8000FA4FC491CC23C1F0162F81110E94151B4A
:103F9000EC2FF0E0EE0FFF1FED5CFA4FA591B4910E
:103FA0009FB7F894111104C08C91D095D82302C00A
:103FB000EC91DE2BDC939FBFDF91CF911F91089591
:103FC000CF93DF9390E0FC01E55AFA4F2491FC0176
:103FD000E95BFA4F8491882361F190E0880F991F83
:103FE000FC01E75DFA4FC591D491FC01ED5CFA4FFD
:103FF000A591B491611109C09FB7F894888120956B
:1040000082238883EC912E230BC0623061F49FB72A
:10401000F8948881322F309583238883EC912E2B5E
:104020002C939FBF06C08FB7F894E8812E2B28836E
:104030008FBFDF91CF9108953FB7F89480910B0423
:1040400090910C04A0910D04B0910E0426B5A89B8C
:1040500005C02F3F19F00196A11DB11D3FBFBA2F1A
:10406000A92F982F8827820F911DA11DB11DBC017A
:10407000CD0142E0660F771F881F991F4A95D1F73F
:1040800008958F929F92AF92BF92CF92DF92EF925C
:10409000FF926B017C010E941C204B015C01C1144A
:1040A000D104E104F104F1F00E941C20DC01CB01F9
:1040B00088199909AA09BB09883E9340A105B10551
:1040C00070F321E0C21AD108E108F10888EE880EE9
:1040D00083E0981EA11CB11CC114D104E104F104B9
:1040E00019F7DDCFFF90EF90DF90CF90BF90AF90AA
:1040F0009F908F9008952FB7F89460910704709166
:1041000008048091090490910A042FBF089588E45F
:1041100091E09093BD038093BC038091DB03909169
:10412000DC03009711F00C94532B0895CF93DF9389
:1041300000D000D000D0CDB7DEB7789484B58260CF
:1041400084BD84B5816084BD85B5826085BD85B53B
:10415000816085BD80916E00816080936E001092B9
:104160008100809181008260809381008091810034
:1041700081608093810080918000816080938000C5
:104180008091B10084608093B1008091B000816023
:104190008093B00080917A00846080937A0080914F
:1041A0007A00826080937A0080917A0081608093A7
:1041B0007A0080917A00806880937A001092C10022
:1041C00061E08DE00E94E01FE0918B02F0918C0293
:1041D00082E08083E0918702F09188021082E09172
:1041E0008902F0918A028FEC808310929302E09111
:1041F0008F02F091900286E08083E0918D02F09131
:104200008E02808180618083E0918D02F0918E0228
:10421000808188608083E0918D02F0918E028081A0
:1042200080688083E0918D02F0918E0280818F7D85
:10423000808380E1809381001092800080E49FE180
:10424000909387008093860081E18093810080EDC8
:104250009CE09093100280930F0281E080936F00A6
:104260001092A5031092A4031092A30310920E02C1
:1042700010920D028091DB039091DC03892B11F5E4
:104280002091C2033091C303C901079697FD079699
:10429000B3E095958795BA95E1F72091C0033091E9
:1042A000C103AC01429FC001439F900D529F900DEE
:1042B00011240E94BB2A9093DC038093DB03892B9B
:1042C00009F417C10E94741A2091C2033091C303EC
:1042D0008091C0039091C103213231050CF4CEC10D
:1042E000B9016054710977FF02C06F5F7F4F759508
:1042F00067958255910997FD019600E410E022E54B
:1043000030E044E652E0959587950E94B51B82E027
:104310008093DE038091D9039091DA03892B09F40D
:10432000C3C18091C2039091C303809709F4BAC1BD
:104330008DE38093DD0310920C0210920B02109219
:10434000580210927A021092560281E08093550230
:104350001092300261E082E10E94B11F61E083E1CE
:104360000E94B11F8091B9008E7F8093B900809127
:10437000B9008D7F8093B90088E48093B80085E40C
:104380008093BC0088EA95E090930A02809309022A
:1043900089EA95E090930802809307028091E403F4
:1043A00087FD1EC061E00E94E01F61E08091E40390
:1043B0000E94B11F61E070E080E090E00E94412027
:1043C00060E08091E4030E94B11F6AE070E080E049
:1043D00090E00E94412061E08091E4030E94B11FBF
:1043E0008091D9039091DA03892B09F41CC22091A2
:1043F000F3033091F4034091F5035091F60360E02C
:1044000074E284EF90E00E946229DA01C9014097CA
:10441000A109B109B695A795979587958093B8009E
:1044200064E080E890E00E9487186091C2036150C8
:104430008CEB93E00E945B1764E08CE790E00E94B5
:1044400087188091DE03813009F404C264E18CEBAB
:1044500093E00E945B1764E088E790E00E94871871
:104460008091C0039091C1038038910509F005C285
:104470008091C2039091C3038032910509F0ECC191
:1044800064E084E790E00E94871869ED8CEB93E08C
:104490000E945B178091DE03813009F40AC261EF4C
:1044A0008CEB93E00E945B1766E088E690E00E9448
:1044B00087188091D9039091DA03892B09F4FBC105
:1044C0002091F7033091F8034091F9035091FA03DA
:1044D00060E074E284EF90E00E946229DA01C90191
:1044E0004097A109B109B695A795979587958093AF
:1044F000B8000E94741A61E871E0CE0101960E9432
:104500009E13BE016F5F7F4F87E190E00E94541BB6
:1045100090931C0280931B0289819A810E94532BE5
:1045200066E871E0CE0101960E949E13BE016F5FA6
:104530007F4F8BE390E00E94541B90931A0280936C
:10454000190289819A810E94532B0E94741A61E09A
:1045500080916C030E94E01F61E080916C030E94D7
:10456000B11F61E080916E030E94E01F60E08091C6
:104570006E030E94B11F80917003909171038F3F71
:104580005FEF950739F061E00E94E01F8CE593E052
:104590000E94D81280E090E0A0EFB2E4809376030E
:1045A00090937703A0937803B093790361E070E070
:1045B0008CE593E00E94F0118CE593E00E94EA12F2
:1045C0006CE771E08BE792E00E94EC136DE871E01C
:1045D0008BE792E00E94EC1380911B0290911C02E9
:1045E0000E943E1B64E971E08BE792E00E94EC13AD
:1045F0008091190290911A020E943E1B409119026B
:1046000020911B0289E28093170281E080931602B9
:10461000809315022093130240931202109211020C
:10462000E2EBF7E090E8C92E9FE3D92E91E1E92E65
:104630009DE4F92E04E610E030E9A32EBB24B394E8
:10464000CF0183709927892B99F4CF01B8010E947B
:104650004E29892B31F4CF01B5010E944E29892BB7
:1046600039F480E8C80E81E5D81E81E0E81EF11C0F
:104670003196EB3D57E0F50719F730C1B9016052AB
:10468000710977FF02C06F5F7F4F759567958357FC
:10469000910997FD019600E210E023E730E044E83D
:1046A00050E031CE8CE345CE61E08091E2030E9480
:1046B000E01F61E08091E3030E94E01F8091E2032C
:1046C000082E000C990BFC01E95BFA4FE491F0E035
:1046D000EE0FFF1FED5CFA4F259134913093EA0302
:1046E0002093E903FC01E55AFA4FE491E093EF03CC
:1046F0008091E303082E000C990BFC01E95BFA4F53
:10470000E491F0E0EE0FFF1FED5CFA4FA591B4913C
:10471000B093EC03A093EB03FC01E55AFA4FE4914C
:10472000E093F0038C91E82BEC938091D703909168
:10473000D803892B09F434C01FB7F894809118026C
:10474000811127C0E1E5F5E08491E5E6F5E094917B
:10475000E82FF0E0EE0FFF1FE75DFA4FA591B4914F
:10476000EC91E92321F461E08AE00E94B11F61E04D
:104770008AE00E94E01F8CB580618CBD8CB580649E
:104780008CBD61E08DE00E94E01F61E08BE00E9443
:10479000E01F809118028F5F809318021FBFFECD2B
:1047A00061E08091E0030E94E01F61E08091E103FD
:1047B0000E94E01F8091E003082E000C990BFC0181
:1047C000E95BFA4FE491F0E0EE0FFF1FED5CFA4F6A
:1047D000259134913093E6032093E503FC01E55ADB
:1047E000FA4FE491E093ED038091E103082E000C71
:1047F000990BFC01E95BFA4FE491F0E0EE0FFF1F2B
:10480000ED5CFA4FA591B491B093E803A093E70350
:10481000FC01E55AFA4FE491E093EE038C91E095A8
:10482000E823EC93BBCD8091D7039091D803892BDB
:1048300031F08091F1039091F2030E94BE17E09154
:10484000EB03F091EC0390818091F0038095892334
:104850008083E6CD60E1FBCD8034910509F015CE73
:1048600063E081E790E00E9487188091DE03813049
:1048700011F06FEC19C06FE917C08036910509F08F
:1048800004CE8091C2039091C303409709F0FDCDFF
:1048900063E08EE690E00E9487188091DE0381300D
:1048A00011F06FEA01C060E18CEB93E00E945B17AE
:1048B000ECCD62E2F5CDE091EB03F091EC03908159
:1048C0008091F003892B80838091D7039091D80346
:1048D000892B09F40ECE0E9453170BCE30E0A0E1D5
:1048E000BEE00E941B294B015C01242F30E0ACE3A9
:1048F000B0E00E941B29DC01CB01880D991DAA1D87
:10490000BB1DBC01CD016C0D7D1D8E1D9F1D0E9428
:1049100080140E94A7146115724E8F4D914038F19A
:1049200080E090E03BE0389FF001399FF00D1124CA
:10493000DF01AE5DBC4F2C912F70F1F4E85EFC4FAF
:1049400085EA99E0918380838C91807D45E850E7EA
:1049500060E070E042835383648375838360806189
:104960008C93828584FF03C0CF010E94ED148BE0FD
:10497000D82ECC24C3942DC001968630910599F68B
:10498000F6CF0E947B204B015C0180915A0381117C
:104990000BC0C0925A0310925B03E0915B03E630B8
:1049A00008F478C010925A030E947B20DC01CB01EE
:1049B00088199909AA09BB09893E9340A105B10547
:1049C00020F30115110519F0C8010E943E1B0E9439
:1049D000E3110E94690F8C010E944B172091000186
:1049E000309101018217930761F20E944B17909357
:1049F0000101809300010E94741A0E941B180E94FA
:104A0000A7140E9448164091130250E060E070E045
:104A10008BE792E00E94941A0E94A7140E94481605
:104A20004091130250E060E070E08CEB93E00E9454
:104A3000941A0E94A7140E9448166091120270E016
:104A4000CE0101960E94E10FBE016F5F7F4F8CEB9C
:104A500093E00E94DE1389819A810E94532B0E9469
:104A60004B17BC01CE0101960E94E10FBE016F5FA2
:104A70007F4F8CEB93E00E94DE1389819A810E9424
:104A8000532B0E943C196CE771E08BE792E00E9487
:104A9000EC1377CFDE9EF0011124EE5DFC4F808198
:104AA00084FF21C00E94A71420915B03D29ED001F5
:104AB0001124FD01E85EFC4F4680578060847184BC
:104AC000641575058605970570F0E080F180AE5D90
:104AD000BC4F8C9185FF11C0263058F0E114F104D1
:104AE00011F0F701099580915B038F5F80935B0361
:104AF00054CF982F9F7091F307C0828584FFEECF2B
:104B0000CF010E94ED14EACF807E8C931182108237
:104B100012821382148215821682178210861186E1
:104B2000DDCF10927E0210927D0288EE93E0A0E02D
:104B3000B0E080937F0290938002A0938102B093B3
:104B4000820288E191E090937C0280937B0285EC65
:104B500090E0909388028093870284EC90E0909399
:104B60008A028093890280EC90E090938C0280937B
:104B70008B0281EC90E090938E0280938D0282EC08
:104B800090E09093900280938F0286EC90E0909357
:104B900092028093910210929402109295021092C8
:104BA000960210929702A8E1B3E02AE533E0FD01F6
:104BB0008285807C828716821782108611861282F7
:104BC000138214821582118210823B962E173F07A2
:104BD00079F710925A0320E030E09BE0929FF001B9
:104BE000939FF00D1124EE5DFC4F8081482F4F7094
:104BF00009F09DC12F5F3F4F1B962630310571F79D
:104C00001092FE031092FD0388EE93E0A0E0B0E066
:104C10008093FF0390930004A0930104B0930204D7
:104C20008AE291E09093FC038093FB031092BF0310
:104C30001092BE0320E830E03093C1032093C003FC
:104C400080E290E09093C3038093C2033093C50346
:104C50002093C4039093C7038093C6031092D2039A
:104C60001092C9031092C8031092CB031092CA038A
:104C700081E08093D1038093D0032FEF3FEF3093F7
:104C8000CF032093CE033093CD032093CC038093A6
:104C9000D3031092D4031092D6031092D50328E4C4
:104CA00031E03093BD032093BC031092D8031092DF
:104CB000D7032BEF33E03093DA032093D90310921C
:104CC000DC031092DB039FEF9093E0039093E103EA
:104CD0009093E2039093E30394E09093E40320E540
:104CE0002093F1031092F20340E85AE166E070E08D
:104CF0004093F3035093F4036093F5037093F6032A
:104D000040EA56E861E070E04093F7035093F803FF
:104D10006093F9037093FA0390939A0325E020932C
:104D20009B0326E020939C0310929D0310929F0307
:104D300010929E031092A1031092A0039093A203DD
:104D40001092A4031092A3038093A5031092A703CB
:104D50001092A6038093A8038093A9031092AA033C
:104D60001092AB031092AD031092AC031092AF03FC
:104D70001092AE0388EE93E09093B1038093B0035A
:104D800080E991E09093B3038093B2031092B4034F
:104D90001092B5031092B6031092B7031092B903A4
:104DA0001092B8031092BB031092BA0362E084E041
:104DB0000E94E01F80919B0387FD03C062E00E9478
:104DC000E01F80919C0387FD03C062E00E94E01F0A
:104DD00080919A030E94881F20919D0330E08217E2
:104DE000930731F483E090E09093A1038093A003B4
:104DF00080919B030E94881F20919D0330E08217C1
:104E0000930751F48091A0039091A10321E08227A0
:104E10009093A1038093A0038CE391E090935D03B2
:104E200080935C03109262031092630310926403F8
:104E30001092650310926603109267031092680344
:104E40001092690388EC90E090936B0380936A035F
:104E500088E090E090936D0380936C038DE090E088
:104E600090936F0380936E038FEF9FEF9093710386
:104E70008093700381E090E09093730380937203BA
:104E800090937503809374031092760310927703C6
:104E9000109278031092790310927B0310927A0398
:104EA00088EE93E090937D0380937C0390937F033F
:104EB00080937E03109288031092890310928A03D4
:104EC00010928B0310928403109285031092860334
:104ED00010928703109299031092980310928C03FA
:104EE00010928D0310928E0310928F0310929003F4
:104EF00010929103109292031092930310929403D4
:104F000010929503109296031092970310925E03ED
:104F100010925F031092600310926103109280035D
:104F20001092810310928203109283030895807E71
:104F3000808311961C921E9212961D921D921D92B4
:104F40001C92159716961D921D921D921C921997F0
:104F500051CEBB274A3031F4992322F4BDE290951B
:104F600081959F4F0C94B527BB27FB015527AA2796
:104F7000880F991FAA1FA41710F0A41B83955051E6
:104F8000B9F7A05DAA3308F0A95DA193009779F75E
:104F9000B111B1931192CB010C94CE27DC01FC012D
:104FA000672F71917723E1F7329704C07C916D935D
:104FB00070836291AE17BF07C8F30895E89409C0E3
:104FC00097FB3EF490958095709561957F4F8F4F3C
:104FD0009F4F9923A9F0F92F96E9BB279395F69552
:104FE000879577956795B795F111F8CFFAF4BB0FD0
:104FF00011F460FF1BC06F5F7F4F8F4F9F4F16C034
:10500000882311F096E911C0772321F09EE8872FBD
:10501000762F05C0662371F096E8862F70E060E079
:105020002AF09A95660F771F881FDAF7880F9695F2
:10503000879597F908950E942E280C949F280E9426
:10504000912838F00E94982820F0952311F00C94B4
:1050500088280C948E2811240C94D3280E94B02800
:1050600070F3959FC1F3950F50E0551F629FF001BB
:10507000729FBB27F00DB11D639FAA27F00DB11DD4
:10508000AA1F649F6627B00DA11D661F829F22275D
:10509000B00DA11D621F739FB00DA11D621F839FE4
:1050A000A00D611D221F749F3327A00D611D231FBA
:1050B000849F600D211D822F762F6A2F11249F5708
:1050C00050409AF0F1F088234AF0EE0FFF1FBB1F0B
:1050D000661F771F881F91505040A9F79E3F5105CA
:1050E00080F00C9488280C94D3285F3FE4F3983E1A
:1050F000D4F3869577956795B795F795E7959F5F74
:10510000C1F7FE2B880F911D9695879597F9089505
:1051100097F99F6780E870E060E008959FEF80EC6A
:10512000089500240A94161617061806090608950D
:1051300000240A9412161306140605060895092E73
:105140000394000C11F4882352F0BB0F40F4BF2BE2
:1051500011F460FF04C06F5F7F4F8F4F9F4F089522
:1051600057FD9058440F551F59F05F3F71F0479518
:10517000880F97FB991F61F09F3F79F087950895FD
:10518000121613061406551FF2CF4695F1DF08C01C
:10519000161617061806991FF1CF86957105610539
:1051A00008940895E894BB2766277727CB0197F9E1
:1051B00008950E941B29A59F900DB49F900DA49F58
:1051C000800D911D112408952F923F924F925F926E
:1051D0006F927F928F929F92AF92BF92CF92DF9207
:1051E000EF92FF920F931F93CF93DF93CDB7DEB76C
:1051F000CA1BDB0B0FB6F894DEBF0FBECDBF099400
:105200002A88398848885F846E847D848C849B8456
:10521000AA84B984C884DF80EE80FD800C811B8164
:10522000AA81B981CE0FD11D0FB6F894DEBF0FBE93
:10523000CDBFED010895A29FB001B39FC001A39F10
:10524000700D811D1124911DB29F700D811D1124BF
:10525000911D0895DB018F939F930E94D928BF91E0
:10526000AF91A29F800D911DA39F900DB29F900DB5
:1052700011240895AA1BBB1B51E107C0AA1FBB1F25
:10528000A617B70710F0A61BB70B881F991F5A95D2
:10529000A9F780959095BC01CD01089597FB072E45
:1052A00016F4009407D077FD09D00E943A2907FC34
:1052B00005D03EF4909581959F4F08957095619526
:1052C0007F4F0895A1E21A2EAA1BBB1BFD010DC042
:1052D000AA1FBB1FEE1FFF1FA217B307E407F507A6
:1052E00020F0A21BB30BE40BF50B661F771F881F82
:1052F000991F1A9469F760957095809590959B0118
:10530000AC01BD01CF010895052E97FB1EF400945A
:105310000E949B2957FD07D00E94622907FC03D0F9
:105320004EF40C949B2950954095309521953F4F14
:105330004F4F5F4F089590958095709561957F4F81
:105340008F4F9F4F08950E941B29B7FF0895821B1E
:10535000930B0895B7FF0C94D9280E94D928821B7B
:10536000930B0895EE0FFF1F0590F491E02D099423
:105370000E94CC290C949F280E94982858F00E94E3
:10538000912840F029F45F3F29F00C9488285111AE
:105390000C94D3280C948E280E94B02868F399238B
:1053A000B1F3552391F3951B550BBB27AA27621721
:1053B0007307840738F09F5F5F4F220F331F441F2E
:1053C000AA1FA9F335D00E2E3AF0E0E832D0915062
:1053D0005040E695001CCAF72BD0FE2F29D0660F4F
:1053E000771F881FBB1F261737074807AB07B0E892
:1053F00009F0BB0B802DBF01FF2793585F4F3AF098
:105400009E3F510578F00C9488280C94D3285F3F78
:10541000E4F3983ED4F3869577956795B795F7951D
:105420009F5FC9F7880F911D9695879597F9089505
:10543000E1E0660F771F881FBB1F621773078407A1
:10544000BA0720F0621B730B840BBA0BEE1F88F7B0
:10545000E09508950E94312A6894B1110C94D328E4
:1054600008950E94B82888F09F5798F0B92F99277F
:10547000B751B0F0E1F0660F771F881F991F1AF03F
:10548000BA95C9F714C0B13091F00E94D228B1E0AA
:1054900008950C94D228672F782F8827B85F39F0A9
:1054A000B93FCCF3869577956795B395D9F73EF4D8
:1054B00090958095709561957F4F8F4F9F4F089580
:1054C00019F416F40C948E280C94A62A0E94B8287D
:1054D000B8F39923C9F3B6F39F57550B87FF0E9482
:1054E000B42A0024A0E640EA90018058569597958A
:1054F00028F4805C660F771F881F20F02617370777
:10550000480730F4621B730B840B202931294A2B86
:10551000A69517940794202531254A2758F7660F3A
:10552000771F881F20F026173707480730F4620BD3
:10553000730B840B200D311D411DA09581F7B9011E
:10554000842F9158880F9695879508959F3F31F045
:10555000915020F4879577956795B795880F911DA1
:105560009695879597F9089591505040660F771F4B
:10557000881FD2F708950F931F93CF93DF93823044
:10558000910510F482E090E0E0911104F091120492
:1055900020E030E0A0E0B0E0309719F14081518187
:1055A0000281138148175907C8F08417950769F4D9
:1055B000109731F012960C93129713961C9327C0F4
:1055C000009311041093120422C02115310519F023
:1055D0004217530718F49A01BD01EF01DF01F801EA
:1055E000DBCF21153105F9F0281B390B24303105AB
:1055F00080F48A819B816115710521F0FB01938301
:10560000828304C09093120480931104FE013296A9
:1056100044C0FE01E20FF31F8193919322503109A0
:10562000398328833AC020910F0430911004232B32
:1056300041F420910401309105013093100420932E
:105640000F0420910201309103012115310541F42D
:105650002DB73EB74091060150910701241B350B31
:10566000E0910F04F0911004E217F307A0F42E1B51
:105670003F0B2817390778F0AC014E5F5F4F2417B6
:10568000350748F04E0F5F1F5093100440930F04EE
:105690008193919302C0E0E0F0E0CF01DF91CF91E0
:1056A0001F910F910895CF93DF93009709F481C064
:1056B000FC01329713821282A0911104B09112045E
:1056C000109781F420813181820F931F20910F0464
:1056D000309110042817390751F5F0931004E09326
:1056E0000F0467C0ED0120E030E0CE17DF0740F483
:1056F0004A815B819E0141155105F1F0EA01F5CF28
:10570000D383C28340815181840F951FC817D90765
:1057100059F488819981840F951F02969183808323
:105720008A819B81938382832115310529F4F0932B
:105730001204E09311043DC0E901FB83EA8349911F
:105740005991C40FD51FEC17FD0761F48081918139
:10575000840F951F0296E901998388838281938142
:105760009B838A83E0E0F0E012968D919C911397E1
:10577000009719F0FD01DC01F7CF8D919C911197F5
:105780009D012E5F3F4F820F931F20910F04309198
:1057900010042817390769F4309729F4109212047D
:1057A0001092110402C013821282B0931004A093CD
:1057B0000F04DF91CF910895A0E0B0E0E2EEFBE2AC
:1057C0000C94E828EC01009721F4CB010E94BB2A3D
:1057D000B4C0FC01E60FF71F9C0122503109E2170B
:1057E000F30708F4A8C0D9010D911C911197061771
:1057F0001707B0F00530110508F49BC0C8010497E5
:105800008617970708F495C002501109061B170B5D
:10581000019311936D937C93CF010E94532B89C008
:105820005B01A01AB10A4C01800E911EA0911104D7
:10583000B0911204612C712CE12CF12C109709F419
:1058400046C08D919C911197A815B905B1F56C01D1
:1058500042E0C40ED11CCA14DB0478F14C018A1852
:105860009B08640142E0C40ED11C1296BC901297B2
:105870001396AC91B5E0CB16D10440F0B282A3836D
:1058800091828082D9016D937C9309C00E5F1F4F76
:10589000800F911FF90191838083EB2DFA2FE11482
:1058A000F10431F0D7011396FC93EE93129741C0A7
:1058B000F0931204E09311043CC06816790608F4D2
:1058C0003C017D0112960D90BC91A02DB7CF809127
:1058D0000F049091100488169906E1F46616770675
:1058E000C8F48091020190910301009741F48DB7B3
:1058F0009EB74091060150910701841B950BE81754
:10590000F907C8F4F0931004E0930F04F9017183D0
:1059100060830FC0CB010E94BB2A7C01009759F025
:10592000A801BE010E94A72CCE010E94532BC701E3
:1059300004C0CE0102C080E090E0CDB7DEB7EEE05B
:105940000C94042981E090E0F8940C94BE2CFB01A7
:10595000DC0102C001900D9241505040D8F70895EB
:10596000DC0101C06D9341505040E0F70895FB0108
:10597000DC0101900D920020E1F7089515E0CBE4E1
:10598000D5E004C0FE010E94B2292196CC34D10793
:06599000C9F7F894FFCFF7
:10599600FFFF0000130420001F1C1F1E1F1E1F1FD9
:1059A6001E1F1E1F000000007411E1100B11C11113
:1059B6003C111A112E11000000000306D605CA0874
:1059C600AA05CE05BA05AB0500000000ED11F011E1
:1059D600EA12D81200000000CD08E110CA08C90872
:1059E6001B12AA051008E8070408F8071708AA05F5
:1059F6003306C1170F13531331071407A7064806BA
:105A060044697370656E73696E6721000D0A003A0A
:105A160000486F7572004D696E75746500686F7524
:105A2600723A20006D696E7574653A20005365748C
:025A360020004E
:00000001FF
